:020000040800F2
:1000000098060020450100084D0100084F01000836
:1000100051010008530100085501000800000000CC
:100020000000000000000000000000005701000870
:1000300059010008000000005B010008392F00088A
:100040005F0100085F0100085F0100085F01000810
:100050005F0100085F010008270300082D03000866
:1000600033030008390300083F030008F9020008C1
:100070005F0100085F0100085F0100085F010008E0
:100080005F0100085F0100085F0100085F010008D0
:100090005F0100085F0100085F01000845030008D8
:1000A0005F010008153000085F0100085F010008CB
:1000B000213000082D3000085F0100085F010008B2
:1000C0005F0100085F0100085F0100085F01000890
:1000D0005F010008313400085F0100085F0100087B
:1000E0005F0100085F0100085F0100085F01000870
:1000F0005F0100085F0100085F0100085F01000860
:100100005F0100085F0100085F0100085F0100084F
:100110005F0100085F0100085F0100085F0100083F
:100120005F0100085F0100085F0100085F0100082F
:10013000DFF80CD000F02AF800480047E937000843
:10014000980600200648804706480047FEE7FEE77D
:10015000FEE7FEE7FEE7FEE7FEE7FEE7FEE7FEE777
:10016000CD2F000831010008D2B201E000F8012BC8
:10017000491EFBD270470022F6E710B513460A4627
:1001800004461946FFF7F0FF204610BD064C074D08
:1001900006E0E06840F0010394E807009847103457
:1001A000AC42F6D3FFF7C8FF383F0008583F0008BD
:1001B00070B504462068816811F0010F1FD0816876
:1001C00021F00101816001F027F90546206880686F
:1001D00010F0010F13D001F01FF9401B022809D9BC
:1001E000A06A40F01000A062E06A40F00100E06206
:1001F000012070BD2068806810F0010FEBD1002055
:1002000070BD10B50246506A816A11F0500F05D0DA
:10021000006A016BBDE8104010460847816A41F44E
:1002200000718162016889684FF4602232EA01013D
:100230000DD1C16859B9816A21F480718162816AE6
:1002400011F4805F03D1816A41F00101816200F005
:1002500049F910BD10B5406A816A41F040018162E0
:10026000C16A41F00401C16200F0B7F910BD10B5D8
:10027000406A00F0B1F910BDF8B5044600260096BA
:100280002068816811F0010F2FD1816841F00101D0
:100290008160174817490068B0FBF1F000900098A2
:1002A00028B10098401E009000980028F9D101F074
:1002B000B3F805462068806810F0010F15D101F0F1
:1002C000ABF8401B02280BD9A06A40F01000A062D6
:1002D000E06A40F00100E06284F824600120F8BD8B
:1002E0002068806810F0010FE9D00020F8BD000000
:1002F0001800002040420F00014800F051BB0000F0
:1003000010020020D0F800C0CCF804304368102B55
:1003100004D0036899600068C260704703689A60FF
:100320000068C1607047012000F05CBF022000F04F
:1003300059BF042000F056BF082000F053BF102022
:1003400000F050BF202000F04DBFFEE72DE9F8017E
:100350004FF0000C0024009490F82420012A20D0B3
:10036000012280F824204A681F264FF47875072A56
:100370001BD203685F6B95FAA5F8521EB8FA88F88D
:1003800002FB08F806FA08F627EA060695FAA5F52C
:10039000B5FA85F50F686A4307FA02F232435A63E9
:1003A00034E0BDE8F801022070470D2A17D2036837
:1003B0001F6B95FAA5F8D21FB8FA88F802FB08F867
:1003C00006FA08F627EA060695FAA5F5B5FA85F5C0
:1003D0000F686A4307FA02F232431A6316E00368B1
:1003E000DF6A95FAA5F80D3AB8FA88F802FB08F822
:1003F00006FA08F627EA060695FAA5F5B5FA85F590
:100400000F686A4307FA02F23243DA620A68382553
:1004100007260A2A17D30368DF6895FAA5F80A3A6F
:10042000B8FA88F802FB08F806FA08F627EA060682
:1004300095FAA5F5B5FA85F58F686A4307FA02F2D1
:100440003243DA6015E003681F6995FAA5F8B8FA37
:1004500088F802FB08F806FA08F627EA060695FA75
:10046000A5F5B5FA85F58F686A4307FA02F23243BB
:100470001A610A68102A01D0112A0BD10268A2F170
:100480008043B3F592330BD0816A41F02001816241
:100490004FF0010C80F82440BDE8F8016046704739
:1004A000936813F4000FF5D1936843F4000393604D
:1004B00009681029EED10949094A0968B1FBF2F12E
:1004C00001EB81014900009100990029E2D00099D7
:1004D000491E009100990029F9D1DBE7180000209E
:1004E00040420F002DE9F04100240020354A364BF0
:1004F0004FF47A7CA2F1100502EB400132F8106053
:100500000F89B1F818803E440F8A098C47443E4455
:100510003144A3FB0161C1F38F01B1F57A7F02D2AF
:1005200045F820C005E055F8201011B1491E45F8E6
:100530002010401C0428DFDB002055F8201009B1F2
:10054000611C8CB2401C0428F7DB204E296831B1B5
:1005500000224FF48041304600F057FF04E00122B2
:100560009103304600F051FF696831B100224FF429
:100570000051304600F049FF04E0012251033046AB
:1005800000F043FF124EA96829B100222021304615
:1005900000F03BFF04E001222021304600F035FF4F
:1005A000E96829B100221021304600F02EFF04E056
:1005B00001221021304600F028FF06484470BDE8B3
:1005C000F081000070020020CDCCCCCC00100140A6
:1005D00000180140D0000020704770472DE9F0411D
:1005E00004460025002C03D0A06A002618B108E0BC
:1005F0000120BDE8F081E66284F82460204600F026
:10060000A5F82046FFF7D4FD0146A06A00F01002CD
:1006100052EA010007D0A06A40F01000A062012158
:100620000846BDE8F081A06A20F4885040F002003E
:10063000A0622268A2F18040B0F59E3017D0E06938
:10064000022393FAA3F3D4F80CC0B3FA83F30CFAA1
:1006500003F3034360680343A068B0F5807F0DD0C7
:1006600001280BD000206769012F0AD018E0E0694B
:10067000B0F5402FE4D14FF40020E1E74FF4807053
:10068000F1E7BCF1000F21D0D4F828C04CF0200CC9
:10069000C4F828C0D4F82CC04CF0010CC4F82CC00D
:1006A000D2F804C02CF4694C4CEA00005060206879
:1006B0008268DFF890C002EA0C021A438260A068E8
:1006C000B0F5807F13D0012811D01AE0D4F818C0FB
:1006D0004FF4604797FAA7F7ACF1010CB7FA87F728
:1006E0000CFA07FC4CEA000040F40060D8E72069EF
:1006F0004FF4700292FAA2F2401EB2FA82F200FAAD
:1007000002F52068C26A22F470022A43C26220689D
:1007100080680D4A1040984207D1E662A06A20F036
:10072000020040F00100A0627AE7A06A20F0020017
:1007300040F01000A062E06A40F00100E062012198
:100740006EE70000FDF7E1FFFE0E1FFF30B587B03A
:1007500004462068A0F18041B1F5923127D11548B7
:10076000816941F400718161806900F40070019039
:100770001B2002900320039002A90F4800F03EFDC9
:100780000F4D0E48286000206860A8608021E96055
:1007900049002961890069612021A961E861284631
:1007A00000F036FC08B1FFF7D0FD25626C6207B09F
:1007B00030BD000000100240000801400800024067
:1007C000100200202DE9F047044688469146206833
:1007D000434F444EA0F1804ABAF5923A01D0B84254
:1007E00007D1306810F4702F03D001252846BDE8EA
:1007F000F08794F8240001280BD0012084F824000D
:100800002046FFF739FD054600212DB184F824105C
:10081000ECE70220BDE8F087A06A20F0010020F498
:10082000606040F48070A0622068B8421AD13268DB
:1008300012F4702F16D0A26A42F48012A2623068BD
:1008400010F4806F05D0A06A20F4005040F480506E
:10085000A062A06A10F4805F13D0E06A20F0060066
:10086000E0620FE0A26A22F48012A262406810F4F3
:10087000806FEED0A06A20F4005040F48050A06257
:10088000E7E7E16284F82410216A17488862216A48
:100890001648C862216A1648086321686FF0020092
:1008A00008602068816841F48071816020684B464F
:1008B00000F14C014246206A00F0DBFB20688168B1
:1008C0004FF4602232EA010104D0816841F48011C2
:1008D00081608BE7816841F4A001816086E70000B8
:1008E0000028014004240140030200086F020008B0
:1008F0005502000810B5044694F82400012807D0DA
:10090000012084F824002046FFF752FC10B10EE0CD
:10091000022010BD2068816821F480718160206A06
:1009200000F010F838B1A16A41F04001A162002145
:1009300084F8241010BDA16A21F4885141F001010E
:10094000A162F4E770B504462068016821F0010156
:10095000016000F061FD0546206800684FF0000668
:1009600010F0010F14D000F057FD401BB0F57A7F56
:1009700009D9606B40F020006063032084F82100F7
:1009800084F8206070BD2068006810F0010FEAD183
:10099000012084F8210084F82060002070BD000050
:1009A0002DE9F05F0446F7492068F74DF74EF84F00
:1009B000DFF8E083DFF8E093DFF8E0A3DFF8E0B3EF
:1009C000884235D9F7490A68A84201D108212DE0AB
:1009D000B04201D1802129E0B84202D14FF4006138
:1009E00024E0404502D14FF400411FE0484502D1C8
:1009F0004FF400211AE0504502D14FF4000115E0F8
:100A0000584501D1082111E0E749884201D18021F0
:100A10000CE0E649884201D1C11407E0E44988426C
:100A200002D14FF4004101E04FF40021114039E0C0
:100A3000E0490A68A84201D1082132E0B04201D160
:100A400080212EE0B84202D14FF4006129E04045F8
:100A500002D14FF4004124E0484502D14FF4002177
:100A60001FE0504502D14FF400011AE0C549884209
:100A700001D1010515E0584501D1082111E0CA490D
:100A8000884201D180210CE0C849884201D1C114BB
:100A900007E0C749884202D14FF4004101E04FF41A
:100AA0000021114081B3016811F0080F2CD00168BA
:100AB00021F008010160B3492068884235D9A84275
:100AC00001D108202EE0B04201D180202AE0B842B6
:100AD00002D14FF4006025E0404502D14FF40040C0
:100AE00020E0484502D14FF400201BE0504502D1E0
:100AF0004FF4000016E0584501D1082012E0AA4941
:100B0000884202D180200DE056E0A849884201D1F8
:100B1000C01407E0A649884202D14FF4004001E02A
:100B20004FF40020A449086038E0A84201D1082011
:100B300032E0B04201D180202EE0B84202D14FF421
:100B4000006029E0404502D14FF4004024E04845D0
:100B500002D14FF400201FE0504502D14FF40000B5
:100B60001AE0884202D14FF0006015E0584501D1EB
:100B7000082011E08C49884201D180200CE08B498B
:100B8000884201D1C01407E08949884202D14FF45C
:100B9000004001E04FF4002086494860606B40F05F
:100BA00001006063042084F82100002084F8200004
:100BB000216B09B12046884772492068884235D99F
:100BC00078490A68A84201D104212DE0B04201D140
:100BD000402129E0B84202D14FF4806124E0404531
:100BE00002D14FF480411FE0484502D14FF48021EB
:100BF0001AE0504502D14FF4800115E0584501D16B
:100C0000042111E06849884201D140210CE0674984
:100C1000884201D1011507E06549884202D14FF4AD
:100C2000804101E04FF48021114039E061490A68B8
:100C3000A84201D1042132E0B04201D140212EE08E
:100C4000B84202D14FF4806129E0404502D14FF40F
:100C5000804124E0484502D14FF480211FE05045F7
:100C600002D14FF480011AE04649884201D1C10403
:100C700015E0584501D1042111E04B49884201D1CA
:100C800040210CE04949884201D1011507E048495B
:100C9000884202D14FF4804101E04FF4802111409D
:100CA00079B3016811F0040F2BD0016811F0200F07
:100CB00003D1016821F004010160324920688842B3
:100CC00035D9A84201D104202EE0B04201D1402004
:100CD0002AE0B84202D14FF4806025E0404502D1BD
:100CE0004FF4804020E0484502D14FF480201BE0C3
:100CF000504502D14FF4800016E0584502D104203F
:100D000012E071E02849884201D140200CE02749D7
:100D1000884201D1001507E02549884202D14FF4ED
:100D2000804001E04FF480202349086055E0A8424C
:100D300001D104204FE0B04201D140204BE0B84245
:100D400002D14FF4806046E0404502D14FF480402C
:100D500041E0484502D14FF480203CE0504502D1AB
:100D60004FF4800037E0884202D14FF0806032E0DB
:100D7000584501D104202EE00B4988421ED1402065
:100D800029E0000080000240080002401C000240F0
:100D90003000024044000240580002406C00024013
:100DA00008040240000402401C04024030040240D7
:100DB0004404024000000240040402408D4988427D
:100DC00001D1001507E08C49884202D14FF48040E0
:100DD00001E04FF4802089494860112084F8210007
:100DE000E16A09B120468847854A2068904235D992
:100DF00084490B68A84201D102212DE0B04201D103
:100E0000202129E0B84202D14FF4007124E040458E
:100E100002D14FF400511FE0484502D14FF4003198
:100E20001AE0504502D14FF4001115E0584501D1A8
:100E3000022111E07449884201D120210CE06D4962
:100E4000884201D1411507E06B49884202D14FF435
:100E5000005101E04FF40031194039E067490B6857
:100E6000A84201D1022132E0B04201D120212EE07E
:100E7000B84202D14FF4007129E0404502D14FF44D
:100E8000005124E0484502D14FF400311FE05045A5
:100E900002D14FF400111AE0904202D14FF00071DC
:100EA00015E0584501D1022111E05749884201D18E
:100EB00020210CE04F49884201D1411507E04E49FD
:100EC000884202D14FF4005101E04FF40031194043
:100ED000002972D0016811F0020F6ED0016811F084
:100EE000200F03D1016821F00201016020689042C7
:100EF00034D9A84201D102202DE0B04201D12020F6
:100F000029E0B84202D14FF4007024E0404502D1FC
:100F10004FF400501FE0484502D14FF400301AE072
:100F2000504502D14FF4001015E0584501D1022080
:100F300011E03549884201D120200CE02D4988423A
:100F400001D1401507E02C49884202D14FF40050EE
:100F500001E04FF400302D49086039E0A84201D18A
:100F6000022033E0B04201D120202FE0B84202D16C
:100F70004FF400702AE0404502D14FF4005025E0C4
:100F8000484502D14FF4003020E0504502D14FF4E3
:100F900000101BE0904202D14FF0007016E058455F
:100FA00001D1022012E01849884201D120200DE031
:100FB0001049884202D1401508E018E00E498842E5
:100FC00002D14FF4005001E04FF400300B4948606B
:100FD000606B6063012084F82100002084F8200009
:100FE000A16A002903D02046BDE8F05F0847BDE8AC
:100FF000F09F000030040240440402400000024020
:1010000080000240000402401C040240040402402C
:1010100030B4002804D090F82110002319B104E066
:1010200030BC0120704780F82030022180F8211068
:1010300001680A686FF30D12D0F804C0846805696E
:101040004CEA040CC4682C434CEA040C44694CEA96
:10105000040C84694CEA040CC4694CEA040C4CEAA4
:1010600002020A604363012180F8211030BC002095
:10107000704710B5044694F82000012825D00120BF
:1010800084F82000022084F821002068D0F800C0F5
:101090002CF0010CC0F800C02046FFF733F920689F
:1010A000016841F0020101602068016841F004011B
:1010B00001602068016841F0080101602068016852
:1010C00041F001010160002010BD022010BD31B5CA
:1010D00000F0A2F9044600F09FF90099001B884235
:1010E000F9D338BD70B50146002601253B483C4C7C
:1010F000082946D00DDC012918D0022927D004295F
:1011000006D100F077F998B36079002800D06671B5
:1011100070BD102947D02029FAD100F06BF90028C2
:1011200053D0607A0028F3D0667270BD012100F0C0
:1011300061F920B120790028F7D0267170BD20799F
:101140000028FBD12571BDE8704002F079BD022175
:1011500000F050F920B1E0790028EFD0E67170BDC1
:10116000E0790028FBD1E571BDE8704002F07EB95E
:1011700060790028F3D16571BDE87040012002F06C
:101180005FBD082100F036F920B1207A0028E6D0B2
:10119000267270BD207A0028FBD12572BDE8704010
:1011A000012002F063B9102100F024F920B1A079E8
:1011B0000028EED0A67170BDA0790028FBD1A571E2
:1011C000BDE87040022002F03BBD607A0028F2D1F9
:1011D0006572BDE87040022002F048B9001001407D
:1011E000D000002010B504490A68024202D008600D
:1011F000FFF778FF10BD0000140401402DE9F84FFF
:1012000000239C46DFF8E0810F2708F1040909F16B
:10121000040A0AF1040B012202FA0CF60A683240B1
:10122000B2427DD1DFF8C4E14C68A4EB0E057445F1
:101230002BD00DDC032C34D005DC34B3012C19D0B9
:10124000022C2FD11BE0112C16D0122C2AD119E020
:10125000B5F5881F19D006DCB5F5803F15D0B5F57A
:10126000801F1FD111E0B5F5001F0ED0B5F5041F8A
:1012700018D10AE0CB6815E0CB681B1D12E0CB68E3
:1012800008330FE0CB680C330CE08B6823B1012BE3
:1012900004D00823466105E0042303E00823066127
:1012A00000E00023B2F5807F01D2054601E000F1A5
:1012B000040502D24FEA8C0403E0ACF108044FEAC3
:1012C00084042E6807FA04FE26EA0E0603FA04F4E4
:1012D00046EA04042C604C6814F0805F7CD0444CD7
:1012E000A56945F00105A561A46904F00104009415
:1012F0002CF0030404F1804404F58034A6684FEA1E
:101300008C754FEA157507FA05FE26EA0E0EA0F158
:101310008046B6F5843620D0B6F580661FD000E052
:101320005AE0B6F580661CD0B6F580661BD0B6F5DF
:1013300080661AD0B6F5806619D0062606FA05F53D
:1013400045EA0E05A5604C6814F4803F11D0D8F82A
:1013500000401443C8F8004010E00026EEE70126E4
:10136000ECE70226EAE70326E8E70426E6E7052697
:10137000E4E7D8F800409443C8F800404C6814F4FF
:10138000003F05D0D9F800401443C9F8004004E0FC
:10139000D9F800409443C9F800404C6814F4801F09
:1013A00005D0DAF800401443CAF8004004E0DAF847
:1013B00000409443CAF800404C6814F4001F05D064
:1013C000DBF800402243CBF8002005E0DBF80040CA
:1013D00024EA0202CBF800200CF1010CBCF1100F42
:1013E000FFF419AFBDE8F88F0004014000001110B0
:1013F000001002408068084201D0012070470020A0
:101400007047C2685140C1607047002A01D0016135
:101410007047090401617047014800687047000087
:101420000000002010B50446002C0AD02068C168D6
:1014300011F0010F07D0C06810F0020F03D0012097
:1014400010BD012010BD607B20B900202073204614
:1014500000F018F802206073216845F255500860CA
:1014600020684168626821F00701114341602068EB
:101470008168A2686FF30B011143816001206073E2
:10148000002010BD70472DE9F0410446207B012863
:1014900018D00126267302206073FFF7BDFF0546B2
:1014A0002068C0684FF0000710F0020F12D0FFF75D
:1014B000B3FF401BB0F57A7F07D903206073277311
:1014C000BDE8F0810220BDE8F0812068C06810F01E
:1014D000020FECD121684AF6AA20086066732773D0
:1014E0000020BDE8F081017B012910D001210173AA
:1014F0000222427303684CF6CC421A6003684AF633
:10150000AA221A6041730021017300207047022053
:101510007047000002480168491C016070470000E4
:101520000000002010B50748016841F0100101607B
:10153000032000F09BF8052000F006F800F016F8F4
:10154000002010BD0020024010B5044600F074FADF
:101550004FF47A72B0FBF2F000F034FF0022214623
:10156000501E00F04FF8002010BD000008B51D48C7
:10157000816941F001018161806900F00100009002
:10158000032000F073F8002211466FF00B0000F00A
:1015900039F8002211466FF00A0000F033F80022FB
:1015A00011466FF0090000F02DF800221146501F7F
:1015B00000F028F800221146101F00F023F8002246
:1015C0001146901E00F01EF805210022881F00F031
:1015D00019F80548416821F0E06141F0007141606F
:1015E00008BD0000001002400000014000F01F0193
:1015F000012202FA01F14009800000F1E020C0F868
:101600000011704710B4184B1B68C3F30223C3F1D9
:10161000070CBCF1040F01D94FF0040C1C1D072C62
:1016200001D2002300E0DB1E012404FA0CFCACF123
:10163000010C0CEA0101994004FA03F35B1E1A4005
:101640001143002808DA00F00F0000F1E020090142
:1016500080F8141D10BC704700F1E020090180F8EB
:10166000001410BC704700000CED00E000F0070013
:10167000064A11684FF6FF03194041EA002040F086
:10168000FD7040F080601060704700000CED00E0DD
:101690002DE9F84304465F4F207810F0010F7AD00F
:1016A000F86940F08050F861F86900F080500090CF
:1016B000594D286840F480702860FFF7ADFE06465B
:1016C000286810F4807F0BD1FFF7A6FE801B6428EA
:1016D00002D90320BDE8F883286810F4807FF3D096
:1016E000386A00F44070002877D0A18801F4407176
:1016F000814272D0386A20F440704FF4803191FA00
:10170000A1F2B2FA82F2920002F1844202F584025E
:101710004FF00108C2F8008491FAA1F10022B1FA59
:1017200081F1890001F1844101F58401C1F80024AF
:10173000386210F0010F50D0FFF76EFE064602250A
:1017400095FAA5F0B0FA80F040F04000B8EB501FD9
:1017500001D138680BE095FAA5F0B0FA80F040F0BE
:101760004000B5EB501F01D1386A00E0786A95FA65
:10177000A5F1B1FA81F101F01F0108FA01F1084267
:101780002BD141F28839FFF747FE801B484503D92A
:101790000320BDE8F88326E095FAA5F0B0FA80F0C2
:1017A00040F04000B8EB501F01D139680BE095FACA
:1017B000A5F0B0FA80F040F04000B5EB501F01D129
:1017C000396A00E0796A95FAA5F0B0FA80F000F085
:1017D0001F0008FA00F00142D5D0386A616820F491
:1017E000407008433862207810F0020F05D0786806
:1017F000A16820F4404008437860207810F0100F72
:1018000005D07868616920F4800008437860002082
:10181000BDE8F88300100240007000402DE9F04759
:1018200004460D46DFF80082D8F8000000F00700FB
:10183000A8420FD2D8F8000020F007002843C8F8CB
:101840000000D8F8000000F00700A84202D00120F4
:10185000BDE8F0872078754F10F0020F05D078684A
:10186000A16820F0F00008437860207810F0010FA4
:101870007AD06068012301280CD0022824D00222EB
:1018800092FAA2F1B1FA81F141F02001490935D073
:10189000396834E04FF4003292FAA2F1B1FA81F1E2
:1018A00041F02001490901D0396800E0796A92FAD3
:1018B000A2F2B2FA82F202F01F0203FA02F211421D
:1018C0002AD10120BDE8F0874FF0007292FAA2F110
:1018D000B1FA81F141F02001490901D0396800E0F5
:1018E000796A92FAA2F2B2FA82F202F01F0203FAC5
:1018F00002F2114210D10120BDE8F087796A92FA14
:10190000A2F2B2FA82F202F01F0203FA02F21142CC
:1019100002D10120BDE8F087796821F00301084376
:101920007860FFF779FD0646606841F28839012842
:101930000DD002281FD0786810F00C0F32D0FFF7BE
:101940006BFD801B484529D90320BDE8F0877868E6
:1019500000F00C00042825D0FFF75EFD801B4845F1
:1019600003D90320BDE8F0871CE0786800F00C0084
:101970000428F1D116E0786800F00C00082811D096
:10198000FFF74AFD801B484502D90320BDE8F087D8
:10199000786800F00C000828F2D103E0786810F0B5
:1019A0000C0FCCD1D8F8000000F00700A8420FD9E6
:1019B000D8F8000020F007002843C8F80000D8F845
:1019C000000000F00700A84202D00120BDE8F08727
:1019D000207810F0040F05D07868E16820F4E0600A
:1019E00008437860207810F0080F06D078682169E5
:1019F00020F4605040EAC100786000F04FF8796848
:101A0000F02292FAA2F201F0F001B2FA82F2D14091
:101A1000074A515CC840074908600520FFF794FD5C
:101A20000020BDE8F08700000020024000100240C6
:101A3000203F00081800002001480068704700009F
:101A40001800002000B5FFF7F7FF074949684FF479
:101A5000E06292FAA2F201F4E061B2FA82F2D140BD
:101A6000024A515CC84000BD00100240303F0008EF
:101A700000B5FFF7E1FF074949684FF4605292FA59
:101A8000A2F201F46051B2FA82F2D140024A515CF2
:101A9000C84000BD00100240303F000885B01DA0C6
:101AA000036882684168C0680193039202910490C0
:101AB0001CA0006800901C4B59681C4801F00C02E7
:101AC000042A21D0082A1FD14FF4701C9CFAACFCC8
:101AD00001F47012BCFA8CFC22FA0CF20DF1040C29
:101AE0001CF8022011F4803F10D059684FF40033E5
:101AF00093FAA3F301F40031B3FA83F3D9401DF84C
:101B00000110B0FBF1F0504305B07047084805B034
:101B10005043704702030405060708090A0B0C0D21
:101B20000E0F1010010200000010024000127A0097
:101B300000093D002DE9F84F0446FD4D20784FF097
:101B4000010610F0010F74D06868770400F00C00F3
:101B5000042808D0686800F00C0008281ED16868C6
:101B600010F4803F1AD097FAA7F0B0FA80F040F056
:101B70002000400901D0286800E0686A97FAA7F1C0
:101B8000B1FA81F101F01F0106FA01F1084250D0CB
:101B9000606800284DD10120BDE8F88F6068B0F57D
:101BA000803F1AD0F0B1B0F5A02F24D0286820F4DF
:101BB00080302860286820F4802028606068B8B3EE
:101BC000FFF72AFC804697FAA7F0B0FA80F040F0C1
:101BD0002000400918D0286817E0286840F48030B9
:101BE0002860EBE7286820F480302860286820F41B
:101BF00080202860E2E7286840F480202860286878
:101C000040F480302860D9E7686A97FAA7F1B1FA02
:101C100081F101F01F0106FA01F1084256D1FFF7E8
:101C2000FBFBA0EB0800642804D90320BDE8F88F73
:101C300016E04BE097FAA7F0B0FA80F040F02000F1
:101C4000400901D0286800E0686A97FAA7F1B1FA64
:101C500081F101F01F0106FA01F10842DFD035E001
:101C6000FFF7DAFB804697FAA7F0B0FA80F040F071
:101C70002000400901D0286800E0686A97FAA7F1BF
:101C8000B1FA81F101F01F0106FA01F108421DD0FD
:101C9000FFF7C2FBA0EB0800642802D90320BDE8CF
:101CA000F88F97FAA7F0B0FA80F040F020004009D2
:101CB00001D0286800E0686A97FAA7F1B1FA81F1CB
:101CC00001F01F0106FA01F10842E1D120784FF03E
:101CD000000810F0020F4FF002074ED068684FF076
:101CE000F80A10F00C0F21D0686800F00C000828EA
:101CF00003D1686810F4803F18D0206988B396FA41
:101D0000A6F0B0FA80F0800000F1844000F5840075
:101D10000660FFF781FB814697FAA7F0B0FA80F0E2
:101D200040F02000400929D0286828E097FAA7F061
:101D3000B0FA80F040F02000400901D0286800E0AF
:101D4000686A97FAA7F1B1FA81F101F01F0106FA6A
:101D500001F1084206D02069012803D00120BDE826
:101D6000F88F40E028689AFAAAF26169B2FA82F222
:101D700020F0F80091400843286075E0686A97FAFF
:101D8000A7F1B1FA81F101F01F0106FA01F1084251
:101D90001DD1FFF741FBA0EB0900022802D9032067
:101DA000BDE8F88F97FAA7F0B0FA80F040F0200075
:101DB000400901D0286800E0686A97FAA7F1B1FAF3
:101DC00081F101F01F0106FA01F10842E1D0286813
:101DD0009AFAAAF26169B2FA82F220F0F800914010
:101DE0000843286040E096FAA6F0B0FA80F0800040
:101DF00000F1844000F58400C0F80080FFF70CFB80
:101E0000814697FAA7F0B0FA80F040F02000400930
:101E100001D0286800E0686A97FAA7F1B1FA81F169
:101E200001F01F0106FA01F108421DD0FFF7F4FA94
:101E3000A0EB0900022802D90320BDE8F88F97FA29
:101E4000A7F0B0FA80F040F02000400901D02868E7
:101E500000E0686A97FAA7F1B1FA81F101F01F0179
:101E600006FA01F10842E1D1207810F0080F5ED0A7
:101E7000A069B8B396FAA6F0B0FA80F0800000F13D
:101E8000844000F58400C0F88064FFF7C5FA8146FD
:101E900097FAA7F0B0FA80F040F06000B6EB501F60
:101EA00001D128680BE097FAA7F0B0FA80F040F073
:101EB0006000B7EB501F01D1286A00E0686A97FA0A
:101EC000A7F1B1FA81F101F01F0106FA01F1084210
:101ED0002AD1FFF7A1FAA0EB0900022803D90320B9
:101EE000BDE8F88F26E097FAA7F0B0FA80F040F04E
:101EF0006000B6EB501F01D128680BE097FAA7F0FD
:101F0000B0FA80F040F06000B7EB501F01D1286AB2
:101F100000E0686A97FAA7F1B1FA81F101F01F01B8
:101F200006FA01F10842D4D00120FFF7D0F85AE0B8
:101F30000010024096FAA6F0B0FA80F0800000F19E
:101F4000844000F58400C0F88084FFF765FA81467C
:101F500097FAA7F0B0FA80F040F06000B6EB501F9F
:101F600001D128680BE097FAA7F0B0FA80F040F0B2
:101F70006000B7EB501F01D1286A00E0686A97FA49
:101F8000A7F1B1FA81F101F01F0106FA01F108424F
:101F900029D0FFF741FAA0EB0900022802D903205B
:101FA000BDE8F88F97FAA7F0B0FA80F040F0600033
:101FB000B6EB501F01D128680BE097FAA7F0B0FAF2
:101FC00080F040F06000B7EB501F01D1286A00E0BC
:101FD000686A97FAA7F1B1FA81F101F01F0106FAD8
:101FE00001F10842D5D1207810F0040F68D0E869DB
:101FF00040F08050E861E86900F080500090DFF820
:10200000A0A3DAF8000040F48070CAF80000FFF7DF
:1020100003FA8146DAF8000010F4807F0DD1FFF753
:10202000FBF9A0EB0900642802D90320BDE8F88F72
:10203000DAF8000010F4807FF1D0E06801281CD0AD
:1020400000B3052827D0286A20F001002862286AFA
:1020500020F004002862E06841F2883A78B3FFF784
:10206000DBF9814697FAA7F0B0FA80F040F0400023
:10207000B6EB501F18D1286824E0286A40F0010010
:102080002862E8E7286A20F001002862286A20F028
:1020900004002862DFE7286A40F004002862286A0A
:1020A00040F001002862D6E797FAA7F0B0FA80F076
:1020B00040F04000B7EB501F03D1286A02E036E041
:1020C00083E0686A97FAA7F1B1FA81F101F01F0184
:1020D00006FA01F1084278D1FFF79EF9A0EB09005A
:1020E000504502D90320BDE8F88F97FAA7F0B0FA5F
:1020F00080F040F04000B6EB501F01D128680BE0A3
:1021000097FAA7F0B0FA80F040F04000B7EB501F0C
:1021100001D1286A00E0686A97FAA7F1B1FA81F163
:1021200001F01F0106FA01F10842D5D04DE0FFF79A
:1021300073F9814697FAA7F0B0FA80F040F04000BA
:10214000B6EB501F01D128680BE097FAA7F0B0FA60
:1021500080F040F04000B7EB501F01D1286A00E04A
:10216000686A97FAA7F1B1FA81F101F01F0106FA46
:1021700001F1084229D0FFF74FF9A0EB09005045C3
:1021800002D90320BDE8F88F97FAA7F0B0FA80F0E3
:1021900040F04000B6EB501F01D128680BE097FAE1
:1021A000A7F0B0FA80F040F04000B7EB501F01D12B
:1021B000286A00E0686A97FAA7F1B1FA81F101F0A4
:1021C0001F0106FA01F10842D5D1E069D0B3696870
:1021D00001F00C0108297DD04FF0807A4FF0007992
:1021E000022817D09AFAAAF0B0FA80F0800000F125
:1021F000844000F58400C0F80080FFF70DF9044624
:1022000099FAA9F0B0FA80F040F0200040097DD0A2
:10221000286897E09AFAAAF0B0FA80F0800000F1FE
:10222000844000F58400C0F80080FFF7F5F8074609
:1022300099FAA9F0B0FA80F040F02000400902D0ED
:10224000286801E0A5E0686A99FAA9F1B1FA81F17C
:1022500001F01F0106FA01F108421CD0FFF7DCF87B
:10226000C01B022802D90320BDE8F88F99FAA9F013
:10227000B0FA80F040F02000400901D0286800E06A
:10228000686A99FAA9F1B1FA81F101F01F0106FA21
:1022900001F10842E2D1206AB0F5803F05D16868BB
:1022A000A16820F4003008436860616A206A08432E
:1022B000696821F47411084368609AFAAAF0B0FAC8
:1022C00080F0800000F1844000F584000660FFF794
:1022D000A3F800E060E0044699FAA9F0B0FA80F0B3
:1022E00040F02000400901D0286800E0686A99FAAF
:1022F000A9F1B1FA81F101F01F0106FA01F10842DA
:1023000047D1FFF789F8001B022800E019E002D945
:102310000320BDE8F88F99FAA9F0B0FA80F040F0F8
:102320002000400901D0296800E0696A99FAA9F003
:10233000B0FA80F000F01F0006FA00F00142E0D091
:1023400027E0686A99FAA9F1B1FA81F101F01F0159
:1023500006FA01F108421CD0FFF75EF8001B0228C4
:1023600002D90320BDE8F88F99FAA9F0B0FA80F0FD
:1023700040F02000400901D0296800E0696A99FA1C
:10238000A9F0B0FA80F000F01F0006FA00F0014258
:10239000E2D10020BDE8F88F0120BDE8F88F0000F1
:1023A000007000404FF0E021042804D0086920F0BC
:1023B000040008617047086940F004000861704734
:1023C00070470000401EB0F1807F01D301207047AC
:1023D0004FF0E0214861044AF0201070002088612D
:1023E000072008610020704723ED00E010B5FFF7DB
:1023F000E7FF10BD7047704710B490F83820012AED
:102400002AD0012380F83830022280F8392002686F
:10241000D2F804C02CF0700CC2F804C00268D2F8E4
:1024200004C00C684CEA040CC2F804C00268D2F87C
:1024300008C02CF0800CC2F808C00268D2F808C0AE
:1024400049684CEA0101916080F83930002180F838
:10245000381010BC0020704710BC0220704710B527
:102460000446002C03D094F8390010B107E0012095
:1024700010BD002084F83800204600F00DF802203E
:1024800084F83900211D206800F0D6FD012084F871
:102490003900002010BD000008B500682049A0F1F7
:1024A0008042B2F5963216D0B0F1804F25D012F5A9
:1024B000943234D1C86940F00200C861C86900F0A4
:1024C0000200009001211D20FFF79CF8BDE80840A4
:1024D0001D20FFF78BB8886940F400608861886927
:1024E00000F400600090002201211920FFF78AF813
:1024F000BDE808401920FFF779B8C86940F001002D
:10250000C861C86900F001000090002201211C2070
:10251000FFF778F8BDE808401C20FFF767B808BD52
:10252000001002400168CA6842F00102CA600068F7
:10253000016841F001010160002070470168CA682C
:1025400022F00102CA600068016A41F211121142D0
:1025500007D1016A9210114203D1016821F00101F3
:1025600001600020704770B5044694F838000128D7
:1025700018D0012584F83850022084F839002068EA
:10258000826822F0770222F47F4282600868502835
:102590003AD00EDC20285FD006DC002852D010286C
:1025A00063D154E0022070BD30285AD040285CD15D
:1025B0003EE0602832D070280CD0B0F5805F03D0A8
:1025C000B0F5005F51D113E02068816821F0070168
:1025D00081604AE0CB684A688968206800F072FD33
:1025E0002068816821F0770141F0770181603CE04B
:1025F000CB684A688968206800F064FD20688168BB
:1026000041F48041816030E0CA684968206800F088
:102610006CFD5021206800F060FD26E0CA68496822
:10262000206800F075FD6021206800F056FD1CE078
:10263000CA684968206800F058FD4021206800F011
:102640004CFD12E00021206800F047FD0DE0102154
:10265000206800F042FD08E02021206800F03DFDE8
:1026600003E03021206800F038FD84F83950002064
:1026700084F8380070BD704770B504462068016961
:102680004FF0000511F0020F17D0C16811F0020FD2
:1026900013D0E91E0161012020762068806910F0C6
:1026A000030F03D02046FFF7E6FF05E0204600F0C9
:1026B0009DF8204600F09BF825762068016911F00E
:1026C000040F18D0C16811F0040F14D06FF004018A
:1026D0000161022020762068806910F4407F03D0D9
:1026E0002046FFF7C8FF05E0204600F07FF82046AF
:1026F00000F07DF825762068016911F0080F18D0E8
:10270000C16811F0080F14D06FF0080101610420B6
:1027100020762068C06910F0030F03D02046FFF731
:10272000AAFF05E0204600F061F8204600F05FF8BF
:1027300025762068016911F0100F18D0C16811F0DA
:10274000100F14D06FF0100101610820207620686E
:10275000C06910F4407F03D02046FFF78CFF05E0EE
:10276000204600F043F8204600F041F82576206826
:10277000016911F0010F09D0C16811F0010F05D0F6
:102780006FF001010161204600F032F82068016914
:1027900011F0800F09D0C16811F0800F05D06FF0E3
:1027A000800101612046FFF725FE2068016911F0D4
:1027B000400F09D0C16811F0400F05D06FF0400103
:1027C0000161204600F074F82068016911F0200FC3
:1027D0000BD0C16811F0200F07D06FF0200101610C
:1027E0002046BDE87040FFF706BE70BD70477047D9
:1027F0002DE9F04105462B68A3F18040B0F59630F5
:102800001FD0B3F1804F1FD010F5943017D10220A4
:10281000012181F310882449C0EB001201EB8204EE
:102820006168002282F31088A268204E4FF4FA3CBF
:1028300091420CD140F2E7307060D862E860BDE8A8
:10284000F0814FF00000E3E74FF00100E0E706DA27
:10285000A2EB0107BCFBF7FCC6F804C005E0A1EB46
:102860000207BCFBF7FCC6F804C0D6F804C0BCF1F4
:10287000250F01D24FF0250CC6F804C0C3F82CC0B8
:10288000C5F80CC0012383F31088914201DB0121BC
:1028900000E0002101F056F9616808446060002002
:1028A00080F31088BDE8F0811C000020100000209B
:1028B0007047704738B504462068016801F001018F
:1028C000C26802F48072002904D01AB1E16B41F0B1
:1028D0000101E1630168C1F34002416901F00101B6
:1028E00022B119B1E26B42F00402E2630268C2F362
:1028F000800222B119B1E26B42F00202E263026887
:10290000C2F3C00222B119B1E16B41F00801E163E9
:102910000168C1F34011C06800F0200019B110B186
:10292000204600F01CFC20680168C1F3C011C0689B
:1029300000F0800019B110B1204600F043FD20687E
:102940000168C1F38011C06800F0400019B110B1F6
:10295000204600F0EFFBE06B002809D020680168FA
:1029600040680090012084F839002046FFF7A1FF5D
:1029700038BD70B50446002C04D094F83900002509
:1029800010B106E0012070BD84F83850204600F0F8
:1029900021F8022084F839002068C16821F4005130
:1029A000C160204600F034FC2068016921F49041A8
:1029B00001612068416921F02A0141612068C168F4
:1029C00041F40051C160E563012084F83900002022
:1029D00070BD000010B586B00068A0F18041B1F56F
:1029E0009C3125D11348816941F48041816180691E
:1029F00000F4804001904FF4007002900220039098
:102A0000032005900C4C02A92046FEF7F7FB211588
:102A1000029100210391049102A92046FEF7EEFBEA
:102A2000002202212520FEF7EDFD2520FEF7DEFD28
:102A300006B010BD001002400008014090F8393087
:102A4000012B03D0122B01D00220704731B32AB3DF
:102A500090F83830012B23D0012380F83830816280
:102A60008285C2850021C16390F83920122A19D0CD
:102A7000222280F8392080F838100168CA6842F4B0
:102A80008072CA6001684A6942F001024A610068C6
:102A9000C16841F02001C1600020704701207047EB
:102AA00002207047322280F83920E4E71E49887DF1
:102AB000002802D14878FF280FD0887D0022012805
:102AC00013D0887D082823D34878EE281CD08A7537
:102AD0000122491C1548FFF7B1BF887D401C88754D
:102AE0000122491C1148FFF7A9BF4878C22807D026
:102AF000FF2800D08A750122491C0C48FFF79EBFB1
:102B0000887D401C8875F6E7012008708A75DFE72C
:102B100048788A7D064BD054887D401C88750122F8
:102B2000491C0248FFF78ABF48020020D00100205C
:102B30004A0200207047000070B584B020481F4949
:102B40000160891581600125C560002646614FF44A
:102B50006021C161466004240461FDF73FFD08B1B6
:102B6000FDF7F3FB019602950720039001A9144895
:102B7000FDF7ECFB08B1FDF7E8FB019502200290A0
:102B800001A90F48FDF7E2FB08B1FDF7DEFB0320CA
:102B90000190029001A90A48FDF7D8FB08B1FDF7A2
:102BA000D4FB0194029401A90548FDF7CFFB00284E
:102BB00001D0FDF7CAFB04B070BD00000024014045
:102BC000DC00002008B50948416941F0010141617C
:102BD000406900F001000090002204210B20FEF764
:102BE00011FDBDE808400B20FEF700BD00100240BB
:102BF0002DE9F04786B06F48816941F0400181615D
:102C0000816901F040010191816941F01001816108
:102C1000816901F010010191816941F00401816134
:102C2000816901F004010191816941F0080181612C
:102C3000816901F008010191816941F02001816100
:102C4000806900F0200001905B4C0022702120463A
:102C5000FEF7DBFB594F00224FF4F8413846FEF7F0
:102C6000D4FBDFF85C81002249F204014046FEF704
:102C7000CCFBDFF85091002241F203114846FEF7E9
:102C8000C4FBDFF844A1002240F6FF015046FEF7E6
:102C9000BCFB012211024046FEF7B7FB01224FF4B4
:102CA0003E714846FEF7B1FB702002900125039566
:102CB0000326059602A92046FEF7A0FA4FF4F84035
:102CC00002900395059602A93846FEF797FA3F2031
:102CD00002903E4803900024049402A93846FEF76F
:102CE0008DFA49F2041002900395059602A9404618
:102CF000FEF784FA41F2FB3002900395059602A993
:102D00004846FEF77BFA680302900394049402A9F4
:102D10004846FEF773FA40F6FF00029003950596C9
:102D200002A95046FEF76AFA4FF4704002900394ED
:102D3000049402A95046FEF761FA4FF470700290B5
:102D40000394049402A93846FEF758FA002211466B
:102D50000620FEF757FC0620FEF748FC002211462D
:102D60000720FEF74FFC0720FEF740FC002211462B
:102D70000820FEF747FC0820FEF738FC0022114629
:102D80000920FEF73FFC0920FEF730FC0022114627
:102D90000A20FEF737FC0A20FEF728FC0022114625
:102DA0001720FEF72FFC1720FEF720FC06B0BDE829
:102DB000F0870000001002400018014000100140A0
:102DC00000080140000C01400014014000003110D7
:102DD00010B50848064901600021416040F6FF71C6
:102DE0008160FEF71FFB002801D0FDF7AEFA10BD91
:102DF000003000400C01002010B586B01448134983
:102E00000160472141600024846040F2E731C160E5
:102E100004614461FFF723FB08B1FDF796FA4FF414
:102E20008050029002A90A48FFF79DFB08B1FDF708
:102E30008CFA0094019469460548FFF7DDFA0028F2
:102E400001D0FDF782FA06B010BD0000002C014051
:102E50001C01002010B586B013484FF0804101607E
:102E6000472141600024846040F2E731C160046181
:102E7000FFF7F5FA08B1FDF768FA4FF480500290B9
:102E800002A90948FFF76FFB08B1FDF75EFA00944D
:102E9000019469460448FFF7AFFA002801D0FDF716
:102EA00054FA06B010BD00005801002010B586B0DD
:102EB000134812490160472141600024846040F2B8
:102EC000E731C1600461FFF7CAFA08B1FDF73DFAC6
:102ED0004FF48050029002A90948FFF744FB08B163
:102EE000FDF733FA0094019469460548FFF784FA28
:102EF000002801D0FDF729FA06B010BD00040040FB
:102F00009401002010B50B48094901604FF4165197
:102F1000416000218160C16001610C2242618161D8
:102F2000C161FFF726FD002801D0FDF70EFA10BDA4
:102F300000380140D001002010B5FEF7EBFABDE8E3
:102F40001040FFF753BA30B597B009200C904FF4FA
:102F500080310D9100250E950120109012900224D1
:102F6000139414914FF4E01015900CA8FEF7E2FDB5
:102F700008B1FDF7EAF90F200790089409954FF47E
:102F800080600A900B90022107A8FEF747FC08B169
:102F9000FDF7DBF900944FF4404002906846FEF7DD
:102FA00077FB08B1FDF7D1F9FEF746FD4FF47A71D2
:102FB000B0FBF1F0FFF706FA0420FFF7F3F9052163
:102FC0000022881FFEF71EFB17B030BD0E480168B7
:102FD00041F00101016041680C4A11404160016803
:102FE00021F4102121F080710160016821F4802119
:102FF0000160416821F4FE0141604FF41F018160CE
:103000000349C00308607047001002400000FFF849
:1030100008ED00E00148FFF72FBB00001C01002075
:103020000148FFF729BB0000580100200148FFF7C5
:1030300023BB000094010020F0B402681C4B1D4D1E
:10304000DFF874C01D4E1E4C98420AD0A04208D032
:10305000B0F1804F05D0A84203D0604501D0B04206
:1030600003D122F070024F683A4398420AD0A0423E
:1030700008D0B0F1804F05D0A84203D0604501D000
:10308000B04205D122F44072D1F80CC04CEA0202E1
:1030900002608A68C2620A688262984201D0A042D5
:1030A00001D10969016301214161F0BC7047000051
:1030B000002C01400004004000080040000C0040CB
:1030C00000340140D0F808C02CF47F4C42EA0322BF
:1030D000114341EA0C0181607047826822F070025E
:1030E000114341F0070181607047036AD0F820C0A6
:1030F0002CF0010CC0F820C0D0F818C02CF0F00C57
:103100004CEA021223F00A031943826101627047FC
:10311000036A23F010030362D0F818C0036A2CF48A
:10312000704C4CEA023223F0A00343EA01118261A1
:103130000162704710B50168CA6822F04002CA6097
:1031400090F83910322906D0012180F83910FFF7A4
:10315000F1FC002010BD222180F83910F7E710B5EE
:1031600090F83910222903D0322901D0022010BD55
:103170008168B1F5805F11D0016919B301684968B0
:1031800001F07F02816A4B1C83620A70C18D491E67
:103190000904090CC1851CD0002010BD816A026998
:1031A0003AB102685268D2B20A80816A491C8162CF
:1031B000ECE702685268C2F308020A80816A891C3F
:1031C0008162E3E701684A68816A4B1C83620A7086
:1031D000DCE70168CA6822F02002CA6090F8391062
:1031E000322910D00168CA6822F48072CA6001686E
:1031F0004A6922F001024A61012180F83910FFF783
:1032000055FC002010BD122180F83910F7E70000AE
:103210002DE9F041044620680169E26821F440513B
:10322000114301612169A068084361690143206875
:10323000C26822F4037222F4A0521143C1602068D4
:103240004169A26921F440711143416120685C4DDC
:103250003226A0F18041B1F59C3158D0FEF7F2FB47
:1032600000EBC00101EB001061688900B0FBF1F7D1
:10327000FEF7E8FB00EBC00101EB0010616889007C
:10328000B0FBF1F0A5FB001040096FF018014843B6
:1032900007EB800006EB0010A5FB0010400900F0D2
:1032A000F007FEF7CFFB00EBC00101EB00106168F7
:1032B0008900B0FBF1F0A5FB0010400907EB0017F7
:1032C000FEF7C0FB00EBC00101EB00106168890054
:1032D000B0FBF1F8FEF7B6FB00EBC00101EB00100C
:1032E00061688900B0FBF1F0A5FB001040096FF0A8
:1032F0001801484308EB800006EB0010A5FB001006
:103300002168C0F3431038448860BDE8F081FEF7BF
:10331000AFFB00EBC00101EB001061688900B0FB5E
:10332000F1F7FEF7A5FB00EBC00101EB00106168AF
:103330008900B0FBF1F0A5FB001040096FF0180107
:10334000484307EB800006EB0010A5FB0010400986
:1033500000F0F007FEF78CFB00EBC00101EB001062
:1033600061688900B0FBF1F0A5FB0010400907EB94
:103370000017FEF77DFB00EBC00101EB0010616858
:103380008900B0FBF1F8FEF773FB00EBC00101EB25
:10339000001061688900B0FBF1F0A5FB0010400946
:1033A0006FF01801484308EB800006EB0010A5FB06
:1033B00000102168C0F3431038448860BDE8F081F4
:1033C0001F85EB5190F83910122903D0322901D012
:1033D000022070478168B1F5805F0CD0016A4A1CF9
:1033E0000262026809785160C18C491E0904090C07
:1033F000C18410D019E0016A02680988C1F308018C
:103400005160016919B1016A491C0162ECE7016A66
:10341000891C0162E8E70168CA6822F08002CA607C
:103420000068C16841F04001C160002070470000A1
:103430000148FFF73FBA0000D001002002E008C8B1
:10344000121F08C1002AFAD170477047002001E01E
:1034500001C1121F002AFBD1704700230146491EFB
:10346000FDD25B1C0A2BF9DB7047000070B50546E6
:103470000C48C5EB051100EB81040022A18DA06A68
:10348000FDF7C3FF08480068002809D10748284411
:103490000079002804D1A06B6FF0180148436060E8
:1034A00070BD00001C00002008000020D00000209B
:1034B000C0EB0011054800EB8100016A828C836A31
:1034C0000362838D83848162828570471C000020A3
:1034D0002DE9F04F87B000210491059106910191EB
:1034E000029103910020DFF888B2012202FA00F372
:1034F000DBF804C043EA0C03CBF80430401CC0B234
:103500000328F3D3DBF8040020F00200CBF804001A
:10351000002874D0DFF85C82DFF85C92DFF85CA2F0
:1035200001AF0024012000FA04F6DBF80400064293
:1035300000F00E81012080F3108891482044C57965
:10354000002080F3108857F82400052880F0FD80C3
:10355000DFE800F00335669ECE005CB900224FF430
:1035600080414846FDF751FF00224FF40051484684
:10357000FDF74BFF022C09D1002220215046FDF718
:1035800044FF002210215046FDF73FFF35B157F8A8
:103590002400401C47F8240000F0DAB8C4EB041003
:1035A00008EB80000122818D806AFDF72EFF012348
:1035B000C8221946204600F011FB00F0C9B854B9E2
:1035C000012291034846FDF720FF00224FF40051ED
:1035D0004846FDF71AFF022C09D10122202150464E
:1035E000FDF713FF002210215046FDF70EFF012DBD
:1035F00006D057F82400401C47F82400A8E0B4E0A7
:10360000C4EB041008EB80000122818C006AFDF7F6
:10361000FCFE0123C8220021204600F0DFFA97E0DB
:1036200054B900224FF480414846FDF7EEFE0122D6
:1036300051034846FDF7E9FE022C09D10022202162
:103640005046FDF7E2FE012210215046FDF7DDFE57
:1036500075B1C4EB041008EB80000122818C006A74
:10366000FDF7D3FE57F82400401C47F824006FE014
:10367000C4EB041008EB80000122818D806AFDF705
:10368000C4FE0123C8221946204600F0A7FA5FE0D5
:103690004CB9012291034846FDF7B7FE01225103C0
:1036A0004846FDF7B2FE022C09D1012220215046E6
:1036B000FDF7ABFE012210215046FDF7A6FEC4EB3C
:1036C000041008EB8000806B60B100EBC00101EBDF
:1036D000001104A840F8241057F82400401C47F8B3
:1036E000240035E0DBF80400B043CBF804002FE001
:1036F0004CB9012291034846FDF787FE0122510390
:103700004846FDF782FE022C09D1012220215046B5
:10371000FDF77BFE012210215046FDF776FE04AD39
:1037200055F82400A0B10123C8220021204600F052
:1037300055FA55F82400401E45F8240040B9DBF83E
:103740000400B043CBF8040002E0002047F8240056
:10375000601CC4B2032CFFF4E5AE0A48FDF793FEEB
:10376000DBF8040000287FF4DCAE07B0BDE8F08F82
:10377000040000201C00002000100140001801403F
:10378000D00000200C01002070B50024094EA6F1E5
:10379000B4053019C07940B9C4EB041005EB8000C2
:1037A0000122818D806AFDF730FE601CC4B2032CBB
:1037B000EFD370BDD000002070B50024094EA6F1F3
:1037C000B4053019007940B9C4EB041005EB800052
:1037D0000122818C006AFDF718FE601CC4B2032C24
:1037E000EFD370BDD0000020FDF79CFEFFF7ABFBD0
:1037F000FFF7FEF9FFF7E6F9FFF79EF9FFF7FCFA8E
:10380000FFF728FBFFF752FBFFF77CFBFFF7E0FA1F
:10381000C248FDF768FEC24CDFF808934FF000087D
:103820004FF0010AB421C048FCF7A5FC84F80080E1
:1038300084F8018084F8028084F80380BB4EC6F8C7
:10384000088086F8008000F02FFA00F0A9FA00F056
:103850001BFA00F013FB00F041FB0125B44EAF480A
:10386000FDF711FE4FF400514846FDF7C3FD002857
:103870003BD00021012080F3108860780844A070BC
:10388000002080F31088012080F310883778002012
:1038900080F31088012080F31088FFF775FF002067
:1038A00080F31088012080F31088FFF785FF002047
:1038B00080F31088002F00F0E980012080F3108849
:1038C00086F8008088F31088984FB868401C9949A2
:1038D00081FB00218A10A2EBE171494201EB8101D9
:1038E00000EB4100B86010B10AE00121C2E70221FB
:1038F0004846FDF786FD4FF480514846FDF781FDAF
:10390000387808B984F80280A07870B3012080F379
:103910001088F079E070002080F31088012080F397
:103920001088B07900EBC00101EB00107E4988607F
:10393000002080F31088012080F31088086F00EBCE
:10394000C00202EB00104864002080F310880120C0
:1039500080F31088307900EBC00202EB0010C1F850
:103960008000002080F3108839E0FFE7012080F319
:1039700010886D49486B00EBC00202EB00108860B4
:10398000002080F31088012080F31088086F00EB7E
:10399000C00202EB00104864002080F31088012070
:1039A00080F31088D1F8AC0000EBC00202EB0010ED
:1039B000C1F88000002080F31088012080F3108877
:1039C000F079E070002080F31088012080F31088E7
:1039D000E07800F04000E070002080F3108884F868
:1039E0000080DFF854B14FF480515846FDF702FDD6
:1039F00010B92078401C20704FF400515846FDF754
:103A0000F9FC10B92078801C20704FF48041584692
:103A1000FDF7F0FC10B92078001D20704FF4004134
:103A20005846FDF7E7FC10B9207808302070DFF821
:103A30000CB140215846FDF7DDFC10B920780A3062
:103A4000207080215846FDF7D5FC10B9207814303D
:103A500020704FF480715846FDF7CCFC10B92078E7
:103A6000283020704FF400715846FDF7C3FC10B9A0
:103A7000207850302070707AAA283FD0707AE0B356
:103A8000707A2178884201D187F800A0E0784FF45D
:103A900000712AEA90024846FDF7B7FCE0788021E1
:103AA0002AEAD0024846FDF7B0FCE07840212AEA35
:103AB00010124846FDF7A9FCE07820212AEA5012AE
:103AC0004846FDF7A2FCE07810212AEA9012484609
:103AD000FDF79BFCE07808212AEAD0124846FDF762
:103AE00094FCE07810F0010F0ED000F0D7F800F051
:103AF000E3F900F00BFA00250BE002E087F800A0E4
:103B0000C4E787F80080C1E70122711C0C48FEF76A
:103B100095FF002D7FF4A3AE84E600000C01002089
:103B2000D0000020000C01401C00002004000020F8
:103B300048020020676666660014014000100140DC
:103B4000D00100202DE9F04105460E462148C5EB85
:103B5000051100EB8104277B3246DFF87C8018F8E2
:103B60000500002807D00026012823D008F80560AA
:103B70000020BDE8F08194F83000012801D156B151
:103B80000022A18A2069FDF740FCB74205D02673C8
:103B90000020BDE8F0810122F3E7A18B0022A0699B
:103BA000FDF733FC18F80500401C08F8050000205C
:103BB000BDE8F081A18B0122A069FDF726FC08F881
:103BC00005601FB14FF0FF30BDE8F0810120BDE876
:103BD000F08100001C0000201000002070B5164687
:103BE000C0EB0012154800EB820494F83000012865
:103BF00001D101B30021A08A0A4623690146184673
:103C0000FDF703FC3046FFF728FC0025A18B0022BE
:103C1000A069FDF7FAFB3046FFF71FFCA18B0122DC
:103C2000A069FDF7F2FB3046FFF717FC681CC5B230
:103C3000032DEBD370BD0121DDE700001C00002047
:103C400070B505460D48C5EB051100EB8104002257
:103C5000A18C206AFDF7D9FB0948006800280BD128
:103C600008482844C079002806D1A06BFF3000EB3B
:103C7000C00101EB0010606070BD00001C0000205E
:103C800008000020D0000020142202490248FCF75E
:103C900099BD000070020020DC0000200148FCF704
:103CA00029BE0000DC00002070B5364C0122510214
:103CB0002046FDF7AAFB012280212046FDF7A5FB47
:103CC000012240212046FDF7A0FB012220212046B1
:103CD000FDF79BFB012210212046FDF796FB0122F8
:103CE00008212046FDF791FB012240212648FDF7DF
:103CF0008CFB264C012211032046FDF786FB244D48
:103D00000122D1022846FDF780FB01221102204644
:103D1000FDF77BFB012240212846FDF776FB0122BF
:103D200080212846FDF771FB012210212846FDF76E
:103D30006CFB012220212846FDF767FB01220421AC
:103D40002846FDF762FB012208212846FDF75DFBAE
:103D5000012291020F48FDF758FB0122D1032046B2
:103D6000FDF753FB012202212846FDF74EFB2821D7
:103D70000948FCF700FABDE87040142206490748DC
:103D8000FCF720BD000C0140001801400008014074
:103D9000001401400010014070020020DC000020EF
:103DA00070B5324C304820610122A2823049A161B5
:103DB0000423A38320624021A184A0628021A185E5
:103DC000DFF8B0C0C4F84CC08114A4F850102A49E0
:103DD0006165A4F85820E0651025A4F8605060667D
:103DE0002025A4F86850C4F888C04FF4006CA4F8EB
:103DF0008CC0C4F890108115A4F89410C4F89800F1
:103E0000A4F89C30C4F8A0000820A4F8A400002066
:103E100084F8300084F86C0084F8A8207F21616366
:103E20002067C4F8AC10A0636067C4F8B000002538
:103E3000C5EB051004F8205004EB8001486B00EB43
:103E4000C00202EB0010886091F83000012802D116
:103E50002846FFF72DFB681CC5B2032DE8D3BDE84B
:103E60007040FFF735BB0000001401401C0000202B
:103E70000008014000100140000C014010B50B4843
:103E800040F2E7340168CC62C460FEF74BFB08489F
:103E90000168CC62C460FEF745FB06480168CC624D
:103EA000C460BDE81040FEF73DBB00001C010020CF
:103EB000580100209401002010B50548FEF73EFB94
:103EC0000448FEF73BFBBDE810400348FEF736BB55
:103ED0001C01002058010020940100200948002105
:103EE000016041608160C160016181828175064924
:103EF0000968CA6842F40052CA600122411C0248A3
:103F0000FEF79CBD48020020D00100200348006855
:103F1000C16821F40051C16070470000D001002049
:103F20000000000000000000010203040607080969
:103F30000000000001020304583F000800000020B8
:103F40001C0000003C340008743F00081C000020E6
:103F50007C0600004C340008000000000000000057
:103F6000000000000000000000000000E703000067
:043F700000A24A045D
:0400000508000131BD
:00000001FF
