:020000040800F2
:10000000A0060020450100084D0100084F0100082E
:1000100051010008530100085501000800000000CC
:100020000000000000000000000000005701000870
:1000300059010008000000005B010008B130000811
:100040005F0100085F0100085F0100085F01000810
:100050005F0100085F010008270300082D03000866
:1000600033030008390300083F030008F9020008C1
:100070005F0100085F0100085F0100085F010008E0
:100080005F0100085F0100085F0100085F010008D0
:100090005F0100085F0100085F01000845030008D8
:1000A0005F010008793100085F0100085F01000866
:1000B00085310008913100085F0100085F010008E8
:1000C0005F0100085F0100085F0100085F01000890
:1000D0005F010008093500085F0100085F010008A2
:1000E0005F0100085F0100085F0100085F01000870
:1000F0005F0100085F0100085F0100085F01000860
:100100005F0100085F0100085F0100085F0100084F
:100110005F0100085F0100085F0100085F0100083F
:100120005F0100085F0100085F0100085F0100082F
:10013000DFF80CD000F02AF800480047C938000862
:10014000A00600200648804706480047FEE7FEE775
:10015000FEE7FEE7FEE7FEE7FEE7FEE7FEE7FEE777
:100160003131000831010008D2B201E000F8012B62
:10017000491EFBD270470022F6E710B513460A4627
:1001800004461946FFF7F0FF204610BD064C074D08
:1001900006E0E06840F0010394E807009847103457
:1001A000AC42F6D3FFF7C8FFD83F0008F83F00087D
:1001B00070B504462068816811F0010F1FD0816876
:1001C00021F00101816001F021F905462068806875
:1001D00010F0010F13D001F019F9401B022809D9C2
:1001E000A06A40F01000A062E06A40F00100E06206
:1001F000012070BD2068806810F0010FEBD1002055
:1002000070BD10B50246506A816A11F0500F05D0DA
:10021000006A016BBDE8104010460847816A41F44E
:1002200000718162016889684FF4602232EA01013D
:100230000DD1C16859B9816A21F480718162816AE6
:1002400011F4805F03D1816A41F00101816200F005
:1002500049F910BD10B5406A816A41F040018162E0
:10026000C16A41F00401C16200F0B7F910BD10B5D8
:10027000406A00F0B1F910BDF8B5044600260096BA
:100280002068816811F0010F2FD1816841F00101D0
:100290008160174817490068B0FBF1F000900098A2
:1002A00028B10098401E009000980028F9D101F074
:1002B000ADF805462068806810F0010F15D101F0F7
:1002C000A5F8401B02280BD9A06A40F01000A062DC
:1002D000E06A40F00100E06284F824600120F8BD8B
:1002E0002068806810F0010FE9D00020F8BD000000
:1002F0002000002040420F00014800F04BBB0000EE
:1003000018020020D0F800C0CCF804304368102B4D
:1003100004D0036899600068C260704703689A60FF
:100320000068C1607047012000F056BF022000F055
:1003300053BF042000F050BF082000F04DBF102034
:1003400000F04ABF202000F047BF00002DE9F8016F
:100350004FF0000C0024009490F82420012A20D0B3
:10036000012280F824204A681F264FF47875072A56
:100370001BD203685F6B95FAA5F8521EB8FA88F88D
:1003800002FB08F806FA08F627EA060695FAA5F52C
:10039000B5FA85F50F686A4307FA02F232435A63E9
:1003A00034E0BDE8F801022070470D2A17D2036837
:1003B0001F6B95FAA5F8D21FB8FA88F802FB08F867
:1003C00006FA08F627EA060695FAA5F5B5FA85F5C0
:1003D0000F686A4307FA02F232431A6316E00368B1
:1003E000DF6A95FAA5F80D3AB8FA88F802FB08F822
:1003F00006FA08F627EA060695FAA5F5B5FA85F590
:100400000F686A4307FA02F23243DA620A68382553
:1004100007260A2A17D30368DF6895FAA5F80A3A6F
:10042000B8FA88F802FB08F806FA08F627EA060682
:1004300095FAA5F5B5FA85F58F686A4307FA02F2D1
:100440003243DA6015E003681F6995FAA5F8B8FA37
:1004500088F802FB08F806FA08F627EA060695FA75
:10046000A5F5B5FA85F58F686A4307FA02F23243BB
:100470001A610A68102A01D0112A0BD10268A2F170
:100480008043B3F592330BD0816A41F02001816241
:100490004FF0010C80F82440BDE8F8016046704739
:1004A000936813F4000FF5D1936843F4000393604D
:1004B00009681029EED10949094A0968B1FBF2F12E
:1004C00001EB81014900009100990029E2D00099D7
:1004D000491E009100990029F9D1DBE72000002096
:1004E00040420F002DE9F04100240020354A364BF0
:1004F0004FF47A7CA2F1100502EB400132F8106053
:100500000F89B1F818803E440F8A098C47443E4455
:100510003144A3FB0161C1F38F01B1F57A7F02D2AF
:1005200045F820C005E055F8201011B1491E45F8E6
:100530002010401C0428DFDB002055F8201009B1F2
:10054000611C8CB2401C0428F7DB204E296831B1B5
:1005500000224FF48041304600F051FF04E00122B8
:100560009103304600F04BFF696831B100224FF42F
:100570000051304600F043FF04E0012251033046B1
:1005800000F03DFF124EA96829B10022202130461B
:1005900000F035FF04E001222021304600F02FFF5B
:1005A000E96829B100221021304600F028FF04E05C
:1005B00001221021304600F022FF06484470BDE8B9
:1005C000F081000078020020CDCCCCCC001001409E
:1005D00000180140D8000020704770472DE9F04115
:1005E00004460025002C03D0A06A002618B108E0BC
:1005F0000120BDE8F081E66284F82460204600F026
:10060000A3F82046FFF7D4FD0146A06A00F01002CF
:1006100052EA010007D0A06A40F01000A062012158
:100620000846BDE8F081A06A20F4885040F002003E
:10063000A0622268A2F18040B0F59E3017D0E06938
:10064000022393FAA3F3D4F80CC0B3FA83F30CFAA1
:1006500003F3034360680343A068B0F5807F0DD0C7
:1006600001280BD000206769012F0AD018E0E0694B
:10067000B0F5402FE4D14FF40020E1E74FF4807053
:10068000F1E7BCF1000F1FD0D4F828C04CF0200CCB
:10069000C4F828C0D4F82CC04CF0010CC4F82CC00D
:1006A000D2F804C02CF4694C4CEA00005060206879
:1006B0008268DFF88CC002EA0C021A438260A068EC
:1006C000B0F5807F11D01AE0D4F818C04FF460471D
:1006D00097FAA7F7ACF1010CB7FA87F70CFA07FC09
:1006E0004CEA000040F40060DAE720694FF4700241
:1006F00092FAA2F2401EB2FA82F200FA02F52068E3
:10070000C26A22F470022A43C262206880680D4ADD
:100710001040984207D1E662A06A20F0020040F043
:100720000100A0627CE7A06A20F0020040F0100007
:10073000A062E06A40F00100E062012170E7000081
:10074000FDF7E1FFFE0E1FFF30B587B005462868B4
:10075000A0F18041B1F5923124D11348816941F46F
:1007600000718161806900F4007001901B2002908B
:100770000320039002A90D4800F03AFD0D4C0C48EF
:10078000206000206060A0608021E160490021615C
:10079000890061612021A161E061204600F032FC06
:1007A0002C62656207B030BD0010024000080140B5
:1007B00008000240180200202DE9F0470446884650
:1007C00091462068434F444EA0F1804ABAF5923AD0
:1007D00001D0B84207D1306810F4702F03D0012542
:1007E0002846BDE8F08794F8240001280BD00120AA
:1007F00084F824002046FFF73FFD054600212DB177
:1008000084F82410ECE70220BDE8F087A06A20F00D
:10081000010020F4606040F48070A0622068B8425B
:100820001AD1326812F4702F16D0A26A42F48012E4
:10083000A262306810F4806F05D0A06A20F40050E6
:1008400040F48050A062A06A10F4805F13D0E06A88
:1008500020F00600E0620FE0A26A22F48012A26299
:10086000406810F4806FEED0A06A20F4005040F48D
:100870008050A062E7E7E16284F82410216A1748FB
:100880008862216A1648C862216A1648086321688E
:100890006FF0020008602068816841F48071816017
:1008A00020684B4600F14C014246206A00F0DBFB19
:1008B000206881684FF4602232EA010104D0816827
:1008C00041F4801181608BE7816841F4A00181606F
:1008D00086E70000002801400424014003020008CC
:1008E0006F0200085502000810B5044694F8240071
:1008F000012807D0012084F824002046FFF758FC87
:1009000010B10EE0022010BD2068816821F48071D2
:100910008160206A00F010F838B1A16A41F040010E
:10092000A162002184F8241010BDA16A21F488512D
:1009300041F00101A162F4E770B504462068016846
:1009400021F00101016000F061FD054620680068AA
:100950004FF0000610F0010F14D000F057FD401BBF
:10096000B0F57A7F09D9606B40F020006063032006
:1009700084F8210084F8206070BD2068006810F0C1
:10098000010FEAD1012084F8210084F820600020C2
:1009900070BD00002DE9F05F0446F7492068F74D6F
:1009A000F74EF84FDFF8E083DFF8E093DFF8E0A3DD
:1009B000DFF8E0B3884235D9F7490A68A84201D187
:1009C00008212DE0B04201D1802129E0B84202D1B6
:1009D0004FF4006124E0404502D14FF400411FE094
:1009E000484502D14FF400211AE0504502D14FF49E
:1009F000000115E0584501D1082111E0E74988427E
:100A000001D180210CE0E649884201D1C11407E000
:100A1000E449884202D14FF4004101E04FF4002143
:100A2000114039E0E0490A68A84201D1082132E0CA
:100A3000B04201D180212EE0B84202D14FF40061D2
:100A400029E0404502D14FF4004124E0484502D15D
:100A50004FF400211FE0504502D14FF400011AE08D
:100A6000C549884201D1010515E0584501D1082149
:100A700011E0CA49884201D180210CE0C84988426E
:100A800001D1C11407E0C749884202D14FF40041A7
:100A900001E04FF40021114081B3016811F0080F0B
:100AA0002CD0016821F008010160B3492068884218
:100AB00035D9A84201D108202EE0B04201D18020D2
:100AC0002AE0B84202D14FF4006025E0404502D14F
:100AD0004FF4004020E0484502D14FF400201BE0D5
:100AE000504502D14FF4000016E0584501D10820CE
:100AF00012E0AA49884202D180200DE056E0A849C0
:100B0000884201D1C01407E0A649884202D14FF4BF
:100B1000004001E04FF40020A449086038E0A842FA
:100B200001D1082032E0B04201D180202EE0B8424D
:100B300002D14FF4006029E0404502D14FF400405B
:100B400024E0484502D14FF400201FE0504502D177
:100B50004FF400001AE0884202D14FF0006015E027
:100B6000584501D1082011E08C49884201D18020EC
:100B70000CE08B49884201D1C01407E089498842C2
:100B800002D14FF4004001E04FF400208649486054
:100B9000606B40F001006063042084F821000020B5
:100BA00084F82000216B09B12046884772492068EB
:100BB000884235D978490A68A84201D104212DE03C
:100BC000B04201D1402129E0B84202D14FF4806106
:100BD00024E0404502D14FF480411FE0484502D156
:100BE0004FF480211AE0504502D14FF4800115E006
:100BF000584501D1042111E06849884201D14021C2
:100C00000CE06749884201D1011507E06549884237
:100C100002D14FF4804101E04FF48021114039E0CE
:100C200061490A68A84201D1042132E0B04201D1F1
:100C300040212EE0B84202D14FF4806129E04045C6
:100C400002D14FF4804124E0484502D14FF4802185
:100C50001FE0504502D14FF480011AE04649884216
:100C600001D1C10415E0584501D1042111E04B49DF
:100C7000884201D140210CE04949884201D1011547
:100C800007E04849884202D14FF4804101E04FF427
:100C90008021114079B3016811F0040F2BD0016855
:100CA00011F0200F03D1016821F0040101603249E5
:100CB0002068884235D9A84201D104202EE0B042F4
:100CC00001D140202AE0B84202D14FF4806025E0F3
:100CD000404502D14FF4804020E0484502D14FF416
:100CE00080201BE0504502D14FF4800016E05845AB
:100CF00002D1042012E071E02849884201D140204D
:100D00000CE02749884201D1001507E025498842B7
:100D100002D14FF4804001E04FF480202349086065
:100D200055E0A84201D104204FE0B04201D140205B
:100D30004BE0B84202D14FF4806046E0404502D11A
:100D40004FF4804041E0484502D14FF480203CE020
:100D5000504502D14FF4800037E0884202D14FF075
:100D6000806032E0584501D104202EE00B498842D2
:100D70001ED1402029E0000080000240080002400F
:100D80001C00024030000240440002405800024073
:100D90006C00024008040240000402401C040240AF
:100DA00030040240440402400000024004040240B7
:100DB0008D49884201D1001507E08C49884202D153
:100DC0004FF4804001E04FF48020894948601120B1
:100DD00084F82100E16A09B120468847854A2068E5
:100DE000904235D984490B68A84201D102212DE0F7
:100DF000B04201D1202129E0B84202D14FF4007164
:100E000024E0404502D14FF400511FE0484502D193
:100E10004FF400311AE0504502D14FF4001115E0B3
:100E2000584501D1022111E07449884201D12021A5
:100E30000CE06D49884201D1411507E06B498842B9
:100E400002D14FF4005101E04FF40031194039E074
:100E500067490B68A84201D1022132E0B04201D1BA
:100E600020212EE0B84202D14FF4007129E0404524
:100E700002D14FF4005124E0484502D14FF4003133
:100E80001FE0504502D14FF400111AE0904202D108
:100E90004FF0007115E0584501D1022111E057498A
:100EA000884201D120210CE04F49884201D14115EF
:100EB00007E04E49884202D14FF4005101E04FF45F
:100EC00000311940002972D0016811F0020F6ED074
:100ED000016811F0200F03D1016821F002010160C7
:100EE0002068904234D9A84201D102202DE0B042BE
:100EF00001D1202029E0B84202D14FF4007024E053
:100F0000404502D14FF400501FE0484502D14FF454
:100F100000301AE0504502D14FF4001015E058455A
:100F200001D1022011E03549884201D120200CE096
:100F30002D49884201D1401507E02C49884202D151
:100F40004FF4005001E04FF400302D49086039E0C3
:100F5000A84201D1022033E0B04201D120202FE08D
:100F6000B84202D14FF400702AE0404502D14FF45C
:100F7000005025E0484502D14FF4003020E05045B4
:100F800002D14FF400101BE0904202D14FF00070EC
:100F900016E0584501D1022012E01849884201D1DB
:100FA00020200DE01049884202D1401508E018E0E9
:100FB0000E49884202D14FF4005001E04FF4003056
:100FC0000B494860606B6063012084F821000020B9
:100FD00084F82000A16A002903D02046BDE8F05F14
:100FE0000847BDE8F09F000030040240440402407E
:100FF0000000024080000240000402401C04024045
:101000000404024030B4002804D090F821100023DA
:1010100019B104E030BC0120704780F82030022173
:1010200080F8211001680A686FF30D12D0F804C02F
:10103000846805694CEA040CC4682C434CEA040C2F
:1010400044694CEA040C84694CEA040CC4694CEA17
:10105000040C4CEA02020A604363012180F821106B
:1010600030BC0020704710B5044694F820000128D9
:1010700025D0012084F82000022084F82100206877
:10108000D0F800C02CF0010CC0F800C02046FFF7DB
:1010900039F92068016841F00201016020680168A7
:1010A00041F0040101602068016841F0080101601D
:1010B0002068016841F001010160002010BD02209C
:1010C00010BD31B500F0A2F9044600F09FF9009977
:1010D000001B8842F9D338BD70B5014600260125B2
:1010E0003B483C4C082946D00DDC012918D0022988
:1010F00027D0042906D100F077F998B36079002849
:1011000000D0667170BD102947D02029FAD100F0B7
:101110006BF9002853D0607A0028F3D0667270BD56
:10112000012100F061F920B120790028F7D0267163
:1011300070BD20790028FBD12571BDE8704002F018
:1011400003BE022100F050F920B1E0790028EFD071
:10115000E67170BDE0790028FBD1E571BDE8704013
:1011600002F0F0B960790028F3D16571BDE87040F4
:10117000012002F0E9BD082100F036F920B1207A03
:101180000028E6D0267270BD207A0028FBD1257297
:10119000BDE87040012002F0D5B9102100F024F91B
:1011A00020B1A0790028EED0A67170BDA0790028EA
:1011B000FBD1A571BDE87040022002F0C5BD607A88
:1011C0000028F2D16572BDE87040022002F0BAB981
:1011D00000100140D800002010B504490A680242FE
:1011E00002D00860FFF778FF10BD00001404014032
:1011F0002DE9F84F00239C46DFF8E0810F2708F126
:10120000040909F1040A0AF1040B012202FA0CF69E
:101210000A683240B2427DD1DFF8C4E14C68A4EBE9
:101220000E0574452BD00DDC032C34D005DC34B313
:10123000012C19D0022C2FD11BE0112C16D0122C0E
:101240002AD119E0B5F5881F19D006DCB5F5803F25
:1012500015D0B5F5801F1FD111E0B5F5001F0ED0D8
:10126000B5F5041F18D10AE0CB6815E0CB681B1D4B
:1012700012E0CB6808330FE0CB680C330CE08B68CE
:1012800023B1012B04D00823466105E0042303E0C9
:101290000823066100E00023B2F5807F01D20546F5
:1012A00001E000F1040502D24FEA8C0403E0ACF146
:1012B00008044FEA84042E6807FA04FE26EA0E06A4
:1012C00003FA04F446EA04042C604C6814F0805FCE
:1012D0007CD0444CA56945F00105A561A46904F0E2
:1012E000010400942CF0030404F1804404F58034DC
:1012F000A6684FEA8C754FEA157507FA05FE26EACF
:101300000E0EA0F18046B6F5843620D0B6F5806684
:101310001FD000E05AE0B6F580661CD0B6F58066B6
:101320001BD0B6F580661AD0B6F5806619D00626B1
:1013300006FA05F545EA0E05A5604C6814F4803FF1
:1013400011D0D8F800401443C8F8004010E000263F
:10135000EEE70126ECE70226EAE70326E8E70426A3
:10136000E6E70526E4E7D8F800409443C8F80040D3
:101370004C6814F4003F05D0D9F800401443C9F874
:10138000004004E0D9F800409443C9F800404C689C
:1013900014F4801F05D0DAF800401443CAF8004066
:1013A00004E0DAF800409443CAF800404C6814F4B2
:1013B000001F05D0DBF800402243CBF8002005E0F9
:1013C000DBF8004024EA0202CBF800200CF1010C0B
:1013D000BCF1100FFFF419AFBDE8F88F0004014015
:1013E00000001110001002408068084201D0012066
:1013F000704700207047C2685140C1607047002AA2
:1014000001D001617047090401617047014800681B
:10141000704700000000002010B50446002C0AD0E0
:101420002068C16811F0010F07D0C06810F0020FEA
:1014300003D0012010BD012010BD607B20B9002029
:101440002073204600F018F802206073216845F2EE
:101450005550086020684168626821F00701114317
:10146000416020688168A2686FF30B0111438160BD
:1014700001206073002010BD70472DE9F041044643
:10148000207B012818D00126267302206073FFF705
:10149000BDFF05462068C0684FF0000710F0020F3E
:1014A00012D0FFF7B3FF401BB0F57A7F07D90320B6
:1014B00060732773BDE8F0810220BDE8F0812068E9
:1014C000C06810F0020FECD121684AF6AA2008602B
:1014D000667327730020BDE8F081017B012910D0DD
:1014E000012101730222427303684CF6CC421A6058
:1014F00003684AF6AA221A60417300210173002092
:10150000704702207047000002480168491C0160D2
:10151000704700000000002010B50748016841F046
:1015200010010160032000F091F8052000F006F89A
:1015300000F016F8002010BD0020024010B504464F
:1015400000F0EAFA4FF47A72B0FBF2F001F054F8CE
:1015500000222146501E00F045F8002010BD00007A
:1015600008B51848816941F001018161806900F086
:1015700001000090032000F069F8002211466FF08E
:101580000B0000F02FF8002211466FF00A0000F067
:1015900029F8002211466FF0090000F023F800221C
:1015A0001146101F00F01EF805210022881F00F0D0
:1015B00019F80548416821F0E06141F0007141608F
:1015C00008BD0000001002400000014000F01F01B3
:1015D000012202FA01F14009800000F1E020C0F888
:1015E0000011704710B4184B1B68C3F30223C3F1FA
:1015F000070CBCF1040F01D94FF0040C1C1D072C83
:1016000001D2002300E0DB1E012404FA0CFCACF143
:10161000010C0CEA0101994004FA03F35B1E1A4025
:101620001143002808DA00F00F0000F1E020090162
:1016300080F8141D10BC704700F1E020090180F80B
:10164000001410BC704700000CED00E000F0070033
:10165000064A11684FF6FF03194041EA002040F0A6
:10166000FD7040F080601060704700000CED00E0FD
:101670002DE9F84304465E4E207810F0010F78D033
:10168000F06940F08050F061F06900F08050009007
:10169000584D286840F480702860FFF7B7FE074671
:1016A000286810F4807F0BD1FFF7B0FEC01B6428C0
:1016B00002D90320BDE8F883286810F4807FF3D0B6
:1016C000306AA18800F4407001F44071884278D0FB
:1016D000306A20F440704FF4803191FAA1F2B2FAEE
:1016E00082F2920002F1844202F584024FF0010876
:1016F000C2F8008491FAA1F10022B1FA81F18900C7
:1017000001F1844101F58401C1F80024306210F038
:10171000020F50D0FFF77AFE0746022595FAA5F092
:10172000B0FA80F040F04000B8EB501F01D13068B3
:101730000BE095FAA5F0B0FA80F040F04000B5EB70
:10174000501F01D1306A00E0706A95FAA5F1B1FA34
:1017500081F101F01F0108FA01F108422BD141F299
:101760008839FFF753FEC01B484503D90320BDE865
:10177000F88326E095FAA5F0B0FA80F040F040003A
:10178000B8EB501F01D131680BE095FAA5F0B0FA23
:1017900080F040F04000B5EB501F01D1316A00E00D
:1017A000716A95FAA5F0B0FA80F000F01F0008FA0F
:1017B00000F00142D5D0306A616820F440700843DF
:1017C0003062207810F0020F05D07068A16820F414
:1017D000404008437060207810F0100F05D070680A
:1017E000616920F48000084370600020BDE8F88340
:1017F00000100240007000402DE9F04704460F46FB
:10180000DFF80C93D9F80000012200F00700530420
:101810000226C04D4FF0007C41F28838B8427DD29C
:10182000D9F8000020F007003843C9F80000D9F8C3
:10183000000000F00700B84202D00120BDE8F087A8
:10184000207810F0020F05D06868A16820F0F00041
:1018500008436860207810F0010F00F03D81606857
:1018600001280BD0022820D096FAA6F1B1FA81F116
:1018700041F0200149092FD029682EE093FAA3F105
:10188000B1FA81F141F02001490901D0296800E055
:10189000696A93FAA3F3B3FA83F303F01F039A4040
:1018A000114226D10120BDE8F0879CFAACF1B1FAD3
:1018B00081F141F02001490901D0296800E0696AFD
:1018C0009CFAACF3B3FA83F303F01F039A4011427E
:1018D0000FD10120BDE8F087696A96FAA6F3B3FA42
:1018E00083F303F01F039A40114202D10120BDE8A7
:1018F000F087696821F0030108436860FFF786FDFF
:101900000646606801280FD0022820D0686810F0D1
:101910000C0F72D0FFF77AFD801B00E02FE04045EE
:1019200028D90320BDE8F087686800F00C0004287F
:1019300063D0FFF76BFD801B404502D90320BDE853
:10194000F087686800F00C000428F2D1C4E06868F1
:1019500000F00C00082850D0FFF758FD801B4045D0
:1019600002D90320BDE8F087686800F00C00082861
:10197000F2D1B1E0686810F00C0FCBD1ACE0207868
:1019800010F0020F05D06868A16820F0F00008434D
:101990006860207810F0010F70D0606801280BD0CB
:1019A000022820D096FAA6F1B1FA81F141F0200187
:1019B000490930D029682FE093FAA3F1B1FA81F1F7
:1019C00041F02001490901D0296800E0696A93FAD1
:1019D000A3F3B3FA83F303F01F039A40114227D114
:1019E0000120BDE8F0879CFAACF1B1FA81F141F039
:1019F0002001490902D0296801E06DE0696A9CFA7A
:101A0000ACF3B3FA83F303F01F039A4011420FD1F2
:101A10000120BDE8F087696A96FAA6F3B3FA83F36A
:101A200003F01F039A40114202D10120BDE8F08764
:101A3000696821F0030108436860FFF7E7FC064688
:101A4000606801280DD002281FD0686810F00C0FC4
:101A500032D0FFF7DBFC801B404529D90320BDE8CD
:101A6000F087686800F00C00042825D0FFF7CEFC52
:101A7000801B404503D90320BDE8F0871CE068685F
:101A800000F00C000428F1D116E0686800F00C00AA
:101A9000082811D0FFF7BAFC801B404502D903206B
:101AA000BDE8F087686800F00C000828F2D103E078
:101AB000686810F00C0FCCD1D9F8000020F00700B6
:101AC0003843C9F80000D9F8000000F00700B84218
:101AD00002D00120BDE8F087207810F0040F05D077
:101AE0006868E16820F4E06008436860207810F0DE
:101AF000080F06D06868216920F4605040EAC100F0
:101B000068600520FFF71AFD0020BDE8F08700009F
:101B1000002002400010024010B500F043F80849D0
:101B20004968F02292FAA2F201F0F001B2FA82F2D0
:101B3000D140044A515CC8400349086010BD000010
:101B400000100240C83F00082000002010B5FFF739
:101B5000E3FF074949684FF4E06292FAA2F201F408
:101B6000E061B2FA82F2D140024A515CC84010BD35
:101B700000100240C83F000810B5FFF7CDFF07492D
:101B800049684FF4605292FAA2F201F46051B2FA3D
:101B900082F2D140024A515CC84010BD00100240A0
:101BA000C83F000885B01DA0036882684168C0680E
:101BB00001930392029104901CA0006800901C4BBA
:101BC00059681C4801F00C02042A21D0082A1FD1B0
:101BD0004FF4701C9CFAACFC01F47012BCFA8CFC43
:101BE00022FA0CF20DF1040C1CF8022011F4803FD3
:101BF00010D059684FF4003393FAA3F301F4003185
:101C0000B3FA83F3D9401DF80110B0FBF1F0504353
:101C100005B07047084805B05043704702030405FB
:101C2000060708090A0B0C0D0E0F10100102000028
:101C30000010024000127A0000093D002DE9F84F23
:101C40000446FC4D207841F2883710F0010F4FF028
:101C5000010600F0018168684FF4003800F00C00C4
:101C6000042808D0686800F00C0008281ED16868B5
:101C700010F4803F1AD098FAA8F0B0FA80F040F043
:101C80002000400901D0286800E0686A98FAA8F1AD
:101C9000B1FA81F101F01F0106FA01F1084270D09A
:101CA000606800286DD10120BDE8F88F286820F415
:101CB00080302860286820F480202860FFF7A6FB89
:101CC000814698FAA8F0B0FA80F040F02000400970
:101CD00001D0286800E0686A98FAA8F1B1FA81F1A9
:101CE00001F01F0106FA01F108421DD0FFF78EFB3B
:101CF000A0EB0900B84202D90320BDE8F88F98FA9A
:101D0000A8F0B0FA80F040F02000400901D0286827
:101D100000E0686A98FAA8F1B1FA81F101F01F01B8
:101D200006FA01F10842E1D16068B0F5803F1AD0AF
:101D3000F0B1B0F5A02F25D0286820F480302860BD
:101D4000286820F4802028606068C0B3FFF75EFB3D
:101D5000814698FAA8F0B0FA80F040F020004009DF
:101D600019D0286818E0286840F480302860EBE734
:101D7000286820F480302860286820F480202860BB
:101D8000E2E769E0286840F480202860286840F491
:101D900080302860D8E7686A98FAA8F1B1FA81F132
:101DA00001F01F0106FA01F1084255D1FFF72EFBA1
:101DB000A0EB0900B84203D90320BDE8F88F15E075
:101DC00098FAA8F0B0FA80F040F02000400901D065
:101DD000286800E0686A98FAA8F1B1FA81F101F088
:101DE0001F0106FA01F10842E0D035E0FFF70EFBD3
:101DF000814698FAA8F0B0FA80F040F0200040093F
:101E000001D0286800E0686A98FAA8F1B1FA81F177
:101E100001F01F0106FA01F108421DD0FFF7F6FAA2
:101E2000A0EB0900B84202D90320BDE8F88F98FA68
:101E3000A8F0B0FA80F040F02000400901D02868F6
:101E400000E0686A98FAA8F1B1FA81F101F01F0187
:101E500006FA01F10842E1D120784FF0000910F0B4
:101E6000020F4FF002084ED068684FF0F80B10F0E8
:101E70000C0F21D0686800F00C00082803D16868B6
:101E800010F4803F18D0206988B396FAA6F0B0FA13
:101E900080F0800000F1844000F584000660FFF7C8
:101EA000B5FA824698FAA8F0B0FA80F040F0200027
:101EB000400929D0286828E098FAA8F0B0FA80F004
:101EC00040F02000400901D0286800E0686A98FAD4
:101ED000A8F1B1FA81F101F01F0106FA01F10842FF
:101EE00006D02069012803D00120BDE8F88F40E02A
:101EF00028689BFAABF26169B2FA82F220F0F8002E
:101F000091400843286075E0686A98FAA8F1B1FA30
:101F100081F101F01F0106FA01F108421DD1FFF71E
:101F200075FAA0EB0A00642802D90320BDE8F88FF7
:101F300098FAA8F0B0FA80F040F02000400901D0F3
:101F4000286800E0686A98FAA8F1B1FA81F101F016
:101F50001F0106FA01F10842E1D028689BFAABF2B2
:101F60006169B2FA82F220F0F800914008432860DB
:101F700040E096FAA6F0B0FA80F0800000F18440CC
:101F800000F58400C0F80090FFF740FA824698FA06
:101F9000A8F0B0FA80F040F02000400901D0286895
:101FA00000E0686A98FAA8F1B1FA81F101F01F0126
:101FB00006FA01F108421DD0FFF728FAA0EB0A004B
:101FC000642802D90320BDE8F88F98FAA8F0B0FA87
:101FD00080F040F02000400901D0286800E0686AE5
:101FE00098FAA8F1B1FA81F101F01F0106FA01F1A6
:101FF0000842E1D1207810F0080F61D0A069D0B379
:1020000096FAA6F0B0FA80F0800000F1844000F566
:102010008400C0F88064FFF7F9F9824698FAA8F0C6
:10202000B0FA80F040F06000B6EB501F04D1286891
:102030000EE000000010024098FAA8F0B0FA80F01C
:1020400040F06000B8EB501F01D1286A00E0686AD8
:1020500098FAA8F1B1FA81F101F01F0106FA01F135
:1020600008422AD1FFF7D2F9A0EB0A00642803D96D
:102070000320BDE8F88F24E098FAA8F0B0FA80F0C9
:1020800040F06000B6EB501F01D128680BE098FAD1
:10209000A8F0B0FA80F040F06000B8EB501F01D11A
:1020A000286A00E0686A98FAA8F1B1FA81F101F0B3
:1020B0001F0106FA01F10842D4D00120FFF701F810
:1020C00058E096FAA6F0B0FA80F0800000F1844063
:1020D00000F58400C0F88094FFF798F9824698FADA
:1020E000A8F0B0FA80F040F06000B6EB501F01D1CC
:1020F00028680BE098FAA8F0B0FA80F040F0600091
:10210000B8EB501F01D1286A00E0686A98FAA8F17C
:10211000B1FA81F101F01F0106FA01F1084229D05C
:10212000FFF774F9A0EB0A00642802D90320BDE888
:10213000F88F98FAA8F0B0FA80F040F06000B6EBA3
:10214000501F01D128680BE098FAA8F0B0FA80F08F
:1021500040F06000B8EB501F01D1286A00E0686AC7
:1021600098FAA8F1B1FA81F101F01F0106FA01F124
:102170000842D5D1207810F0040F70D0E86940F003
:102180008050E861E86900F080500090DFF844B4C6
:10219000DBF8000040F48070CBF80000FFF736F960
:1021A0008246DBF8000010F4807F0DD1FFF72EF996
:1021B000A0EB0A00642802D90320BDE8F88FDBF801
:1021C000000010F4807FF1D0286A20F0010028621E
:1021D000286A20F004002862FFF718F9824698FA6E
:1021E000A8F0B0FA80F040F04000B6EB501F01D1EB
:1021F00028680BE098FAA8F0B0FA80F040F04000B0
:10220000B8EB501F01D1286A00E0686A98FAA8F17B
:10221000B1FA81F101F01F0106FA01F108422AD05A
:10222000FFF7F4F8A0EB0A00B84202D90320BDE89A
:10223000F88F98FAA8F0B0FA80F040F04000B6EBC2
:10224000501F01D128680CE098FAA8F0B0FA80F08D
:1022500040F04000B8EB501F02D1286A01E0CFE007
:10226000686A98FAA8F1B1FA81F101F01F0106FA43
:1022700001F10842D4D1E06801281AD0F0B1052854
:1022800025D0286A20F001002862286A20F0040086
:102290002862E06878B3FFF7B9F8824698FAA8F0A8
:1022A000B0FA80F040F04000B6EB501F18D128681B
:1022B00023E0286A40F001002862EAE7286A20F05B
:1022C00001002862286A20F004002862E1E7286AF9
:1022D00040F004002862286A40F001002862D8E734
:1022E00098FAA8F0B0FA80F040F04000B8EB501F28
:1022F00002D1286A01E035E0686A98FAA8F1B1FADB
:1023000081F101F01F0106FA01F1084278D1FFF7CF
:102310007DF8A0EB0A00B84202D90320BDE8F88F8F
:1023200098FAA8F0B0FA80F040F04000B6EB501FE9
:1023300001D128680BE098FAA8F0B0FA80F040F0DC
:102340004000B8EB501F01D1286A00E0686A98FA93
:10235000A8F1B1FA81F101F01F0106FA01F108427A
:10236000D5D04DE0FFF752F8824698FAA8F0B0FABF
:1023700080F040F04000B6EB501F01D128680BE020
:1023800098FAA8F0B0FA80F040F04000B8EB501F87
:1023900001D1286A00E0686A98FAA8F1B1FA81F1DF
:1023A00001F01F0106FA01F1084229D0FFF72EF8CB
:1023B000A0EB0A00B84202D90320BDE8F88F98FAD2
:1023C000A8F0B0FA80F040F04000B6EB501F01D109
:1023D00028680BE098FAA8F0B0FA80F040F04000CE
:1023E000B8EB501F01D1286A00E0686A98FAA8F19A
:1023F000B1FA81F101F01F0106FA01F10842D5D1CD
:10240000E069D0B3696801F00C0108297ED04FF073
:10241000807A4FF00078022817D09AFAAAF0B0FA22
:1024200080F0800000F1844000F58400C0F8009046
:10243000FEF7ECFF044698FAA8F0B0FA80F040F0FE
:10244000200040097ED0286897E09AFAAAF0B0FAF6
:1024500080F0800000F1844000F58400C0F8009016
:10246000FEF7D4FF074698FAA8F0B0FA80F040F0E3
:102470002000400902D0286801E0A5E0686A98FAC7
:10248000A8F1B1FA81F101F01F0106FA01F1084249
:102490001CD0FEF7BBFFC01B642802D90320BDE897
:1024A000F88F98FAA8F0B0FA80F040F020004009C8
:1024B00001D0286800E0686A98FAA8F1B1FA81F1C1
:1024C00001F01F0106FA01F10842E2D1206AB0F5DD
:1024D000803F05D16868A16820F400300843686037
:1024E000616A206A0843696821F4741108436860CE
:1024F0009AFAAAF0B0FA80F0800000F1844000F56A
:1025000084000660FEF782FF044600E05FE098FA70
:10251000A8F0B0FA80F040F02000400901D028680F
:1025200000E0686A98FAA8F1B1FA81F101F01F01A0
:1025300006FA01F1084247D1FEF768FF001B642844
:1025400004D900E018E00320BDE8F88F98FAA8F05D
:10255000B0FA80F040F02000400901D0296800E086
:10256000696A98FAA8F0B0FA80F000F01F0006FA45
:1025700000F00142E0D027E0686A98FAA8F1B1FAC9
:1025800081F101F01F0106FA01F108421CD0FEF7AB
:102590003DFF001B642802D90320BDE8F88F98FA9C
:1025A000A8F0B0FA80F040F02000400901D029687E
:1025B00000E0696A98FAA8F0B0FA80F000F01F0015
:1025C00006FA00F00142E2D10020BDE8F88F0120B8
:1025D000BDE8F88F007000404FF0E021042804D0DF
:1025E000086920F0040008617047086940F00400A1
:1025F0000861704770470000401EB0F1807F01D332
:10260000012070474FF0E0214861044AF02010702B
:1026100000208861072008610020704723ED00E05A
:1026200010B5FFF7E7FF10BD7047704710B490F882
:102630003820012A2AD0012380F83830022280F87D
:1026400039200268D2F804C02CF0700CC2F804C023
:102650000268D2F804C00C684CEA040CC2F804C04A
:102660000268D2F808C02CF0800CC2F808C00268DA
:10267000D2F808C049684CEA0101916080F839300D
:10268000002180F8381010BC0020704710BC0220D8
:10269000704710B50446002C03D094F8390010B1EF
:1026A00007E0012010BD002084F83800204600F02B
:1026B0000DF8022084F83900211D206800F06EFD1D
:1026C000012084F83900002010BD000008B5006822
:1026D0002049A0F18042B2F5963216D0B0F1804F79
:1026E00025D012F5943234D1C86940F00200C86197
:1026F000C86900F00200009001211D20FEF772FF62
:10270000BDE808401D20FEF761BF886940F4006005
:102710008861886900F4006000900022012119207E
:10272000FEF760FFBDE808401920FEF74FBFC869FB
:1027300040F00100C861C86900F00100009000226B
:1027400001211C20FEF74EFFBDE808401C20FEF7CB
:102750003DBF08BD001002400168CA6842F0010296
:10276000CA600068016841F0010101600020704703
:102770000168CA6822F00102CA600068016A41F279
:102780001112114207D1016A9210114203D101685E
:1027900021F0010101600020704770B5044694F8F3
:1027A0003800012818D0012584F83850022084F818
:1027B00039002068826822F0770222F47F4282602A
:1027C000086850283AD00EDC20285FD006DC0028AC
:1027D00052D0102863D154E0022070BD30285AD066
:1027E00040285CD13EE0602832D070280CD0B0F593
:1027F000805F03D0B0F5005F51D113E0206881689D
:1028000021F0070181604AE0CB684A688968206846
:1028100000F00AFD2068816821F0770141F077011E
:1028200081603CE0CB684A688968206800F0FCFC65
:102830002068816841F48041816030E0CA6849685D
:10284000206800F004FD5021206800F0F8FC26E02C
:10285000CA684968206800F00DFD6021206800F01A
:10286000EEFC1CE0CA684968206800F0F0FC4021DA
:10287000206800F0E4FC12E00021206800F0DFFC9A
:102880000DE01021206800F0DAFC08E0202120682B
:1028900000F0D5FC03E03021206800F0D0FC84F883
:1028A0003950002084F8380070BD704770B5044678
:1028B000206801694FF0000511F0020F17D0C168C0
:1028C00011F0020F13D0E91E01610120207620686B
:1028D000806910F0030F03D02046FFF7E6FF05E004
:1028E000204600F09DF8204600F09BF825762068F1
:1028F000016911F0040F18D0C16811F0040F14D051
:102900006FF004010161022020762068806910F4D4
:10291000407F03D02046FFF7C8FF05E0204600F0C7
:102920007FF8204600F07DF825762068016911F0D7
:10293000080F18D0C16811F0080F14D06FF008010B
:102940000161042020762068C06910F0030F03D0D5
:102950002046FFF7AAFF05E0204600F061F8204678
:1029600000F05FF825762068016911F0100F18D08B
:10297000C16811F0100F14D06FF010010161082030
:1029800020762068C06910F4407F03D02046FFF70E
:102990008CFF05E0204600F043F8204600F041F8A7
:1029A00025762068016911F0010F09D0C16811F086
:1029B000010F05D06FF001010161204600F032F8EF
:1029C0002068016911F0800F09D0C16811F0800FF3
:1029D00005D06FF0800101612046FFF725FE2068D9
:1029E000016911F0400F09D0C16811F0400F05D006
:1029F0006FF040010161204600F074F82068016921
:102A000011F0200F0BD0C16811F0200F07D06FF02C
:102A1000200101612046BDE87040FFF706BE70BD91
:102A2000704770472DE9F04105462B68A3F18040BF
:102A3000B0F596301FD0B3F1804F1FD010F5943011
:102A400017D10220012181F310882449C0EB001224
:102A500001EB82046168002282F31088A268204E94
:102A60004FF4663C91420CD140F2E7307060D8627E
:102A7000E860BDE8F0814FF00000E3E74FF00100AF
:102A8000E0E706DAA2EB0107BCFBF7FCC6F804C0DE
:102A900005E0A1EB0207BCFBF7FCC6F804C0D6F8C2
:102AA00004C0BCF1250F01D24FF0250CC6F804C0BC
:102AB000C3F82CC0C5F80CC0012383F310889142E1
:102AC00001DB012100E0002101F0C0F86168084449
:102AD0006060002080F31088BDE8F08124000020B1
:102AE000180000207047704738B504462168086810
:102AF00000F00100CA6802F48072002807D032B1E9
:102B0000086848680090E06B40F00100E0630868E6
:102B1000C0F34002486900F001003AB130B10A68E0
:102B20004A680092E26B42F00402E2630A68C2F370
:102B300080023AB130B10A684A680092E26B42F012
:102B40000202E2630A68C2F3C0023AB130B1086817
:102B500048680090E06B40F00800E0630868C0F34C
:102B60004010C96801F0200118B111B1204600F0F1
:102B7000ADFB20680168C1F3C011C06800F080009F
:102B800019B110B1204600F089FC20680168C1F33A
:102B90008011C06800F0400019B110B1204600F06B
:102BA0007BFBE06B002805D0012084F8390020462B
:102BB000FFF799FF38BD70B50446002C04D094F897
:102BC0003900002510B106E0012070BD84F83850AE
:102BD000204600F021F8022084F839002068C168FE
:102BE00021F40051C160204600F0C8FB2068016953
:102BF00021F4904101612068416921F02A0141617D
:102C00002068C16841F40051C160E563012084F887
:102C10003900002070BD000010B586B00068A0F13A
:102C20008041B1F59C3125D11348816941F480413F
:102C30008161806900F4804001904FF4007002903F
:102C400002200390032005900C4C02A92046FEF7B9
:102C5000CFFA2115029100210391049102A9204687
:102C6000FEF7C6FA002202212520FEF7BBFC252034
:102C7000FEF7ACFC06B010BD001002400008014099
:102C800090F83930012B03D0122B01D0022070476D
:102C900031B32AB390F83830012B23D0012380F8C8
:102CA000383081628285C2850021C16390F8392065
:102CB000122A19D0222280F8392080F838100168B1
:102CC000CA6842F48072CA6001684A6942F001022F
:102CD0004A610068C16841F02001C160002070476E
:102CE0000120704702207047322280F83920E4E743
:102CF0001E49887D002802D14878FF280FD0887DA2
:102D00000022012813D0887D082823D34878EE2894
:102D10001CD08A750122491C1548FFF7B1BF887D78
:102D2000401C88750122491C1148FFF7A9BF48784B
:102D3000C22807D0FF2800D08A750122491C0C4800
:102D4000FFF79EBF887D401C8875F6E7012008705C
:102D50008A75DFE748788A7D064BD054887D401C11
:102D600088750122491C0248FFF78ABF50020020E3
:102D7000D8010020520200207047000070B584B0D6
:102D8000184817490160891581600126C660002531
:102D900045614FF46021C161456004240461FDF781
:102DA0001DFC019502960720039001A90D48FDF72F
:102DB000CDFA01960220029001A90A48FDF7C6FA51
:102DC00003200190029001A90648FDF7BFFA019483
:102DD000029401A90348FDF7B9FA04B070BD0000E0
:102DE00000240140E400002008B50948416941F091
:102DF00001014161406900F00100009000220421BE
:102E00000B20FEF7EFFBBDE808400B20FEF7DEBB12
:102E1000001002402DE9F04186B05948816941F027
:102E200040018161816901F040010191816941F0B6
:102E300010018161816901F010010191816941F006
:102E400004018161816901F004010191816941F00E
:102E500008018161816901F008010191816941F0F6
:102E600020018161806900F02000019070200290B3
:102E7000012603960325059502A94248FEF7B8F9F5
:102E80004FF4F8400290039605953F4F02A938464B
:102E9000FEF7AEF93F2002903C48039000240494D2
:102EA00002A93846FEF7A4F949F2041002900396ED
:102EB000059502A93648FEF79BF941F2FB300290D6
:102EC00003960595DFF8CC8002A94046FEF790F9FD
:102ED000700302900394049402A94046FEF788F917
:102EE00040F6FF000290039605952B4D02A9284657
:102EF000FEF77EF94FF4704002900394049402A907
:102F00002846FEF775F94FF470700290039404940C
:102F100002A93846FEF76CF9002211460620FEF79A
:102F200061FB0620FEF752FB002211460720FEF748
:102F300059FB0720FEF74AFB002211460820FEF746
:102F400051FB0820FEF742FB002211460920FEF744
:102F500049FB0920FEF73AFB002211460A20FEF742
:102F600041FB0A20FEF732FB002211461720FEF734
:102F700039FB1720FEF72AFB06B0BDE8F081000000
:102F80000010024000180140001001400000311004
:102F900000080140000C01400014014005480449AC
:102FA00001600021416040F6FF718160FEF734BA94
:102FB000003000401401002010B586B00F480E49C3
:102FC0000160472141600024846040F2E731C16024
:102FD00004614461FFF75DFB4FF48050029002A949
:102FE0000648FFF7DAFB0094019469460348FFF7AF
:102FF0001DFB06B010BD0000002C01402401002084
:1030000010B586B00E484FF0804101604721416005
:103010000024846040F2E731C1600461FFF739FBAE
:103020004FF48050029002A90548FFF7B6FB0094C8
:10303000019469460248FFF7F9FA06B010BD000096
:103040006001002010B586B00E480D49016047218F
:1030500041600024846040F2E731C1600461FFF701
:1030600018FB4FF48050029002A90648FFF795FB29
:103070000094019469460348FFF7D8FA06B010BDE2
:10308000000400409C0100200848074901604FF4FB
:103090001651416000218160C16001610C224261D2
:1030A0008161C161FFF787BD00380140D801002070
:1030B00010B5FEF729FABDE81040FFF7B1BA30B5F8
:1030C00097B009200C904FF480300D9000250E959C
:1030D0000121109112910224139414904FF4E010E6
:1030E00015900CA8FEF7AAFD0D20079008940995ED
:1030F00060020A900B90022107A8FEF77DFB009466
:103100004FF4404002906846FEF7B2FAFEF704FD25
:103110004FF47A71B0FBF1F0FFF76EFA0420FFF77D
:103120005BFA05210022881FFEF75CFA17B030BD5C
:103130000E48016841F00101016041680C4A1140EC
:103140004160016821F4102121F080710160016863
:1031500021F480210160416821F4FE0141604FF4B7
:103160001F0181600349C0030860704700100240DE
:103170000000FFF808ED00E00148FFF797BB0000F2
:10318000240100200148FFF791BB000060010020EE
:103190000148FFF78BBB00009C010020F0B40268DF
:1031A0001C4B1D4DDFF874C01D4E1E4C98420AD0BA
:1031B000A04208D0B0F1804F05D0A84203D06045AE
:1031C00001D0B04203D122F070024F683A439842D6
:1031D0000AD0A04208D0B0F1804F05D0A84203D059
:1031E000604501D0B04205D122F44072D1F80CC044
:1031F0004CEA020202608A68C2620A6882629842ED
:1032000001D0A04201D10969016301214161F0BCF3
:1032100070470000002C01400004004000080040FE
:10322000000C004000340140D0F808C02CF47F4C62
:1032300042EA0322114341EA0C018160704782682F
:1032400022F07002114341F0070181607047036A68
:10325000D0F820C02CF0010CC0F820C0D0F818C065
:103260002CF0F00C4CEA021223F00A03194382619D
:1032700001627047036A23F010030362D0F818C09C
:10328000036A2CF4704C4CEA023223F0A00343EAA8
:10329000011182610162704710B50168CA6822F0AD
:1032A0004002CA6090F8391032290BD001684A698F
:1032B00022F001024A61012180F83910FFF75CFD1C
:1032C000002010BD222180F83910F7E710B590F8E2
:1032D0003910222903D0322901D0022010BD816883
:1032E000B1F5805F11D0016919B30168496801F037
:1032F0007F02816A4B1C83620A70C18D491E0904DA
:10330000090CC1851CD0002010BD816A02693AB148
:1033100002685268D2B20A80816A491C8162ECE775
:1033200002685268C2F308020A80816A891C8162BD
:10333000E3E701684A68816A4B1C83620A70DCE734
:103340000168CA6822F02002CA6090F83910322958
:1033500010D00168CA6822F48072CA6001684A69A4
:1033600022F001024A61012180F83910FFF7C0FC08
:10337000002010BD122180F83910F7E72DE9F04147
:10338000044620680169E26821F44051114301615B
:103390002169A0680843616901432068C26822F47A
:1033A000037222F4A0521143C16020684169A269EE
:1033B00021F44071114341612068374D3226A0F15C
:1033C0008041B1F59C3133D0FEF7C0FB00EBC0016A
:1033D00001EB001061688900B0FBF1F0A5FB001063
:1033E0004709FEF7B3FB00EBC00101EB0010616879
:1033F0008900B0FBF1F8FEF7A9FB00EBC00101EB7F
:10340000001061688900B0FBF1F0A5FB00104009D5
:103410006FF01801484308EB800006EB0010A5FB95
:1034200000102168400967F31F108860BDE8F08133
:10343000FEF7A2FB00EBC00101EB00106168890000
:10344000B0FBF1F0A5FB00104709FEF795FB00EB80
:10345000C00101EB001061688900B0FBF1F8FEF7D4
:103460008BFB00EBC00101EB001061688900B0FB31
:10347000F1F0A5FB001040096FF01801484308EB7C
:10348000800006EB0010A5FB00102168400967F3DF
:103490001F108860BDE8F0811F85EB5190F839104E
:1034A000122903D0322901D0022070478168B1F57A
:1034B000805F0CD0016A4A1C026202680978516080
:1034C000C18C491E0904090CC18410D019E0016A9D
:1034D00002680988C1F308015160016919B1016AE4
:1034E000491C0162ECE7016A891C0162E8E7016896
:1034F000CA6822F08002CA600068C16841F04001D9
:10350000C1600020704700000148FFF7EDBA0000DD
:10351000D801002002E008C8121F08C1002AFAD111
:1035200070477047002001E001C1121F002AFBD143
:10353000704700230146491EFDD25B1C0A2BF9DBB4
:103540007047000070B5C0EB0011134841F2D2651E
:1035500000EB81046068A84205DAA18D0022A06A10
:10356000FDF74DFF04E0A18C0022206AFDF747FF24
:103570000A480068002807D16068A84205DAA06BF5
:103580006FF02D014843606070BDA06B2E21FF30AD
:103590004843606070BD0000240000200800002047
:1035A000C0EB0011054800EB8100016A828C836A40
:1035B0000362838D838481628285704724000020AA
:1035C0002DE9F04F87B000210491059106910191FA
:1035D000029103910020DFF87CB2012202FA00F38D
:1035E000DBF804C043EA0C03CBF80430401CC0B243
:1035F0000328F3D3DBF80400002874D0DFF85882E6
:10360000DFF85892DFF858A201AF0024012000FA39
:1036100004F6DBF80400064200F00C81012080F380
:10362000108890482044C579002080F3108857F80E
:103630002400052880F0FB80DFE800F00335669E5B
:10364000CC005CB900224FF480414846FDF7D7FE1C
:1036500000224FF400514846FDF7D1FE022C09D15B
:10366000002220215046FDF7CAFE002210215046BC
:10367000FDF7C5FE35B157F82400401C47F824007B
:1036800000F0D8B8C4EB041008EB80000122818D53
:10369000806AFDF7B4FE0123C8221946204600F0D7
:1036A00021FB00F0C7B854B9012291034846FDF749
:1036B000A6FE00224FF400514846FDF7A0FE022C62
:1036C00009D1012220215046FDF799FE0022102148
:1036D0005046FDF794FE012D06D057F82400401CFB
:1036E00047F82400A6E0B2E0C4EB041008EB800029
:1036F0000122818C006AFDF782FE0123C82200218D
:10370000204600F0EFFA95E054B900224FF48041D2
:103710004846FDF774FE012251034846FDF76FFE4F
:10372000022C09D1002220215046FDF768FE01221B
:1037300010215046FDF763FE75B1C4EB041008EB91
:1037400080000122818C006AFDF759FE57F82400A1
:10375000401C47F824006DE0C4EB041008EB800027
:103760000122818D806AFDF74AFE0123C822194695
:10377000204600F0B7FA5DE04CB9012291034846BB
:10378000FDF73DFE012251034846FDF738FE022CAD
:1037900009D1012220215046FDF731FE01221021DE
:1037A0005046FDF72CFEC4EB041008EB8000806B44
:1037B00050B12E21414304A840F8241057F82400AA
:1037C000401C47F8240035E0DBF80400B043CBF898
:1037D00004002FE04CB9012291034846FDF70FFE8B
:1037E000012251034846FDF70AFE022C09D10122AD
:1037F00020215046FDF703FE012210215046FDF71F
:10380000FEFD04AD55F82400A0B10123C82200211B
:10381000204600F067FA55F82400401E45F82400C1
:1038200040B9DBF80400B043CBF8040002E000200C
:1038300047F82400601CC4B2032CFFF4E7AE0A482A
:10384000FDF71BFEDBF8040000287FF4DEAE07B0B6
:10385000BDE8F08F0400002024000020001001408B
:1038600000180140D80000201401002070B5002489
:10387000084DC4EB041005EB80004168002904DB0F
:10388000818D806A0122FDF7BAFD601CC4B2032C51
:10389000EFD370BD2400002070B50024094D42F61E
:1038A000D256C4EB041005EB80004168B14204DC41
:1038B000818C006A0122FDF7A2FD601CC4B2032CBA
:1038C000EFD370BD24000020FDF726FEFFF7F7FBC5
:1038D000FFF7A0FAFFF788FAFFF750FAFFF76CFB43
:1038E000FFF78EFBFFF7AEFBFFF7CEFBFFF756FBB4
:1038F000CB48FDF7F2FDDFF83093CA4FDFF82C8399
:10390000CB4E4FF0000BA9F58074B421C948FCF7E9
:1039100032FC84F800B084F801B084F802B084F876
:1039200003B0C7F808B087F800B0C7F810B000F0CF
:103930000DFA00F08DFA00F0F5FA00F023FB0125F6
:10394000B748FDF79AFD4FF400514046FDF74CFD96
:1039500000283CD00021012080F3108860780844C2
:10396000A070002080F31088012080F3108896F862
:1039700000A0002080F31088012080F31088FFF75A
:1039800075FF002080F31088012080F31088FFF776
:1039900083FF002080F31088BAF1000F00F0D4807C
:1039A000012080F3108886F800B08BF31088B86887
:1039B000401CA14981FB00218A10A2EBE171494220
:1039C00001EB810100EB4100B86010B10AE0012178
:1039D000C1E702214046FDF70EFD4FF480514046FD
:1039E000FDF709FDA07830B3012080F31088F0794D
:1039F000E070002080F31088012080F31088B079F7
:103A00008C4A2E2148439060002080F310880120CA
:103A100080F31088707948435064002080F3108848
:103A2000012080F3108830794843C2F880000020DC
:103A300080F310882DE0012080F310887D482E222D
:103A4000416B51438160002181F31088012181F392
:103A50001088016F51434164002181F310880121D6
:103A600081F31088D0F8AC105143C0F880100020CA
:103A700080F31088012080F31088F079E070002036
:103A800080F31088012080F3108884F803B08BF352
:103A9000108884F800B0DFF8A4A14FF4805150469C
:103AA000FDF7A2FC10B92078401C20704FF40051A3
:103AB0005046FDF799FC10B92078801C20704FF417
:103AC00080415046FDF790FC10B92078001D207011
:103AD0004FF400415046FDF787FC10B920780830BC
:103AE0002070DFF85CA140215046FDF77DFC10B945
:103AF00020780A30207080215046FDF775FC10B9FF
:103B00002078143020704FF480715046FDF76CFC23
:103B100010B92078283020704FF400715046FDF71E
:103B200063FC10B9207850302070717A207881427F
:103B30000AD101213970434A907081F3108860786E
:103B4000D070002080F310883878E0B100224FF464
:103B500080713D48FDF753FC386928B1D9F8001051
:103B6000096811F0800F06D03649D9F80020095CA9
:103B70005160401C3861386904280FD1C7F810B073
:103B800087F800B00AE0D9F80000006810F0800F54
:103B900004D0012211022C48FDF731FCE0784FF0EF
:103BA000010A2AEA90024FF400714046FDF727FC13
:103BB000E07880212AEAD0024046FDF720FCE07838
:103BC00040212AEA10124046FDF719FCE078202136
:103BD0002AEA50124046FDF712FCE07810212AEA4A
:103BE00090124046FDF70BFCE07808212AEAD0123B
:103BF0004046FDF704FCE07810F0010F07D000F01C
:103C000021F900F0ADF900F0D5F9002504E001221A
:103C1000711C0548FFF734F8002D7FF491AE74E66F
:103C20001401002004000020D8010020000C0140F5
:103C300050020020240000206766666600140140E0
:103C40000010014010000020000801402DE9F04163
:103C500005460E462148C5EB051100EB8104277B84
:103C60003246DFF87C8018F80500002807D00026CF
:103C7000012823D008F805600020BDE8F08194F801
:103C80003000012801D156B10022A18A2069FDF738
:103C9000B6FBB74205D026730020BDE8F0810122B3
:103CA000F3E7A18B0022A069FDF7A9FB18F8050036
:103CB000401C08F805000020BDE8F081A18B01221E
:103CC000A069FDF79CFB08F805601FB14FF0FF30BD
:103CD000BDE8F0810120BDE8F08100002400002053
:103CE0001800002070B51646C0EB0012154800EB16
:103CF000820494F83000012801D101B30021A08A88
:103D00000A46236901461846FDF779FB3046FFF75E
:103D100010FC0025A18B0022A069FDF770FB304646
:103D2000FFF707FCA18B0122A069FDF768FB304675
:103D3000FFF7FFFB681CC5B2032DEBD370BD01215B
:103D4000DDE70000240000207047000070B5364C0D
:103D5000012251022046FDF752FB0122802120461C
:103D6000FDF74DFB012240212046FDF748FB0122D3
:103D700020212046FDF743FB012210212046FDF7BC
:103D80003EFB012208212046FDF739FB012240219C
:103D90002648FDF734FB264C012211032046FDF78F
:103DA0002EFB244D0122D1022846FDF728FB0122DB
:103DB00011022046FDF723FB012240212846FDF792
:103DC0001EFB012280212846FDF719FB012210214C
:103DD0002846FDF714FB012220212846FDF70FFBA2
:103DE000012204212846FDF70AFB0122082128466A
:103DF000FDF705FB012291020F48FDF700FB0122B0
:103E0000D1032046FDF7FBFA012202212846FDF7E7
:103E1000F6FA28210948FCF7AEF9BDE870401422F3
:103E200006490748FCF7C8BC000C014000180140D7
:103E300000080140001401400010014078020020F9
:103E4000E40000200148FCF74FBD0000E400002022
:103E500070B5304C2E4820610122A2822E49A1610A
:103E60004FF0040CA4F81CC020624021A184A06281
:103E70008021A185294BE3648114A4F850102849BE
:103E80006165A4F85820E0651022A4F860206066FF
:103E90002022A4F86820C4F88830C214A4F88C202A
:103EA000C4F890108115A4F89410C4F89800A4F8F0
:103EB0009CC0C4F8A0000820A4F8A400002084F846
:103EC000300084F86C0084F8A80060632067C4F8B0
:103ED000AC000A20A0636067C4F8B0000025C5EB01
:103EE000051004F8205004EB80002E22416B514352
:103EF000816090F83000012802D12846FFF750FB7E
:103F0000681CC5B2032DEAD3BDE87040FFF758BB6B
:103F1000001401402400002000080140001001406E
:103F2000000C014010B50B4840F2E7340168CC6248
:103F3000C460FEF711FC08480168CC62C460FEF75B
:103F40000BFC06480168CC62C460BDE81040FEF777
:103F500003BC000024010020600100209C0100201F
:103F600010B50548FEF704FC0448FEF701FCBDE867
:103F700010400348FEF7FCBB240100206001002034
:103F80009C01002009480021016041608160C160FE
:103F900001618182817506490968CA6842F400524C
:103FA000CA600122411C0248FEF76ABE500200208E
:103FB000D801002003480068C16821F40051C160A5
:103FC00070470000D8010020000000000102030437
:103FD0000102030406070809F83F0008000000205A
:103FE00024000000143500081C40000824000020B4
:103FF0007C060000243500080000000000000000DE
:104000000000000000000000FFC1000000000000F0
:0C40100000000000E703000000A24A04CA
:0400000508000131BD
:00000001FF
