:020000040800F2
:1000000010080020450100084D0100084F010008BC
:1000100051010008530100085501000800000000CC
:100020000000000000000000000000005701000870
:1000300059010008000000005B010008B937000802
:100040005F0100085F0100085F0100085F01000810
:100050005F0100085F010008650700086B070008E2
:1000600071070008770700087D07000821070008CE
:100070005F0100085F0100085F0100085F010008E0
:100080005F0100085F0100085F0100085F010008D0
:10009000E93C00085F0100085F01000883070008D1
:1000A0005F010008B93800085F0100085F0100081F
:1000B000C5380008D13800085F0100085F0100085A
:1000C0005F0100085F0100085F0100085F01000890
:1000D0005F010008DD3C00085F0100085F010008C7
:1000E0005F0100085F0100085F0100085F01000870
:1000F0005F0100085F0100085F0100085F01000860
:100100005F0100085F0100085F0100085F0100084F
:100110005F0100085F0100085F0100085F0100083F
:100120005F0100085F0100085F0100085F0100082F
:10013000DFF80CD000F030F9004800478541000896
:10014000100800200648804706480047FEE7FEE703
:10015000FEE7FEE7FEE7FEE7FEE7FEE7FEE7FEE777
:100160007138000831010008202A04DB203A21FA06
:1001700002F00021704721FA02F3D040C2F12002C0
:100180009140084319467047D2B201E000F8012BB4
:10019000491EFBD270470022F6E710B513460A4607
:1001A00004461946FFF7F0FF204610BD2DE9FE4F2B
:1001B00081EA030404F0004421F0004100944FF070
:1001C000000B23F0004350EA01045ED052EA03041E
:1001D0005BD0C3F30A54C1F30A552C44A4F2F334A0
:1001E0000194A0FB0254C1F3130141F48011C3F345
:1001F000130343F4801301FB024400FB034E840A03
:10020000970A44EA815447EA8357A4FB076802959A
:100210008D0A05FB07854FEA932C04FB0C54270538
:10022000029D4FEA065847EA1637B5EB08056EEB14
:10023000070C870E920E47EA811742EA8312A7FB4A
:100240000201B6EB0B0164EB00042B0D43EA0C3307
:100250005E1844EB1C50DA465146E7FB0201C5F339
:1002600013044FEA0B3343EA14534FEA0432019C60
:1002700043EA0603A4F10C040294009CCDE900B407
:1002800000F03BF803B0BDE8F08F00200146F9E72D
:100290000EB540F2334102910021CDE900110A462A
:1002A0000B4600F02AF803B000BDC1F30A5210B5A6
:1002B000C1F3130140F2FF3341F480119A4201DA95
:1002C000002010BD40F233439A42A2F2334203DCD5
:1002D0005242FFF749FF10BD904010BD10B5141EEB
:1002E00073F1000408DA401C41F1000192185B41EF
:1002F0001A4301D120F0010010BD2DE9F04D9246C6
:100300009B4611B1B1FA81F202E0B0FA80F22032DC
:10031000904600F053F804460F4640EA0A0041EACE
:100320000B0153465A46084313D0114653EA0100C5
:1003300019D0C8F140025046FFF716FF05460E4699
:1003400050465946424600F039F8084305D001208E
:1003500004E020463946BDE8F08D0020054346EA1A
:10036000E0762C4337430A986305E40AA0EB0800C3
:100370000022FD0A44EA47540A3002D50020014613
:10038000E9E7010510196941DDE9084500196941EE
:10039000BDE8F04DA2E70000064C074D06E0E0681E
:1003A00040F0010394E8070098471034AC42F6D3BC
:1003B000FFF7C2FEFC4800081C490008202A04DBA5
:1003C000203A00FA02F1002070479140C2F1200368
:1003D00020FA03F319439040704770B50446206833
:1003E000816811F0010F1FD0816821F00101816047
:1003F00001F008FE05462068806810F0010F13D058
:1004000001F000FE401B022809D9A06A40F010004C
:10041000A062E06A40F00100E062012070BD206847
:10042000806810F0010FEBD1002070BD10B50246BE
:10043000506A816A11F0500F05D0006A016BBDE867
:10044000104010460847816A41F4007181620168DA
:1004500089684FF4602232EA01010DD1C16859B9AF
:10046000816A21F480718162816A11F4805F03D115
:10047000816A41F00101816200F096FA10BD10B569
:10048000406A816A41F040018162C16A41F0040121
:10049000C16200F018FB10BD10B5406A00F012FBFD
:1004A00010BD0000F8B5044600260096206881685B
:1004B00011F0010F2FD1816841F0010181601748CF
:1004C00017490068B0FBF1F00090009828B100983F
:1004D000401E009000980028F9D101F093FD0546D8
:1004E0002068806810F0010F15D101F08BFD401BD2
:1004F00002280BD9A06A40F01000A062E06A40F028
:100500000100E06284F824600120F8BD2068806862
:1005100010F0010FE9D00020F8BD00006C000020B1
:1005200040420F0010B500297ED0826B4FF4D87383
:10053000D0F800C003EB01135CF803C00CF0040C0E
:10054000C2F808C0BCF1000F77D0D0F800C05CF84A
:1005500003C04FEADC0CC2F804C0D0F800C05CF85D
:10056000033003F00203D3604FF4DA73D0F800C015
:1005700003EB01135CF803C00CF00F0CC2F810C0C1
:100580001162D0F800C05CF80330C3F30723D361D5
:100590004FF4DC73D0F800C003EB01135CF803C028
:1005A00082F814C0D0F800C05CF803C04FEA1C2CDD
:1005B00082F815C0D0F800C05CF803C04FEA1C4CAC
:1005C00082F816C0D0F800C05CF803301B0ED3755B
:1005D0004FF4DE73D0F800C003EB01135CF803C0E6
:1005E00082F818C0D0F800C05CF803C04FEA1C2C99
:1005F00082F819C0D0F800C05CF803C04FEA1C4C68
:1006000082F81AC0D0F800C05CF803301B0ED37615
:100610002022D9B103681A610268536923F050039C
:10062000536190F83C2001E005E006E0222A15D055
:10063000322A13D017E0426B78E7D0F800C05CF89C
:1006400003C04FEA5C5CC2F800C086E70368DA606A
:100650000268536923F00A035361E2E702685369B1
:1006600023F40F4353611223012269B190F83C1027
:1006700052291FD0622920D0722922D080F83C2034
:1006800000F0CAFE002010BD90F83C10422906D0B0
:10069000622907D0722909D080F83C20F0E780F861
:1006A0003C30EDE7322180F83C10E9E7522180F838
:1006B0003C10E5E780F83C30E2E7222180F83C106E
:1006C000DEE7422180F83C10DAE710B501684A699C
:1006D00022F001024A6190F83C10122904D101680D
:1006E0004A6922F40F424A6190F83C1042290AD02C
:1006F00052290CD072290ED0012180F83C1000F054
:10070000BDFF002010BD222180F83C10F7E7322108
:1007100080F83C10F3E7622180F83C10EFE700001E
:10072000014801F07FB80000A402002010B490F846
:1007300040C0012404FA0CFCC46BC4F804C0D0F817
:1007400000C0CCF804304368102B05D003689960D2
:100750000068C26010BC704703689A600068C1609E
:1007600010BC7047012001F033BB022001F030BB08
:10077000042001F02DBB082001F02ABB102001F05D
:1007800027BB202001F024BBF8B5044600260096C4
:1007900094F82400012809D0012084F82400204680
:1007A000FFF71BFE0746380002D063E00220F8BDC9
:1007B000A06A20F4885040F00200A062022001F0FC
:1007C000E9FC2E490968B1FBF0F040000090009868
:1007D00028B10098401E009000980028F9D12046CA
:1007E000FFF760FE2068816841F00801816001F038
:1007F00009FC05462068806810F0080F13D001F04E
:1008000001FC401B0A2809D9A06A20F0020040F030
:100810001000A06284F824600120F8BD2068806880
:1008200010F0080FEBD12068816841F0040181606D
:1008300001F0E8FB05462068806810F0040F13D033
:1008400001F0E0FB401B0A2809D9A06A20F0020051
:1008500040F01000A06284F824600120F8BD2068F8
:10086000806810F0040FEBD1A06A20F0020040F085
:100870000100A06284F824603846F8BD6C000020B6
:1008800078B44FF0000C0024009490F82420012A42
:1008900014D0012280F824204A681F25072A10D28C
:1008A00003685E6B521E02EB8202954026EA050544
:1008B0000E6806FA02F22A435A631FE078BC02204F
:1008C00070470D2A0DD203681E6BD21F02EB820205
:1008D000954026EA05050E6806FA02F22A431A63D5
:1008E0000CE00368DE6A0D3A02EB8202954026EACC
:1008F00005050E6806FA02F22A43DA620A6807253D
:100900000A2A0DD30368DE680A3A02EB42029540D8
:1009100026EA05058E6806FA02F22A43DA600BE041
:1009200003681E6902EB4202954026EA05058E68BF
:1009300006FA02F22A431A610A68102A01D0112A23
:100940000BD10268A2F18043B3F592330AD0816AD9
:1009500041F0200181624FF0010C80F8244078BC06
:1009600060467047936813F4000FF6D1936843F420
:100970000003936009681029EFD10949094A096801
:10098000B1FBF2F101EB81014900009100990029CE
:10099000E3D00099491E009100990029F9D1DCE7C4
:1009A0006C00002040420F0070B5002400213F4B36
:1009B0003F4D03F1320C0022002000EB800603EBD8
:1009C000460636F811603244401C0528F5DBA5FBCD
:1009D000022080082CF81100491C0529EBDB0020BF
:1009E000344D4FF47A723CF81010B1F57A7F02D290
:1009F00045F8202005E055F8201011B1491E45F8B2
:100A00002010401C0528EEDB002055F8201009B10D
:100A1000611C8CB2401C0528F7DB274E296831B1D8
:100A200000224FF48041304601F0E5FA04E0012253
:100A30009103304601F0DFFA696831B100224FF4CA
:100A40000051304601F0D7FA04E00122510330464C
:100A500001F0D1FA194EA96829B1002220213046AF
:100A600001F0C9FA04E001222021304601F0C3FA66
:100A7000E96829B100221021304601F0BCFA04E0F7
:100A800001221021304601F0B6FA296929B100226D
:100A90000821304601F0AFFA04E001220821304677
:100AA00001F0A9FA0648447070BD00000003002060
:100AB000CDCCCCCC3C0300200010014000180140FC
:100AC00024010020704770472DE9F04104460025BD
:100AD000002C03D0A06A002618B108E00120BDE870
:100AE000F081E66284F82460204600F08FF820460A
:100AF000FFF773FC0146A06A00F0100252EA010001
:100B000007D0A06A40F01000A06201210846BDE8AD
:100B1000F081A06A20F4885040F00200A0622268B0
:100B2000A2F18040B0F59E3011D0E069D4F80CC03D
:100B300040EA4C0360680343A068B0F5807F0DD0A5
:100B400001280BD000206769012F0AD018E0E06966
:100B5000B0F5402FEAD14FF40020E7E74FF4807062
:100B6000F1E7BCF1000F21D0D4F828C04CF0200CE4
:100B7000C4F828C0D4F82CC04CF0010CC4F82CC028
:100B8000D2F804C02CF4694C4CEA00005060206894
:100B90008268DFF870C002EA0C021A438260A06823
:100BA000B0F5807F0BD0012809D00BE0D4F818C035
:100BB000ACF1010C40EA4C3040F40060E0E7208AE0
:100BC000401E05052068C26A22F470022A43C262F0
:100BD000206880680C4A1040984207D1E662A06AFB
:100BE00020F0020040F00100A0628FE7A06A20F030
:100BF000020040F01000A062E06A40F00100E062F4
:100C0000012183E7FDF7E1FFFE0E1FFF30B587B03E
:100C100004462068A0F18041B1F5923129D11648EF
:100C2000816941F400718161806900F40070019074
:100C30007B2002900320039002A9104801F0D4F811
:100C4000104D0F48286000206860A8608021E9608E
:100C500049002961890069612021A961E86128466C
:100C600000F04AFF18B17B2107A003F043F825628A
:100C70006C6207B030BD0000001002400008014067
:100C800008000240A40200202E2E2F5372632F73FF
:100C9000746D3332663178785F68616C5F6D737044
:100CA0002E6300002DE9F0470446884691462068EF
:100CB000434F444EA0F1804ABAF5923A01D0B8426F
:100CC00007D1306810F4702F03D001252846BDE805
:100CD000F08794F8240001280BD0012084F8240028
:100CE0002046FFF7DFFB054600212DB184F82410D4
:100CF000ECE70220BDE8F087A06A20F0010020F4B4
:100D0000606040F48070A0622068B8421AD13268F6
:100D100012F4702F16D0A26A42F48012A2623068D8
:100D200010F4806F05D0A06A20F4005040F4805089
:100D3000A062A06A10F4805F13D0E06A20F0060081
:100D4000E0620FE0A26A22F48012A262406810F40E
:100D5000806FEED0A06A20F4005040F48050A06272
:100D6000E7E7E16284F82410216A17488862216A63
:100D70001648C862216A1648086321686FF00200AD
:100D800008602068816841F48071816020684B466A
:100D900000F14C014246206A00F006FF206881689D
:100DA0004FF4602232EA010104D0816841F48011DD
:100DB00081608BE7816841F4A001816086E70000D3
:100DC00000280140042401402D0400089904000873
:100DD0007F04000810B5044694F82400012807D0C9
:100DE000012084F824002046FFF7F7FA10B10EE046
:100DF000022010BD2068816821F480718160206A22
:100E000000F03DFC38B1A16A41F04001A16200212F
:100E100084F8241010BDA16A21F4885141F0010129
:100E2000A162F4E770B40A7D012303FA02F20368B9
:100E3000D3F800C24C6A2CF47C5C4CEA042C4CF0D5
:100E4000010CC3F800C20368D3F81CC22CEA020CE0
:100E5000C3F81CC2CB694FF410744FF4117C002B03
:100E600017D10368D3F80C529543C3F80C528D89FF
:100E70004B684E6965F31F43056804EBC606AB512A
:100E80000D890B684E6965F31F4305680CEBC606B8
:100E9000AB51CB69012B18D10368D3F80C52154321
:100EA000C3F80C520D884B684E6965F31F43056803
:100EB00004EBC6042B510C89CB684D6964F31F43C6
:100EC00004680CEBC50C44F80C308B699BB10368CB
:100ED000D3F804C24CEA020CC3F804C20B6993B104
:100EE0000368D3F814C24CEA020CC3F814C2096AAE
:100EF000012910D015E00368D3F804C22CEA020CD3
:100F0000C3F804C2EAE70368D3F814C22CEA020C5F
:100F1000C3F814C2EBE70168D1F81C321A43C1F8D8
:100F20001C220068D0F8001221F00101C0F8001264
:100F300070BC00207047704770B5044600252068DB
:100F4000C168C1F300114269C2F3C0021023002935
:100F500002D00AB15D01C36020680169C1F30011CC
:100F60004269C2F3801219B112B145F48065036180
:100F70002068416911F0010F32D081686B4A32EA72
:100F8000010120D000218268694B33EA02021CD0A3
:100F900000228368DFF89CC13CEA030317D00023DA
:100FA000114319431CD08168C1F340018268C2F328
:100FB0004022806800F001001143084309D0204618
:100FC000FFF783FB07E00121DDE70122E1E70123D1
:100FD000E6E745F4006520688168574A114381605F
:100FE0002068C16801F003014069C0F3400021B1ED
:100FF00018B100212046FFF795FA2068016901F039
:1010000003014069C0F3001021B118B1012120464D
:10101000FFF788FA206C284320642068816901F07A
:1010200001024169C1F300214369C3F3C0332AB10E
:1010300021B11BB1216C41F0010121648169C1F32F
:1010400040014269C2F340224369C3F3C03329B16E
:1010500022B11BB1216C41F0020121648169C1F30D
:1010600080024169C1F380214369C3F3C0332AB1CF
:1010700021B11BB1216C41F004012164816911F09F
:10108000700F08D000214269C2F3C0224369C3F344
:10109000C03311B136E00121F5E79AB393B381690A
:1010A00001F0700140291BD006DC102909D020294D
:1010B0000CD0302922D10EE0502916D060291DD144
:1010C00018E0216C41F00801216417E0216C41F027
:1010D0001001216412E0216C41F0200121640DE037
:1010E000216C41F04001216408E0216C41F0800155
:1010F000216403E0216C41F480712164816921F055
:1011000070018161206C00280FD0216804204860A4
:10111000012084F83C002068416921F05B0121F442
:101120000F4141612046FFF706FF70BD010000043A
:101130000001000800000110090501002DE9F04739
:1011400004460025A946002C04D094F83C00002653
:1011500018B107E00120BDE8F08784F83D60204623
:1011600000F0A4F8022084F83C002068016821F017
:10117000020101602068016841F00101016000F096
:1011800041FF8046206840684FF0030710F0010FD0
:1011900011D100F037FFA0EB08000A2806D984F827
:1011A0003C7084F83D600320BDE8F087206840680B
:1011B00010F0010FEDD02168486810F0010F65D0E4
:1011C000A069012845D029F08000E269012A43D0B6
:1011D00020F04000226A012A41D020F02000626AFB
:1011E000012A3FD020F01000A26A012A3DD020F051
:1011F0000800E26A012A3BD020F004000A6822F0CD
:10120000FC0210430860E168A06862690843216934
:10121000114308436168491E08432168C86120687A
:10122000016821F00101016000F0ECFE80462068B9
:10123000406810F0010F23D000F0E4FEA0EB08009E
:101240000A2818D984F83C7084F83D600320BDE872
:10125000F08749F08000B8E740F04000BAE740F07E
:101260002000BCE740F01000BEE740F00800C0E7F7
:1012700040F00400C2E72068406810F0010FDBD1A5
:101280002068406810F0010F00D10125012D05D024
:10129000042084F83C000120BDE8F087266401208A
:1012A00084F83C000020BDE8F087000010B586B04F
:1012B0000068A0F18041B1F5C84125D11348C1694A
:1012C00041F00071C161C06900F0007001904FF4FD
:1012D000006002900020039004900D4C02A920466B
:1012E00000F082FDA11402910221039103210591D6
:1012F00002A9204600F078FD00220221142000F00F
:1013000003FF142000F0F4FE06B010BD00100240F0
:101310000008014010B400290FD190F83C20222A87
:101320000ED090F83C20422A0AD090F83C20622A45
:1013300006D090F83C20722A02D0012903D012E096
:1013400010BC0220704790F83C20322A37D090F829
:101350003C20522A33D090F83C20622A2FD090F8BB
:101360003C20722A2BD090F83D20012A2AD001225D
:1013700080F83D204FF0620C722331B390F83C208E
:10138000122A38D0222A3AD0422A3BD0322280F880
:101390003C20002303640268D2F814C048F60174AC
:1013A0004CEA040CC2F814C080F83D3069B3006800
:1013B000416941F05001416110BC0020704710BCF0
:1013C0000220704710BC0220704790F83C20122A7F
:1013D00007D0322A09D0522A0AD0222280F83C2093
:1013E000D7E7422280F83C20D3E780F83CC0D0E722
:1013F00080F83C30CDE7522280F83C20C9E780F8E5
:101400003CC0C6E780F83C30C3E70068416941F062
:101410000A014161D0E7000010B50446606B008806
:1014200080B203F07BF80548016841F002010160D9
:101430002046BDE810400021FFF76CBF1464004057
:101440002DE9F05F04460E462268906810F0806F28
:1014500008D1906810F0006F04D1906810F0805FA0
:1014600000F0008194F83D00012813D0012084F899
:101470003D0094F83C0022280FD0322811D0622879
:1014800013D0122084F83C00906810F0806F10D0C8
:10149000002515E00220BDE8F09F422084F83C00C2
:1014A000F2E7522084F83C00EEE7722084F83C001A
:1014B000EAE7906810F0006F01D0012500E00225F6
:1014C0004FF4C07000EB0510115801F001011150EC
:1014D000216B8B68002B75D0226852F800C04CEA53
:1014E0000303D1F80CC049684CEAC10119431150FB
:1014F000216B0A7C02F00F020A614FF4C27122686C
:1015000001EB0511535823F00F0353502268535831
:10151000D4F830C0DCF810C043EA0C035350216B00
:101520000A7DCB7D42EA03628B7D497D1B0443EA41
:10153000012111434FF4C473226803EB0513D1500A
:10154000216B0A7ECB7E42EA03628B7E497E1B04BE
:1015500043EA012111434FF4C673226803EB0513DC
:10156000D15021680A5842F001020A5000F04AFDA9
:101570000746DFF8FC80DFF8FC90DFF8FCA04FF0B6
:10158000000B55B3012D2ED0206880683AEA000088
:1015900040D0B6F1FF3F35D026B100F033FDC01B7F
:1015A000B0422FD9032084F83C0015B3012D24D07C
:1015B00021684FF40000886084F83DB00320BDE846
:1015C000F09FFFE722681358D1F80CC0098843EA5E
:1015D0000C0343EA415111508AE72068806838EAD9
:1015E000000017D0D5E72068806839EA000011D0E4
:1015F000CFE7216880208860DEE721684FF4004053
:101600008860D9E7B5B1012D1AD0206880683AEA20
:101610000000BED194F83C00422817D0522819D0BF
:1016200072281BD0012084F83C0084F83DB00020D3
:10163000BDE8F09F2068806838EA0000A9D1E9E79A
:101640002068806839EA0000A3D1E3E7222084F80B
:101650003C00EAE7322084F83C00E6E7622084F8A8
:101660003C00E2E7042084F83C000120BDE8F09F44
:10167000010000040001000800000110704701682B
:101680000A6822F00E020A6001680A6822F001026C
:101690000A6090F84020C36B012101FA02F25A60FF
:1016A00080F82110002180F82010084670470000C3
:1016B0002DE9F05F002490F82110022903D00421C5
:1016C0008163012490E001680A6822F00E020A603A
:1016D00001680A6822F001020A60454A0168454B28
:1016E000DFF814C1454D464E464FDFF81C81DFF848
:1016F0001C91DFF81CA1DFF81CB1DFF81CE191425E
:1017000032D9994201D101212BE0614501D110214B
:1017100027E0A94202D14FF4807122E0B14202D108
:101720004FF480511DE0B94202D14FF4803118E0EE
:10173000414502D14FF4801113E0494501D1012107
:101740000FE0514501D110210BE0594502D14FF472
:10175000807106E0714502D14FF4805101E04FF4F1
:1017600080312E4A116036E0994201D1012130E0EA
:10177000614501D110212CE0A94202D14FF48071C2
:1017800027E0B14202D14FF4805122E0B94202D1A8
:101790004FF480311DE0414502D14FF4801118E033
:1017A000914202D14FF0807113E0494501D10121EE
:1017B0000FE0514501D110210BE0594502D14FF402
:1017C000807106E0714502D14FF4805101E04FF481
:1017D0008031134A5160012180F82110002180F8E6
:1017E0002010416B01B188472046BDE8F09F000002
:1017F00080000240080002401C000240300002400D
:1018000044000240580002406C00024008040240BC
:101810001C0402403004024044040240040402401C
:10182000000002402DE9F05FC16B0A6801680B6897
:10183000D0F840B04FF0040C0CFA0BFC1CEA020F7D
:10184000DFF880C2A04CA14DA14EA24FDFF88882E4
:10185000DFF88892DFF888A270D013F0040F7ED0F2
:101860000A6812F0200F03D10A6822F004020A600D
:101870009C4A0168914233D9614501D104212CE091
:10188000A14201D1402128E0A94202D14FF4806158
:1018900023E0B14202D14FF480411EE0B94202D1AF
:1018A0004FF4802119E0414502D14FF4800114E04A
:1018B000494501D1042110E0514501D140210CE0FE
:1018C000894A914201D1091507E0884A914202D123
:1018D0004FF4804101E04FF48021854A116038E0E7
:1018E000614501D1042132E0A14201D140212EE025
:1018F000A94202D14FF4806129E0B14202D14FF4F4
:10190000804124E0B94202D14FF480211FE04145DB
:1019100002D14FF480011AE0914202D14FF0806170
:1019200015E0494501D1042111E0514501D1402183
:101930000DE06D4A914202D1091508E00FE06B4AB3
:10194000914202D14FF4804101E04FF48021694A75
:101950005160C16A002970D0BDE8F05F08474FF0C0
:10196000020E0EFA0BFE1EEA020F67D013F0020FF2
:1019700064D00A6812F0200F06D10A6822F00A0229
:101980000A60012180F82110564A0168914233D93A
:10199000614501D102212CE0A14201D1202128E0A2
:1019A000A94202D14FF4007123E0B14202D14FF4B9
:1019B00000511EE0B94202D14FF4003119E0414517
:1019C00002D14FF4001114E0494501D1022110E089
:1019D000514501D120210CE0434A914201D14915E2
:1019E00007E0424A914202D14FF4005101E04FF426
:1019F00000313F4A116039E0614501D1022133E0F5
:101A0000A14201D120212FE0A94202D14FF400715F
:101A10002AE0B14202D14FF4005125E0B94202D18F
:101A20004FF4003120E0414502D14FF400111BE09A
:101A3000914204D14FF0007116E041E01FE04945AA
:101A400001D1022110E0514501D120210CE0264AAC
:101A5000914201D1491507E0244A914202D14FF445
:101A6000005101E04FF40031224A5160002180F81A
:101A70002010816A002923D0BDE8F05F08474FF0AD
:101A8000080C0CFA0BFC1CEA020F19D013F0080F1B
:101A900016D00A6822F00E020A6090F84020C36B4C
:101AA000012101FA02F25A60816380F821100021BD
:101AB00080F82010016B002902D0BDE8F05F0847D4
:101AC000BDE8F09F080002401C00024030000240C8
:101AD00044000240580002406C00024008040240EA
:101AE0001C040240800002403004024044040240D2
:101AF000040402400000024010B400280ED0244B21
:101B00000168244A99420CD2234B0B44A2FB0332B6
:101B1000120992000264214AC2630BE010BC01204A
:101B200070471F4B0B44A2FB033212099200026460
:101B30001C4AC263022280F821200A686FF30D124A
:101B4000D0F808C04368046943EA0C03D0F80CC01D
:101B50004CEA040C43EA0C03D0F814C043EA0C032B
:101B6000D0F818C043EA0C03D0F81CC043EA0C03B9
:101B70001A430A6000218162C1620163416381638B
:101B8000012280F8212080F8201010BC002070472E
:101B900008040240CDCCCCCCF8FFFDBF00000240D1
:101BA000F8FBFDBF0004024070B50446002594F820
:101BB000200001280DD0012084F8200094F821C0D5
:101BC0000020BCF1010F06D084F820000225284631
:101BD00070BD022070BD4FF0020C84F821C0A063DC
:101BE0002068D0F800C02CF0010CC0F800C02046DE
:101BF000FEF79CFDE06A28B12068016841F00E0103
:101C0000016009E02068016821F00401016020689A
:101C1000016841F00A0101602068016841F001019A
:101C20000160D4E72DE9F04100260125654A664FA1
:101C3000664C082873D016DC012828D0022842D030
:101C400004287DD10421104600F0CAF9002857D09D
:101C50006079002874D066713846BDE8F0410122F1
:101C6000510200F0C8B910287AD0202868D120216C
:101C7000104600F0B5F900287ED0607A00B1667297
:101C80003846BDE8F0410122110300F0B4B901214A
:101C9000104600F0A5F948B1207900B12671384608
:101CA000BDE8F0410122802100F0A5B9207900288B
:101CB00046D1257102F0A4FC3846BDE8F04100226F
:101CC000802100F098B90221104600F089F948B14E
:101CD000E07900B1E6713846BDE8F0410122110219
:101CE00000F089B9E07900286AD1E57102F0D2F9F3
:101CF0003846BDE8F04100224FF4807100F07BB916
:101D0000607900285CD16571012002F079FC3846C9
:101D1000BDE8F04100224FF4007100F06CB90821D9
:101D2000104600F05DF948B1207A00B126723846BD
:101D3000BDE8F0410122910200F05DB9207A01E096
:101D40003EE00DE000283BD12572012002F0A2F90F
:101D50003846BDE8F04100224FF4806100F04BB9F5
:101D60001021104600F03CF960B1A079002827D07E
:101D7000A6710122D10200E013E03846BDE8F0412F
:101D800000F039B9A07900281AD1A571022002F01B
:101D900037FC3846BDE8F04100224FF4006100F006
:101DA0002AB9607A00280BD16572022002F072F91C
:101DB0003846BDE8F04100224FF4805100F01BB9D5
:101DC000BDE8F0810010014000180140240100200E
:101DD00010B504490A68024202D00860FFF722FFEA
:101DE00010BD0000140401402DE9F84F00239C466B
:101DF000DFF8E0810F2708F1040909F1040A0AF16C
:101E0000040B012202FA0CF60A683240B2427DD17C
:101E1000DFF8C4E14C68A4EB0E0574452BD00DDC53
:101E2000032C34D005DC34B3012C19D0022C2FD173
:101E30001BE0112C16D0122C2AD119E0B5F5881F01
:101E400019D006DCB5F5803F15D0B5F5801F1FD140
:101E500011E0B5F5001F0ED0B5F5041F18D10AE04A
:101E6000CB6815E0CB681B1D12E0CB6808330FE090
:101E7000CB680C330CE08B6823B1012B04D0082312
:101E8000466105E0042303E00823066100E0002327
:101E9000B2F5807F01D2054601E000F1040502D2CF
:101EA0004FEA8C0403E0ACF108044FEA84042E6886
:101EB00007FA04FE26EA0E0603FA04F446EA0404CE
:101EC0002C604C6814F0805F7CD0444CA56945F0D0
:101ED0000105A561A46904F0010400942CF0030439
:101EE00004F1804404F58034A6684FEA8C754FEA0B
:101EF000157507FA05FE26EA0E0EA0F18046B6F526
:101F0000843620D0B6F580661FD000E05AE0B6F5E2
:101F100080661CD0B6F580661BD0B6F580661AD0F8
:101F2000B6F5806619D0062606FA05F545EA0E05CF
:101F3000A5604C6814F4803F11D0D8F800401443D9
:101F4000C8F8004010E00026EEE70126ECE7022684
:101F5000EAE70326E8E70426E6E70526E4E7D8F8FB
:101F600000409443C8F800404C6814F4003F05D08A
:101F7000D9F800401443C9F8004004E0D9F8004003
:101F80009443C9F800404C6814F4801F05D0DAF877
:101F900000401443CAF8004004E0DAF800409443DB
:101FA000CAF800404C6814F4001F05D0DBF800406C
:101FB0002243CBF8002005E0DBF8004024EA0202CF
:101FC000CBF800200CF1010CBCF1100FFFF419AF9D
:101FD000BDE8F88F0004014000001110001002401D
:101FE0008068084201D00120704700207047C26815
:101FF0005140C1607047002A01D001617047090457
:10200000016170470148006870470000000000202F
:1020100002480168491C0160704700000000002070
:1020200010B50748016841F010010160032000F07D
:102030009FF8052000F006F800F018F8002010BD09
:102040000020024010B5044607484FF47A72006839
:10205000B0FBF2F000F004FD00222146501E00F01B
:1020600053F8002010BD00006C00002008B51E4889
:10207000816941F001018161806900F001000090F7
:10208000032000F075F8002211466FF00B0000F0FD
:102090003BF8002211466FF00A0000F035F80022EC
:1020A00011466FF0090000F02FF800221146501F72
:1020B00000F02AF800221146101F00F025F8002237
:1020C0001146901E00F020F805210022881F00F024
:1020D0001BF80648416821F0E0614160416841F029
:1020E0000071416008BD0000001002400000014086
:1020F00000F01F01012202FA01F14009800000F105
:10210000E020C0F80011704710B4184B1B68C3F3EF
:102110000223C3F1070CBCF1040F01D94FF0040CEA
:102120001C1D072C01D2002300E0DB1E012404FA51
:102130000CFCACF1010C0CEA0101994004FA03F328
:102140005B1E1A401143002808DA00F00F0000F16E
:10215000E020090180F8141D10BC704700F1E02058
:10216000090180F8001410BC704700000CED00E07D
:1021700000F00700064A11684FF6FF03194041EAD4
:10218000002040F0FD7040F080601060704700005B
:102190000CED00E010B586B001463CA0D0F808C0B8
:1021A00043680268C068CDF810C00393029205909E
:1021B0003AA0006801900020394C042936D00EDC8A
:1021C00001293DD0022908D100F0EEF96168C1F380
:1021D0008131491C4900B0FBF1F006B010BD08295F
:1021E00029D01029F9D16168226812F0807FF4D0DB
:1021F00002A8C1F38342805C11F4803F09D061687A
:1022000001AAC1F34041515C264AB2FBF1F14843B7
:1022100001E025494843616811F4800FDDD123496D
:102220004000A1FB001006B0400810BD06B0BDE89C
:10223000104000F0C9B906B0BDE8104000F0C4B9C4
:10224000216A01F44072B2F5807F06D111F0020FCD
:1022500003D006B04FF4004010BDB2F5007F07D1A7
:10226000626A12F0020F03D049F6404006B010BD7A
:102270004FF4407232EA0101F8D1216811F4003FB5
:10228000F4D006B04FF2244010BD00000203040554
:10229000060708090A0B0C0D0E0F101001020000B2
:1022A0000010024000127A0000093D00ABAAAAAA61
:1022B0002DE9F8430446DFF81C81207810F0010F67
:1022C0006CD00027D8F81C0010F0805F0BD1D8F834
:1022D0001C0040F08050C8F81C00D8F81C0000F02A
:1022E0008050009001273C4D286810F4807F16D163
:1022F000286840F480702860FFF784FE064628684E
:1023000010F4807F0BD1FFF77DFE801B642802D97B
:102310000320BDE8F883286810F4807FF3D0D8F854
:10232000200000F4407048B3A18801F4407181425C
:1023300024D0D8F8200020F44070284901220A60F7
:1023400000220A60C8F8200010F0010F16D0FFF735
:1023500059FE0546D8F8200010F0020F0ED141F2C8
:102360008836FFF74FFE401BB04202D90320BDE87C
:10237000F883D8F8200010F0020FF2D0D8F820002F
:10238000616820F440700843C8F82000012F05D18F
:10239000D8F81C0020F08050C8F81C00207810F0FD
:1023A000020F07D0D8F80400A16820F44040084389
:1023B000C8F80400207810F0100F07D0D8F80400F7
:1023C000616920F480000843C8F804000020BDE8DB
:1023D000F8830000001002400070004040044242B8
:1023E0002DE9F04704460D46DFF88081D8F800005B
:1023F00000F00700A8420FD2D8F8000020F0070034
:102400002843C8F80000D8F8000000F00700A842F0
:1024100002D00120BDE8F0872078554F10F0020F60
:1024200005D07868A16820F0F00008437860207833
:1024300010F0010F5FD06068012806D002280BD091
:10244000396811F0020F29D00AE0396811F4003F11
:1024500006D10120BDE8F087396811F0007F1AD05D
:10246000796821F0030108437860FFF7CBFD064649
:10247000606841F28839012813D0022824D0786896
:1024800010F00C0F37D0FFF7BDFD801B48452ED94B
:102490000320BDE8F0870120BDE8F0870120BDE8FA
:1024A000F087786800F00C00042824D0FFF7AAFD1C
:1024B000801B484502D90320BDE8F087786800F00A
:1024C0000C000428F2D116E0786800F00C0008280F
:1024D00011D0FFF797FD801B484502D90320BDE8C6
:1024E000F087786800F00C000828F2D103E07868E3
:1024F00010F00C0FC7D1D8F8000000F00700A84278
:102500000FD9D8F8000020F007002843C8F80000D1
:10251000D8F8000000F00700A84202D00120BDE872
:10252000F087207810F0040F05D07868E16820F477
:10253000E06008437860207810F0080F06D07868D3
:10254000216920F4605040EAC100786000F03CF856
:102550007968084AC1F30311515CC8400649086014
:102560000520FFF76FFD0020BDE8F0870020024046
:1025700000100240E44800086C0000200148006898
:10258000704700006C00002000B5FFF7F7FF04491A
:102590004968044AC1F30221515CC84000BD0000F3
:1025A00000100240F448000800B5FFF7E7FF0449B7
:1025B0004968044AC1F3C221515CC84000BD000013
:1025C00000100240F448000885B015A08368026836
:1025D0004168C068039301920291049014A00068BE
:1025E0000090144B5968144801F00C02042A11D0D1
:1025F000082A0FD101AAC1F3834C12F80C2011F460
:10260000803F09D05968C1F340411DF80110B0FB6B
:10261000F1F0504305B07047084805B0504370478B
:1026200002030405060708090A0B0C0D0E0F101013
:10263000010200000010024000127A0000093D0073
:102640002DE9F84F0446FA4D207810F0010F68D0BC
:10265000686800F00C00042808D0686800F00C00DE
:1026600008280DD1686810F4803F09D0286810F45C
:10267000003F56D06068002853D10120BDE8F88F94
:102680006068B0F5803F15D0C8B1B0F5A02F1FD05D
:10269000286820F480302860286820F48020286092
:1026A000606858B3FFF7AEFC0646286810F4003F98
:1026B00017D036E0286840F480302860F0E72868BA
:1026C00020F480302860286820F480202860E7E724
:1026D000286840F480202860286840F48030286012
:1026E000DEE7FFF78FFC801B642802D90320BDE8DA
:1026F000F88F286810F4003FF3D012E0FFF782FC57
:102700000646286810F4003F0BD0FFF77BFC801BC7
:10271000642802D90320BDE8F88F286810F4003F30
:10272000F3D12078C34F10F0020F4FF0010B4FF0A0
:10273000000854D0686810F00C0F14D0686800F0DE
:102740000C00082803D1686810F4803F0BD0206982
:1027500078B3C7F800B0FFF755FC0646286810F0BC
:10276000020F12D01DE0286810F0020F05D020697A
:10277000012802D00120BDE8F88F2868616920F0A7
:10278000F80040EAC100286029E0FFF73BFC801B0D
:10279000022802D90320BDE8F88F286810F0020F44
:1027A000F3D02868616920F0F80040EAC100286091
:1027B00015E0FFE7C7F80080FFF724FC064628680D
:1027C00010F0020F0BD0FFF71DFC801B022802D96E
:1027D0000320BDE8F88F286810F0020FF3D12078AD
:1027E00010F0080F30D09448A169C1B1C0F800B012
:1027F000FFF708FC0646686A10F0020F0BD1FFF7DE
:1028000001FC801B022802D90320BDE8F88F686A0A
:1028100010F0020FF3D0012000F0BCFF14E0C0F86C
:102820000080FFF7EFFB0646686A10F0020F0BD03E
:10283000FFF7E8FB801B022802D90320BDE8F88FD0
:10284000686A10F0020FF3D1207810F0040F6FD0F7
:102850000026E86910F0805F08D1E86940F08050F8
:10286000E861E86900F0805000900126DFF8CCA113
:10287000DAF8000010F4807F1BD1DAF8000040F491
:102880008070CAF80000FFF7BDFB8146DAF800004F
:1028900010F4807F0DD1FFF7B5FBA0EB0900642891
:1028A00002D90320BDE8F88FDAF8000010F4807F29
:1028B000F1D0E068012816D0D0B1052821D0286ACF
:1028C00020F001002862286A20F004002862E068F5
:1028D00041F2883A68B3FFF795FB8146286A10F009
:1028E000020F17D03AE0286A40F001002862EEE7B4
:1028F000286A20F001002862286A20F0040028627B
:10290000E5E7286A40F004002862286A40F00100E8
:102910002862DCE7FFF776FBA0EB0900504502D9FF
:102920000320BDE8F88F286A10F0020FF2D015E0FE
:102930001AE0FFE7FFF766FB8146286A10F0020FF6
:102940000CD0FFF75FFBA0EB0900504502D9032034
:10295000BDE8F88F286A10F0020FF2D1012E03D1E2
:10296000E86920F08050E861E069E8B3696801F047
:102970000C01082958D0022810D0C7F86080FFF752
:1029800041FB0446286810F0007F4AD0FFF73AFB6D
:10299000001B022841D90320BDE8F88FC7F86080EA
:1029A000FFF730FB0646286810F0007F0BD0FFF7DA
:1029B00029FB801B022802D90320BDE8F88F286874
:1029C00010F0007FF3D1206AB0F5803F05D1686830
:1029D000A16820F4003008436860616A206A0843F7
:1029E000696821F4741100E01BE008436860C7F8CF
:1029F00060B0FFF707FB0446286810F0007F10D195
:102A0000FFF700FB001B022802D90320BDE8F88F66
:102A1000286810F0007FF3D003E0286810F0007FF2
:102A2000B4D10020BDE8F88F0120BDE8F88F000088
:102A30000010024000004242800442420070004008
:102A40004FF0E021042804D0086920F00400086158
:102A50007047086940F00400086170477047000043
:102A6000401EB0F1807F01D3012070474FF0E0217C
:102A70004861044AF0201070002088610720086136
:102A80000020704723ED00E010B5FFF7E7FF10BD11
:102A90007047704710B490F83C20012A2AD00123D7
:102AA00080F83C30022280F83D200268D2F804C051
:102AB0002CF0700CC2F804C00268D2F804C00C6894
:102AC0004CEA040CC2F804C00268D2F808C02CF02A
:102AD000800CC2F808C00268D2F808C049684CEA05
:102AE0000101916080F83D30002180F83C1010BC5D
:102AF0000020704710BC0220704710B50446002C1F
:102B000003D094F83D0010B107E0012010BD002073
:102B100084F83C00204600F00DF8022084F83D00C7
:102B2000211D206800F0DAFE012084F83D0000201D
:102B300010BD000008B500682049A0F18042B2F540
:102B4000963216D0B0F1804F25D012F5943234D1A0
:102B5000C86940F00200C861C86900F00200009036
:102B600001211D20FFF7D0FABDE808401D20FFF726
:102B7000BFBA886940F400608861886900F4006029
:102B80000090002201211920FFF7BEFABDE808409D
:102B90001920FFF7ADBAC86940F00100C861C869E3
:102BA00000F001000090002201211C20FFF7ACFA88
:102BB000BDE808401C20FFF79BBA08BD001002408A
:102BC0000168CA6842F00102CA600068016841F009
:102BD00001010160002070470168CA6822F001020B
:102BE000CA600068016A41F21112114207D1016AFC
:102BF0009210114203D1016821F00101016000200F
:102C0000704770B5044694F83C00012818D001259F
:102C100084F83C50022084F83D002068826822F04D
:102C2000770222F47F428260086850283AD00EDC96
:102C300020285FD006DC002852D0102863D154E051
:102C4000022070BD30285AD040285CD13EE0602878
:102C500032D070280CD0B0F5805F03D0B0F5005FA3
:102C600051D113E02068816821F0070181604AE0BA
:102C7000CB684A688968206800F078FE206881681F
:102C800021F0770141F0770181603CE0CB684A6830
:102C90008968206800F06AFE2068816841F48041FC
:102CA000816030E0CA684968206800F072FE5021F7
:102CB000206800F066FE26E0CA684968206800F0D7
:102CC0007BFE6021206800F05CFE1CE0CA68496859
:102CD000206800F05EFE4021206800F052FE12E005
:102CE0000021206800F04DFE0DE01021206800F06A
:102CF00048FE08E02021206800F043FE03E0302178
:102D0000206800F03EFE84F83D50002084F83C002E
:102D100070BD704770B50446206801694FF000052A
:102D200011F0020F17D0C16811F0020F13D0E91E85
:102D30000161012020772068806910F0030F03D023
:102D40002046FFF7E6FF05E0204600F09DF820460C
:102D500000F09BF825772068016911F0040F18D066
:102D6000C16811F0040F14D06FF00401016102205A
:102D700020772068806910F4407F03D02046FFF759
:102D8000C8FF05E0204600F07FF8204600F07DF8FF
:102D900025772068016911F0080F18D0C16811F07B
:102DA000080F14D06FF0080101610420207720681B
:102DB000C06910F0030F03D02046FFF7AAFF05E01B
:102DC000204600F061F8204600F05FF82577206883
:102DD000016911F0100F18D0C16811F0100F14D054
:102DE0006FF010010161082020772068C06910F49D
:102DF000407F03D02046FFF78CFF05E0204600F01F
:102E000043F8204600F041F825772068016911F069
:102E1000010F09D0C16811F0010F05D06FF0010159
:102E20000161204600F032F82068016911F0800F3E
:102E300009D0C16811F0800F05D06FF080010161E9
:102E40002046FFF725FE2068016911F0400F09D0E8
:102E5000C16811F0400F05D06FF0400101612046BC
:102E600000F088F82068016911F0200F0BD0C168CC
:102E700011F0200F07D06FF0200101612046BDE85E
:102E80007040FFF706BE70BD704770472DE9F047F0
:102E90008046D8F80060A6F18040B0F5963024D086
:102EA000B6F1804F24D010F594301CD102270120B8
:102EB00080F310882B48C7EB071100EB8109D9F884
:102EC0000440002080F31088D9F80850DFF898A05B
:102ED0004FF40230AC420ED140F2E730CAF80400A1
:102EE000F062C8F80C00BDE8F0874FF00007DEE79D
:102EF0004FF00107DBE706DAA5EB0401B0FBF1F0C8
:102F0000CAF8040005E0A4EB0501B0FBF1F0CAF833
:102F10000400DAF80400FDF7BBF9144A144BFDF77E
:102F200045F9FDF7C2F9CAF80400252800D225208A
:102F3000CAF80400F062C8F80C00012080F3108881
:102F4000AC4201DB012100E00021384601F09AFA91
:102F5000D9F804100844C9F80400002080F3108850
:102F6000BDE8F087700000200C000020CDCCCCCC58
:102F7000CCCCFC3F7047704710B5044622681068FF
:102F8000D168526900F00F03002B0AD110F0200F16
:102F900007D011F0200F04D02046BDE8104000F00B
:102FA00040BD002B6BD002F0010301F4907C53EA8A
:102FB0000C0364D010F0010F06D011F4807F03D011
:102FC000E36B43F00103E36310F0040F06D012F04B
:102FD000010F03D0E36B43F00203E36310F0020F31
:102FE00006D012F0010F03D0E36B43F00403E36358
:102FF00010F0080F06D012F0010F03D0E26B42F080
:103000000802E263E26B002A2ED010F0200F05D0F8
:1030100011F0200F02D0204600F003FD2068406927
:10302000C0F38010E16B01F00801084321D0204675
:1030300000F0DCFC2068416911F0400F15D04169B7
:1030400021F040014161606B58B118494163606BE8
:10305000FEF72EFB002807D0606B416BBDE81040E7
:1030600008472046FFF787FF10BD2046FFF783FF84
:1030700010BD2046FFF77FFF0020E06310BD10F079
:10308000800F07D011F0800F04D02046BDE810401B
:1030900000F0F0BD10F0400FF0D011F0400FEDD077
:1030A0002046BDE8104000F0AFBC0000DD3900084C
:1030B00070B50446002C04D094F83900002510B1F6
:1030C00006E0012070BD84F83850204600F022F858
:1030D000242084F839002068C16821F40051C160BF
:1030E000204600F0EDFC2068016921F49041016167
:1030F0002068416921F02A0141612068C16841F4DA
:103100000051C160E563202084F8390084F83A005A
:10311000002070BD10B586B00068A0F18041B1F507
:103120009C3125D11348816941F4804181618069D6
:1031300000F4804001904FF4007002900220039050
:10314000032005900C4C02A92046FEF74DFE2115E8
:10315000029100210391049102A92046FEF744FE4A
:10316000002202212520FEF7CFFF2520FEF7C0FF19
:1031700006B010BD001002400008014090F83A303F
:10318000202B01D002207047F9B1F2B190F838300D
:10319000012B1CD081628285C2850021C16322225D
:1031A00080F83A2080F838100168CA6842F48072CA
:1031B000CA6001684A6942F001024A610068C16858
:1031C00041F02001C16000207047012070470220BB
:1031D000704700001E49887D002802D14878FF28EA
:1031E0000FD0887D0022012813D0887D082823D3A2
:1031F0004878EE281CD08A750122491C1548FFF733
:10320000BDBF887D401C88750122491C1148FFF70D
:10321000B5BF4878C22807D0FF2800D08A750122A0
:10322000491C0C48FFF7AABF887D401C8875F6E74B
:10323000012008708A75DFE748788A7D064BD054F4
:10324000887D401C88750122491C0248FFF796BF03
:10325000E802002064020020EA020020704700001B
:1032600070B584B034483349016089158160012408
:10327000C460002646614FF46021C16146600625A6
:103280000561FDF721FC20B14FF42E712BA000F059
:1032900031FD019602940720039001A92648FDF70D
:1032A000EFFA20B140F2C22124A000F023FD0194E6
:1032B0000220029001A92048FDF7E2FA20B140F275
:1032C000CB211EA000F016FD03200190029001A961
:1032D0001948FDF7D5FA20B14FF4357117A000F069
:1032E00009FD04200190029001A91348FDF7C8FAD6
:1032F00020B140F2DD2111A000F0FCFC052001907E
:10330000029001A90C48FDF7BBFA20B140F2E6217A
:103310000AA000F0EFFC0195029501A90648FDF70F
:10332000AFFA002804D040F2EF2104A000F0E2FC44
:1033300004B070BD00240140300100202E2E2F5318
:1033400072632F6D61696E2E6300000010B5104826
:103350000E4901600C21416000218160C1604FF481
:10336000802202614FF4A00242618161C161016269
:1033700041628162C162FDF7E1FE002804D040F2A3
:10338000063104A000F0B6FC10BD0000006400404F
:10339000600100202E2E2F5372632F6D61696E2EF7
:1033A0006300000008B50948416941F0010141612D
:1033B000406900F001000090002204210B20FEF77C
:1033C000A3FEBDE808400B20FEF792BE00100240AD
:1033D0002DE9F04F87B07748816941F04001816164
:1033E000816901F040010191816941F01001816121
:1033F000816901F010010191816941F0040181614D
:10340000816901F004010191816941F00801816144
:10341000816901F008010191816941F02001816118
:10342000806900F020000190634F00227A21384625
:10343000FEF7E1FDDFF8848100224FF4F8414046B9
:10344000FEF7D9FDDFF87891002248F204014846E2
:10345000FEF7D1FDDFF86CA1002241F203115046C6
:10346000FEF7C9FD01224FF4FC513846FEF7C3FDBB
:10347000DFF854B1002240F6FF415846FEF7BBFD8D
:10348000012211024846FEF7B6FD01224FF43E71BB
:103490005046FEF7B0FD41F6F87002900125039505
:1034A0000326059602A93846FEF79EFC4FF4F84025
:1034B00002900395059602A94046FEF795FC3F2031
:1034C0000290424803900024049402A94046FEF76B
:1034D0008BFC48F2041002900395059602A9484619
:1034E000FEF782FC41F2FB3002900395059602A99B
:1034F0005046FEF779FC680302900394049402A9F5
:103500005046FEF771FC40F6FF4002900395059689
:1035100002A95846FEF768FC4FF4704002900394ED
:10352000049402A95846FEF75FFC4FF470700290B5
:103530000394049402A94046FEF756FC022102912E
:103540000395059102A93846FEF74EFC002211466C
:103550000620FEF7D9FD0620FEF7CAFD002211461F
:103560000720FEF7D1FD0720FEF7C2FD002211461D
:103570000820FEF7C9FD0820FEF7BAFD002211461B
:103580000920FEF7C1FD0920FEF7B2FD0022114619
:103590000A20FEF7B9FD0A20FEF7AAFD0022114617
:1035A0001720FEF7B1FD1720FEF7A2FD07B0BDE81A
:1035B000F08F000000100240001801400010014090
:1035C00000080140000C01400014014000003110CF
:1035D00010B586B0194818490160472141600024A0
:1035E000846040F2E731C160046144618461FFF7A7
:1035F00084FA20B140F2293111A000F07BFB4FF496
:103600008050029002A90D48FFF7FBFA20B140F26A
:103610002F310BA000F06EFB00940194694607481F
:10362000FFF738FA002804D040F2363104A000F049
:1036300061FB06B010BD0000002C0140A401002079
:103640002E2E2F5372632F6D61696E2E6300000062
:1036500010B586B018484FF08041016047214160A5
:103660000024846040F2E731C16004618461FFF7A7
:1036700044FA20B140F24A3110A000F03BFB4FF475
:103680008050029002A90C48FFF7BBFA20B14FF41A
:1036900054710AA000F02EFB00940194694606487C
:1036A000FFF7F8F9002804D040F2573103A000F0EA
:1036B00021FB06B010BD0000E40100202E2E2F5388
:1036C00072632F6D61696E2E6300000010B586B0C5
:1036D000184817490160472141600024846040F286
:1036E000E731C16004618461FFF707FA20B140F25D
:1036F0006B3111A000F0FEFA4FF48050029002A945
:103700000C48FFF77EFA20B140F271310AA000F0B8
:10371000F1FA0094019469460648FFF7BBF90028C6
:1037200004D04FF45E7104A000F0E4FA06B010BDBE
:1037300000040040240200202E2E2F5372632F6DB0
:1037400061696E2E6300000010B50D480B490160E1
:103750004FF41651416000218160C16001610C226B
:1037600042618161C161FFF7A3FC002804D040F2EF
:103770008B3104A000F0BEFA10BD000000380140FB
:10378000640200202E2E2F5372632F6D61696E2EFE
:103790006300000081B007494FF4FA520968B1FB99
:1037A000F2F14843009000BF0098411E0091FAD208
:1037B00001B070476C00002010B5FEF729FCBDE891
:1037C0001040FFF761B9000030B597B009200C90A8
:1037D0004FF480310D9100250E950120109012902C
:1037E0000224139414914FF4E01015900CA8FEF7E6
:1037F00027FF20B140F2832119A000F07BFA0F20AF
:103800000790089409954FF480600A900B9002216C
:1038100007A8FEF7E5FD20B140F2912110A000F0CD
:1038200069FA00944FF4404002906846FEF740FD6C
:1038300020B14FF426710AA000F05CFAFEF79EFE5C
:103840004FF47A71B0FBF1F0FFF70AF90420FFF7AB
:10385000F7F805210022881FFEF756FC17B030BD8F
:103860002E2E2F5372632F6D61696E2E6300000040
:103870000E48016841F00101016041680C4A1140A5
:103880004160016821F4102121F08071016001681C
:1038900021F480210160416821F4FE0141604FF470
:1038A0001F0181600349C003086070470010024097
:1038B0000000FFF808ED00E00148FFF72BBA000018
:1038C000A40100200148FFF725BA0000E401002010
:1038D0000148FFF71FBA000024020020F0B402687C
:1038E0001D4B1E4C1E4D1F4EDFF87CC098420AD067
:1038F000604508D0B0F1804F05D0A04203D0A84267
:1039000001D0B04203D122F070024F683A4398428E
:103910000AD0604508D0B0F1804F05D0A04203D056
:10392000A84201D0B04203D122F44072CC682243B5
:1039300022F080024C69224302608A68C2620A68EF
:103940008262984201D0604501D109690163012179
:103950004161F0BC70470000002C014000040040B1
:1039600000080040000C004000340140D0F808C0BE
:103970002CF47F4C42EA0322114341EA0C0181609E
:103980007047826822F07002114341F007018160A4
:103990007047036AD0F820C02CF0010CC0F820C09A
:1039A000D0F818C02CF0F00C4CEA021223F00A03F5
:1039B0001943826101627047036A23F010030362B6
:1039C000D0F818C0036A2CF4704C4CEA023223F091
:1039D000A00343EA011182610162704710B5406A99
:1039E0000021C185C184FFF7C6FA10BD0168CA680D
:1039F00022F49072CA6001684A6922F001024A61A9
:103A0000202180F83A10704710B50168CA6822F08A
:103A10004002CA60202180F83910FFF71FFC002007
:103A200010BD10B590F83A10222901D0022010BD27
:103A30008168B1F5805F11D0016919B301684968E7
:103A400001F07F02816A4B1C83620A70C18D491E9E
:103A50000904090CC1851CD0002010BD816A0269CF
:103A60003AB102685268D2B20A80816A491C816206
:103A7000ECE702685268C2F308020A80816A891C76
:103A80008162E3E701684A68816A4B1C83620A70BD
:103A9000DCE70168CA6822F02002CA600168CA68CF
:103AA00022F48072CA6001684A6922F001024A6108
:103AB000202180F83A10FFF78DFB002010BD000098
:103AC0002DE9F041044620680169E26821F4405183
:103AD000114301612169A0680143606901432068C5
:103AE000C26822F4037222F4A0521143C16020681C
:103AF0004169A26921F440711143416120685C4D24
:103B00003226A0F18041B1F59C3158D0FEF73CFD42
:103B100000EBC00101EB001061688900B0FBF1F718
:103B2000FEF732FD00EBC00101EB00106168890077
:103B3000B0FBF1F0A5FB001040096FF018014843FD
:103B400007EB800006EB0010A5FB0010400900F019
:103B5000F007FEF719FD00EBC00101EB00106168F2
:103B60008900B0FBF1F0A5FB0010400907EB00173E
:103B7000FEF70AFD00EBC00101EB0010616889004F
:103B8000B0FBF1F8FEF700FD00EBC00101EB001007
:103B900061688900B0FBF1F0A5FB001040096FF0EF
:103BA0001801484308EB800006EB0010A5FB00104D
:103BB0002168C0F3431038448860BDE8F081FEF707
:103BC000F3FC00EBC00101EB001061688900B0FB61
:103BD000F1F7FEF7E9FC00EBC00101EB00106168B2
:103BE0008900B0FBF1F0A5FB001040096FF018014F
:103BF000484307EB800006EB0010A5FB00104009CE
:103C000000F0F007FEF7D0FC00EBC00101EB001064
:103C100061688900B0FBF1F0A5FB0010400907EBDB
:103C20000017FEF7C1FC00EBC00101EB001061685A
:103C30008900B0FBF1F8FEF7B7FC00EBC00101EB27
:103C4000001061688900B0FBF1F0A5FB001040098D
:103C50006FF01801484308EB800006EB0010A5FB4D
:103C600000102168C0F3431038448860BDE8F0813B
:103C70001F85EB5190F83910212901D0022070479F
:103C80008168B1F5805F0CD0016A4A1C026202684B
:103C900009785160C18C491E0904090CC18410D0F7
:103CA00019E0016A02680988C1F3080151600169DD
:103CB00019B1016A491C0162ECE7016A891C0162C1
:103CC000E8E70168CA6822F08002CA600068C1683B
:103CD00041F04001C1600020704700000148FFF73B
:103CE0004BB90000640200200148FDF725B900002F
:103CF00060010020FEE702E008C8121F08C1002A88
:103D0000FAD170477047002001E001C1121F002A5C
:103D1000FBD170472DE9F05F0025DFF884B0DFF8B4
:103D20007880DFF878A04FF001090027ABF140065A
:103D300006EB0514A07801281BD196F83200012863
:103D400007D198F80000082200F50070154900F02E
:103D5000D7F8032D01D18AF8009060688047A770DA
:103D6000278111490BEBC500496B8A69496942609B
:103D70000160A078012802D02089401C2081208980
:103D80006189884201D3E0688047681CC5B2042D70
:103D9000CED3BDE8F09F00002401002024000020C5
:103DA000E003002044000020600100204FF4805117
:103DB0000148FEF71CB90000001801407047704729
:103DC00070470000F0B40020DFF83CC00F4B0CF14E
:103DD00018040022A4F1100504F1100603EB0011F1
:103DE0003CF810700F808A700A8154F820704F6080
:103DF00035F810704F8156F82070CF60401CC0B26B
:103E00000428EBD3F0BC704734000020A00300204E
:103E10004FF480610148FEF7EAB800000018014045
:103E2000704770477047000000B58BB00C4B0B4AD1
:103E30005A630E2209920122089200230493490139
:103E400000910193029103930692059007926946AF
:103E50000348FCF7E7FF0BB000BD00006C03002037
:103E60006001002070B58EB01E490B684A688968F1
:103E7000019302920391002101AB01F5807243F896
:103E80002120491C89B20329F7D3099000240A9400
:103E900001250B95019840010490059440F2FF71B3
:103EA0004FF0030C0020019AD64333F820207240D3
:103EB00092B21140401C80B26045F6D34801069092
:103EC0000220079008940C950E200D9004A9064836
:103ED000FCF7A8FF002803D04C2104A0FFF70AFF3D
:103EE0000EB070BDD8480008600100202E2E5C5333
:103EF00072635C757365725F63616E2E63000000B0
:103F000010B540F2FF73984200D31846082A00D338
:103F100008221C4BD3F830C0CCF800001A48D3F864
:103F200030C000788CF81400D3F830C048788CF892
:103F30001500D3F830C088788CF81600D3F830C05C
:103F4000C8788CF81700D3F830C008798CF81800BE
:103F5000D3F830C048798CF81900D3F830C088798C
:103F60008CF81A00C879196BC876186B02610121A8
:103F70001846FDF765FA0548016841F00201016045
:103F800010BD0000600100202401002014640040E6
:103F900070B50025084E06EBC504E07818B9A07886
:103FA000E07060688047E07808B1401EE070681CEF
:103FB000C5B2022DEFD370BD0004002010B54FF440
:103FC00000710548FEF713F80822BDE810400349C8
:103FD000D001FFF795BF00000018014090030020BA
:103FE00070B400200B4D0C4AEB1E8446DC1D35F8E6
:103FF000101022F8301002EBC0011E5C8E7081F8A8
:1040000003C054F820604E60401CC0B20228EED3BA
:1040100070BC7047280000200004002010B54FF449
:1040200000610548FDF7E3FF0822BDE810400349A1
:104030000020FFF765BF0000001801409803002032
:1040400013481249016306220A60026B0021916045
:10405000026BD160026B08211161026B4321117563
:10406000026B41215175026B4E219175026B20212B
:10407000D175026B49211176026B53215176026B87
:104080004F219176006B4B21C17670475003002081
:104090006001002070B5C0EB0011134840F6E64502
:1040A00000EB81046068A84205DAA18D0022A06AB5
:1040B000FDF7A1FF04E0A18C0022206AFDF79BFF21
:1040C0000A480068002807D16068A84205DAA06B9A
:1040D0006FF019014843606070BDA06B1A21FF307A
:1040E0004843606070BD00007000002004000020A4
:1040F000C0EB0011054800EB8100016A828C836AE5
:104100000362838D83848162828570477000002002
:1041100070B50024084DC4EB041005EB8000416825
:10412000002904DB818D806A0122FDF764FF601C99
:10413000C4B2032CEFD370BD7000002070B5002412
:10414000094D41F6E616C4EB041005EB800041680A
:10415000B14204DC818C006A0122FDF74CFF601C37
:10416000C4B2032CEFD370BD70000020012080F397
:10417000108803480078002181F310887047000000
:1041800024000020FDF74CFFFFF71EFBFFF720F98E
:10419000FFF708F9FFF764F8FFF71AFAFFF758FA84
:1041A000FFF794FAFFF7D0FAFFF7D0F8DFF8B492F0
:1041B000AD4F002609F1B4044FF0010BB421A9481A
:1041C000FBF7E9FF26706670A670E670DFF89C8248
:1041D000C8F8006000F03AFA00F0C4FA00F012FAF1
:1041E00000F028FB00F056FB00F01CFA00F0E0F9AC
:1041F0000125DFF87C8200F0AFF94FF40051404612
:10420000FDF7EEFE00283CD00021012080F310884D
:1042100060780844A070002080F31088012080F3AB
:1042200010883878002080F31088012080F31088EF
:10423000FFF76EFF002080F31088012080F31088C4
:10424000FFF77CFF002080F31088FFF78FFF002826
:1042500000F0C780012080F310883E7086F310883C
:10426000824B1868401C834981FB00218A10A2EB15
:10427000E171494201EB810100EB4100186010B18E
:104280000AE00121C1E702214046FDF7B0FE4FF4EC
:1042900080514046FDF7ABFEA07838B3012080F393
:1042A0001088F879E070002080F31088012080F3F6
:1042B0001088B8791A214843C9F80800002080F313
:1042C0001088012080F3108878794843C9F84400A9
:1042D000002080F31088012080F31088387948434B
:1042E000C9F88000002080F310882FE0012080F3BF
:1042F0001088D9F834001A214843C9F80800002072
:1043000080F31088012080F31088D9F870004843AA
:10431000C9F84400002080F31088012080F3108841
:10432000D9F8AC004843C9F88000002080F3108819
:10433000012080F31088F879E070002080F3108865
:10434000012080F31088E67086F310882670DFF86D
:1043500028A14FF480515046FDF742FE10B9207855
:10436000401C20704FF400515046FDF739FE10B943
:104370002078801C20704FF480415046FDF730FEBD
:1043800010B92078001D20704FF400415046FDF711
:1043900027FE10B9207808302070DFF8E0A0402117
:1043A0005046FDF71DFE10B920780A30207080219C
:1043B0005046FDF715FE10B92078143020704FF4E8
:1043C00080715046FDF70CFE10B92078283020701F
:1043D0004FF400715046FDF703FE10B920785030BD
:1043E0002070E0784FF400712BEA90024046FDF710
:1043F00002FEE07880212BEAD0024046FDF7FBFD6B
:10440000E07840212BEA10124046FDF7F4FDE078F9
:1044100020212BEA50124046FDF7EDFDE0781021F7
:104420002BEA90124046FDF7E6FDE07808212BEAE2
:10443000D0124046FDF7DFFDE07810F0010F07D005
:1044400000F0EAF800F014FA00F03CFA002504E06D
:104450000122791C0A48FEF791FE002D7FF4CBAEB5
:10446000ACE6000070000020E802002008000020F8
:10447000000C0140676666660014014000100140B0
:10448000640200202DE9F04105460E462148C5EBA7
:10449000051100EB8104277B3246DFF87C8018F899
:1044A0000500002807D00026012823D008F8056061
:1044B0000020BDE8F08194F83000012801D156B108
:1044C0000022A18A2069FDF796FDB74205D0267328
:1044D0000020BDE8F0810122F3E7A18B0022A06952
:1044E000FDF789FD18F80500401C08F805000020BC
:1044F000BDE8F081A18B0122A069FDF77CFD08F8E1
:1045000005601FB14FF0FF30BDE8F0810120BDE82C
:10451000F0810000700000200C00002010B4002189
:104520000B4CDFF830C0012334F81120824208D14F
:10453000012282F310880CEB01129370002282F3A7
:104540001088491CC9B20429EED310BC7047000082
:1045500034000020A00300202DE9F0410025134E77
:10456000002706EB0514E06868B1FDF74BFD2168F4
:10457000401AE168884212D3FDF744FD2060E760ED
:10458000606880470BE0FDF73DFD2168401AA16897
:10459000884204D3FDF736FD206060688047681CC0
:1045A000C5B2002DDDD0BDE8F08100001400002070
:1045B00070B50024074DFDF725FD05EB04110860DB
:1045C000601CC4B2002CF6D0FFF70AFDBDE87040B5
:1045D000FFF7F8BB1400002010B50748016841F050
:1045E0000201016080210548FDF701FDFFF7D0FCC5
:1045F000BDE81040FFF78EBB146400400018014076
:1046000070470000192202490248FCF74BBB00002A
:1046100000030020300100200148FCF7DBBB000054
:104620003001002010B5FFF70BFD4FF400710020A2
:10463000FFF7FAFB0120FFF715FCBDE81040002151
:104640000148FCF767BE00006001002070B53E4CD9
:10465000012251022046FDF7CEFC01228021204696
:10466000FDF7C9FC012240212046FDF7C4FC0122D0
:1046700020212046FDF7BFFC012210212046FDF736
:10468000BAFC012208212046FDF7B5FC2F4C002280
:1046900002212046FDF7AFFC012240212046FDF714
:1046A000AAFC2B4C012291022046FDF7A4FC01221A
:1046B000D1022046FDF79FFC264D0122110228461B
:1046C000FDF799FC012240212046FDF794FC0122D0
:1046D00080212046FDF78FFC012210212046FDF7A6
:1046E0008AFC012220212046FDF785FC01220421BD
:1046F0002046FDF780FC012208212046FDF77BFCC7
:10470000012291021448FDF776FC0122D1032846CC
:10471000FDF771FC012202212046FDF76CFC3221DD
:104720000E48FBF738FD0D480021C0F83210C0F8E4
:10473000361041870A48FCF727F8BDE87040192277
:1047400006490748FCF7AEBA000C014000180140CA
:104750000014014000080140001001400003002047
:104760003001002030B52F4C2D4820610122A2825B
:104770002D49A1614FF0040CA4F81CC02062402117
:10478000A184A0628021A185284BE3648114A4F850
:10479000501027496165A4F85820E0651022A4F85C
:1047A000602060662022A4F86820C4F88830C21413
:1047B000A4F88C20C4F890108115A4F89410C4F8C3
:1047C0009800A4F89CC0C4F8A0000820A4F8A40095
:1047D000002084F8300084F86C0084F8A80060633E
:1047E0002067C4F8AC000520A0636067C4F8B0007F
:1047F0000025C5EB051004F8205004EB80001A22B8
:10480000416B5143816090F83000012802D1284665
:10481000FFF76EFC681CC5B2032DEAD330BD000063
:104820000014014070000020000801400010014009
:10483000000C014010B50B4840F2E7340168CC622F
:10484000C460FEF7BDF908480168CC62C460FEF799
:10485000B7F906480168CC62C460BDE81040FEF7B5
:10486000AFB90000A4010020E401002024020020D0
:1048700010B50548FEF7B0F90448FEF7ADF9BDE8FC
:1048800010400348FEF7A8B9A4010020E40100206D
:104890002402002009480021016041608160C1605C
:1048A00001618182817506490968CA6842F4005233
:1048B000CA600122411C0248FEF760BCE8020020E9
:1048C0006402002003480068C16821F40051C160FF
:1048D0007047000064020020000100000101000098
:1048E00002010000000000000000000001020304BB
:1048F0000607080900000000010203041C49000823
:104900000000002070000000F63C00088C49000800
:1049100070000020A0070000063D00080000000015
:10492000000000000000000000000000E70300009D
:1049300000000000D94500080A000000E80300005C
:1049400000320A0000040000BD3F00081D400008BE
:104950000001010102010002190019001900E80319
:104960000001550000000000BF3D0008233E000884
:10497000113E0008AD3D0008C13D0008253E00087D
:0C498000213E0008BD3D000800A24A04D2
:0400000508000131BD
:00000001FF
