:020000040800F2
:1000000038080020450100084D0100084F01000894
:1000100051010008530100085501000800000000CC
:100020000000000000000000000000005701000870
:1000300059010008000000005B010008313400088D
:100040005F0100085F0100085F0100085F01000810
:100050005F0100085F010008390500083F0500083E
:10006000450500084B05000851050008F504000887
:100070005F0100085F0100085F0100085F010008E0
:100080005F0100085F0100085F0100085F010008D0
:10009000613900085F0100085F010008570500088A
:1000A0005F010008313500085F0100085F010008AA
:1000B0003D350008493500085F0100085F01000870
:1000C0005F0100085F0100085F0100085F01000890
:1000D0005F010008553900085F0100085F01000852
:1000E0005F0100085F0100085F0100085F01000870
:1000F0005F0100085F0100085F0100085F01000860
:100100005F0100085F0100085F0100085F0100084F
:100110005F0100085F0100085F0100085F0100083F
:100120005F0100085F0100085F0100085F0100082F
:10013000DFF80CD000F02AF800480047194000080A
:10014000380800200648804706480047FEE7FEE7DB
:10015000FEE7FEE7FEE7FEE7FEE7FEE7FEE7FEE777
:10016000E934000831010008D2B201E000F8012BA7
:10017000491EFBD270470022F6E710B513460A4627
:1001800004461946FFF7F0FF204610BD064C074D08
:1001900006E0E06840F0010394E807009847103457
:1001A000AC42F6D3FFF7C8FF90480008B0480008FB
:1001B00070B504462068816811F0010F1FD0816876
:1001C00021F00101816001F0E7FC054620688068AC
:1001D00010F0010F13D001F0DFFC401B022809D9F9
:1001E000A06A40F01000A062E06A40F00100E06206
:1001F000012070BD2068806810F0010FEBD1002055
:1002000070BD10B50246506A816A11F0500F05D0DA
:10021000006A016BBDE8104010460847816A41F44E
:1002200000718162016889684FF4602232EA01013D
:100230000DD1C16859B9816A21F480718162816AE6
:1002400011F4805F03D1816A41F00101816200F005
:1002500095FA10BD10B5406A816A41F04001816293
:10026000C16A41F00401C16200F017FB10BD10B576
:10027000406A00F011FB10BDF8B504460026009658
:100280002068816811F0010F2FD1816841F00101D0
:100290008160174817490068B0FBF1F000900098A2
:1002A00028B10098401E009000980028F9D101F074
:1002B00073FC05462068806810F0010F15D101F02D
:1002C0006BFC401B02280BD9A06A40F01000A06212
:1002D000E06A40F00100E06284F824600120F8BD8B
:1002E0002068806810F0010FE9D00020F8BD000000
:1002F0006800002040420F0010B500297ED0826BBC
:100300004FF4D873D0F800C003EB01135CF803C0BE
:100310000CF0040CC2F808C0BCF1000F77D0D0F884
:1003200000C05CF803C04FEADC0CC2F804C0D0F88F
:1003300000C05CF8033003F00203D3604FF4DA73BB
:10034000D0F800C003EB01135CF803C00CF00F0CF5
:10035000C2F810C01162D0F800C05CF80330C3F3DB
:100360000723D3614FF4DC73D0F800C003EB011313
:100370005CF803C082F814C0D0F800C05CF803C079
:100380004FEA1C2C82F815C0D0F800C05CF803C0FE
:100390004FEA1C4C82F816C0D0F800C05CF803305D
:1003A0001B0ED3754FF4DE73D0F800C003EB0113BE
:1003B0005CF803C082F818C0D0F800C05CF803C035
:1003C0004FEA1C2C82F819C0D0F800C05CF803C0BA
:1003D0004FEA1C4C82F81AC0D0F800C05CF8033019
:1003E0001B0ED3762022D9B103681A6102685369C3
:1003F00023F05003536190F83C2001E005E006E053
:10040000222A15D0322A13D017E0426B78E7D0F8B1
:1004100000C05CF803C04FEA5C5CC2F800C086E72D
:100420000368DA600268536923F00A035361E2E764
:100430000268536923F40F4353611223012269B107
:1004400090F83C1052291FD0622920D0722922D066
:1004500080F83C2000F0CAFE002010BD90F83C104F
:10046000422906D0622907D0722909D080F83C20A1
:10047000F0E780F83C30EDE7322180F83C10E9E706
:10048000522180F83C10E5E780F83C30E2E7222179
:1004900080F83C10DEE7422180F83C10DAE710B526
:1004A00001684A6922F001024A6190F83C10122961
:1004B00004D101684A6922F40F424A6190F83C1065
:1004C00042290AD052290CD072290ED0012180F87D
:1004D0003C1000F09DFE002010BD222180F83C1051
:1004E000F7E7322180F83C10F3E7622180F83C10F6
:1004F000EFE70000014800F05FBF0000CC020020E1
:1005000010B490F840C0012404FA0CFCC46BC4F889
:1005100004C0D0F800C0CCF804304368102B05D0DC
:10052000036899600068C26010BC704703689A60F5
:100530000068C16010BC7047012001F013BA0220AE
:1005400001F010BA042001F00DBA082001F00ABA37
:10055000102001F007BA202001F004BAF8B50446D3
:100560000026009694F82400012809D0012084F880
:1005700024002046FFF71CFE0746380002D063E047
:100580000220F8BDA06A20F4885040F00200A0626A
:10059000022001F0FBFB2E490968B1FBF0F040009E
:1005A0000090009828B10098401E00900098002804
:1005B000F9D12046FFF760FE2068816841F008010C
:1005C000816001F0E9FA05462068806810F0080FA4
:1005D00013D001F0E1FA401B0A2809D9A06A20F0E3
:1005E000020040F01000A06284F824600120F8BDF1
:1005F0002068806810F0080FEBD12068816841F016
:100600000401816001F0C8FA05462068806810F096
:10061000040F13D001F0C0FA401B0A2809D9A06AC0
:1006200020F0020040F01000A06284F82460012055
:10063000F8BD2068806810F0040FEBD1A06A20F0AC
:10064000020040F00100A06284F824603846F8BD42
:100650006800002078B44FF0000C0024009490F85B
:100660002420012A14D0012280F824204A681F2562
:10067000072A10D203685E6B521E02EB820295407D
:1006800026EA05050E6806FA02F22A435A631FE0BD
:1006900078BC022070470D2A0DD203681E6BD21F52
:1006A00002EB8202954026EA05050E6806FA02F280
:1006B0002A431A630CE00368DE6A0D3A02EB8202F9
:1006C000954026EA05050E6806FA02F22A43DA6228
:1006D0000A6807250A2A0DD30368DE680A3A02EB86
:1006E0004202954026EA05058E6806FA02F22A4380
:1006F000DA600BE003681E6902EB4202954026EACD
:1007000005058E6806FA02F22A431A610A68102A61
:1007100001D0112A0BD10268A2F18043B3F59233C4
:100720000AD0816A41F0200181624FF0010C80F80B
:10073000244078BC60467047936813F4000FF6D1EC
:10074000936843F40003936009681029EFD10949C5
:10075000094A0968B1FBF2F101EB810149000091FE
:1007600000990029E3D00099491E009100990029C1
:10077000F9D1DCE76800002040420F0070B500248A
:1007800000213F4B3F4D03F1320C0022002000EBD3
:10079000800603EB460636F811603244401C0528FB
:1007A000F5DBA5FB022080082CF81100491C052967
:1007B000EBDB0020344D4FF47A723CF81010B1F5A9
:1007C0007A7F02D245F8202005E055F8201011B1BB
:1007D000491E45F82010401C0528EEDB002055F886
:1007E000201009B1611C8CB2401C0528F7DB274E94
:1007F000296831B100224FF48041304601F0C5F93B
:1008000004E001229103304601F0BFF9696831B17B
:1008100000224FF40051304601F0B7F904E0012204
:100820005103304601F0B1F9194EA96829B10022EF
:100830002021304601F0A9F904E0012220213046B0
:1008400001F0A3F9E96829B100221021304601F036
:100850009CF904E001221021304601F096F9296943
:1008600029B100220821304601F08FF904E001226D
:100870000821304601F089F90648447070BD000037
:1008800028030020CDCCCCCC640300200010014014
:100890000018014020010020704770472DE9F04109
:1008A00004460025002C03D0A06A002618B108E0F9
:1008B0000120BDE8F081E66284F82460204600F063
:1008C0008FF82046FFF774FC0146A06A00F0100282
:1008D00052EA010007D0A06A40F01000A062012196
:1008E0000846BDE8F081A06A20F4885040F002007C
:1008F000A0622268A2F18040B0F59E3011D0E0697C
:10090000D4F80CC040EA4C0360680343A068B0F51B
:10091000807F0DD001280BD000206769012F0AD0FD
:1009200018E0E069B0F5402FEAD14FF40020E7E786
:100930004FF48070F1E7BCF1000F21D0D4F828C04B
:100940004CF0200CC4F828C0D4F82CC04CF0010C9A
:10095000C4F82CC0D2F804C02CF4694C4CEA000056
:10096000506020688268DFF870C002EA0C021A4307
:100970008260A068B0F5807F0BD0012809D00BE021
:10098000D4F818C0ACF1010C40EA4C3040F40060DF
:10099000E0E7208A401E05052068C26A22F4700242
:1009A0002A43C262206880680C4A1040984207D1EE
:1009B000E662A06A20F0020040F00100A0628FE72A
:1009C000A06A20F0020040F01000A062E06A40F04F
:1009D0000100E062012183E7FDF7E1FFFE0E1FFF4A
:1009E00030B587B004462068A0F18041B1F592315E
:1009F00029D11648816941F400718161806900F450
:100A0000007001907B2002900320039002A91048FF
:100A100000F0B4FF104D0F48286000206860A86007
:100A20008021E96049002961890069612021A9616B
:100A3000E861284600F02AFE18B17B2107A002F0E9
:100A400095FF25626C6207B030BD000000100240C7
:100A50000008014008000240CC0200202E2E2F5337
:100A600072632F73746D3332663178785F68616CAE
:100A70005F6D73702E6300002DE9F04704468846D1
:100A800091462068434F444EA0F1804ABAF5923A0D
:100A900001D0B84207D1306810F4702F03D001257F
:100AA0002846BDE8F08794F8240001280BD00120E7
:100AB00084F824002046FFF7DFFB054600212DB116
:100AC00084F82410ECE70220BDE8F087A06A20F04B
:100AD000010020F4606040F48070A0622068B84299
:100AE0001AD1326812F4702F16D0A26A42F4801222
:100AF000A262306810F4806F05D0A06A20F4005024
:100B000040F48050A062A06A10F4805F13D0E06AC5
:100B100020F00600E0620FE0A26A22F48012A262D6
:100B2000406810F4806FEED0A06A20F4005040F4CA
:100B30008050A062E7E7E16284F82410216A174838
:100B40008862216A1648C862216A164808632168CB
:100B50006FF0020008602068816841F48071816054
:100B600020684B4600F14C014246206A00F0E6FD49
:100B7000206881684FF4602232EA010104D0816864
:100B800041F4801181608BE7816841F4A0018160AC
:100B900086E7000000280140042401400302000809
:100BA0006F0200085502000810B5044694F82400AE
:100BB000012807D0012084F824002046FFF7F8FA26
:100BC00010B10EE0022010BD2068816821F4807110
:100BD0008160206A00F01DFB38B1A16A41F040013C
:100BE000A162002184F8241010BDA16A21F488516B
:100BF00041F00101A162F4E770B40A7D012303FA18
:100C000002F20368D3F800C24C6A2CF47C5C4CEA14
:100C1000042C4CF0010CC3F800C20368D3F81CC2CA
:100C20002CEA020CC3F81CC2CB694FF410744FF4C9
:100C3000117C002B17D10368D3F80C529543C3F8ED
:100C40000C528D894B684E6965F31F43056804EBB0
:100C5000C606AB510D890B684E6965F31F430568E5
:100C60000CEBC606AB51CB69012B18D10368D3F846
:100C70000C521543C3F80C520D884B684E6965F34E
:100C80001F43056804EBC6042B510C89CB684D69E2
:100C900064F31F4304680CEBC50C44F80C308B69FB
:100CA0009BB10368D3F804C24CEA020CC3F804C237
:100CB0000B6993B10368D3F814C24CEA020CC3F871
:100CC00014C2096A012910D015E00368D3F804C2E0
:100CD0002CEA020CC3F804C2EAE70368D3F814C292
:100CE0002CEA020CC3F814C2EBE70168D1F81C32FD
:100CF0001A43C1F81C220068D0F8001221F001014B
:100D0000C0F8001270BC00207047704770B50446F0
:100D100000252068C168C1F300114269C2F3C00216
:100D20001023002902D00AB15D01C3602068016967
:100D3000C1F300114269C2F3801219B112B145F436
:100D4000806503612068416911F0010F32D081682C
:100D50006B4A32EA010120D000218268694B33EAF4
:100D600002021CD000228368DFF89CC13CEA030326
:100D700017D00023114319431CD08168C1F34001EF
:100D80008268C2F34022806800F0010011430843EA
:100D900009D02046FFF783FB07E00121DDE70122B0
:100DA000E1E70123E6E745F4006520688168574ADA
:100DB000114381602068C16801F003014069C0F3FC
:100DC000400021B118B100212046FFF795FA2068B4
:100DD000016901F003014069C0F3001021B118B1AD
:100DE00001212046FFF788FA206C28432064206800
:100DF000816901F001024169C1F300214369C3F334
:100E0000C0332AB121B11BB1216C41F00101216431
:100E10008169C1F340014269C2F340224369C3F3CF
:100E2000C03329B122B11BB1216C41F00201216410
:100E30008169C1F380024169C1F380214369C3F331
:100E4000C0332AB121B11BB1216C41F004012164EE
:100E5000816911F0700F08D000214269C2F3C022ED
:100E60004369C3F3C03311B136E00121F5E79AB30A
:100E700093B3816901F0700140291BD006DC102971
:100E800009D020290CD0302922D10EE0502916D0CB
:100E900060291DD118E0216C41F00801216417E0A0
:100EA000216C41F01001216412E0216C41F020011D
:100EB00021640DE0216C41F04001216408E0216CC7
:100EC00041F08001216403E0216C41F480712164D0
:100ED000816921F070018161206C00280FD02168A8
:100EE00004204860012084F83C002068416921F01A
:100EF0005B0121F40F4141612046FFF706FF70BD01
:100F000001000004000100080000011009050100B3
:100F10002DE9F04704460025A946002C04D094F89A
:100F20003C00002618B107E00120BDE8F08784F8F6
:100F30003D60204600F0A4F8022084F83C002068C0
:100F4000016821F0020101602068016841F001019F
:100F5000016000F021FE8046206840684FF00307E2
:100F600010F0010F11D100F017FEA0EB08000A28C5
:100F700006D984F83C7084F83D600320BDE8F08712
:100F80002068406810F0010FEDD02168486810F02B
:100F9000010F65D0A069012845D029F08000E269E1
:100FA000012A43D020F04000226A012A41D020F0DB
:100FB0002000626A012A3FD020F01000A26A012AB4
:100FC0003DD020F00800E26A012A3BD020F0040066
:100FD0000A6822F0FC0210430860E168A0686269B8
:100FE00008432169114308436168491E0843216889
:100FF000C8612068016821F00101016000F0CCFDAA
:1010000080462068406810F0010F23D000F0C4FD36
:10101000A0EB08000A2818D984F83C7084F83D60D9
:101020000320BDE8F08749F08000B8E740F04000B9
:10103000BAE740F02000BCE740F01000BEE740F007
:101040000800C0E740F00400C2E72068406810F0E4
:10105000010FDBD12068406810F0010F00D101259D
:10106000012D05D0042084F83C000120BDE8F08764
:101070002664012084F83C000020BDE8F0870000D1
:1010800010B586B00068A0F18041B1F5C84125D106
:101090001348C16941F00071C161C06900F000707E
:1010A00001904FF4006002900020039004900D4CDA
:1010B00002A9204600F062FCA114029102210391D2
:1010C0000321059102A9204600F058FC00220221CC
:1010D000142000F015FE142000F006FE06B010BD2E
:1010E000001002400008014010B400290FD190F810
:1010F0003C20222A0ED090F83C20422A0AD090F8B8
:101100003C20622A06D090F83C20722A02D00129A5
:1011100003D012E010BC0220704790F83C20322A25
:1011200037D090F83C20522A33D090F83C20622AE5
:101130002FD090F83C20722A2BD090F83D20012A25
:101140002AD0012280F83D204FF0620C722331B387
:1011500090F83C20122A38D0222A3AD0422A3BD09A
:10116000322280F83C20002303640268D2F814C0C5
:1011700048F601744CEA040CC2F814C080F83D3003
:1011800069B30068416941F05001416110BC002021
:10119000704710BC0220704710BC0220704790F8C6
:1011A0003C20122A07D0322A09D0522A0AD0222201
:1011B00080F83C20D7E7422280F83C20D3E780F833
:1011C0003CC0D0E780F83C30CDE7522280F83C208C
:1011D000C9E780F83CC0C6E780F83C30C3E7006848
:1011E000416941F00A014161D0E7000010B50446B1
:1011F00002F0CCFB05490A6842F002020A60204670
:10120000BDE810400021FFF76FBF000014640040EC
:10121000704701680A6822F00E020A6001680A68D5
:1012200022F001020A6090F84020C36B012101FA0C
:1012300002F25A6080F82110002180F82010084640
:10124000704700002DE9F05F002490F8211002297A
:1012500003D004218163012490E001680A6822F030
:101260000E020A6001680A6822F001020A60454A1B
:101270000168454BDFF814C1454D464E464FDFF837
:101280001C81DFF81C91DFF81CA1DFF81CB1DFF82E
:101290001CE1914232D9994201D101212BE06145F3
:1012A00001D1102127E0A94202D14FF4807122E040
:1012B000B14202D14FF480511DE0B94202D14FF446
:1012C000803118E0414502D14FF4801113E04945C7
:1012D00001D101210FE0514501D110210BE0594509
:1012E00002D14FF4807106E0714502D14FF4805174
:1012F00001E04FF480312E4A116036E0994201D16D
:10130000012130E0614501D110212CE0A94202D138
:101310004FF4807127E0B14202D14FF4805122E0B6
:10132000B94202D14FF480311DE0414502D14FF462
:10133000801118E0914202D14FF0807113E04945CD
:1013400001D101210FE0514501D110210BE0594598
:1013500002D14FF4807106E0714502D14FF4805103
:1013600001E04FF48031134A5160012180F82110CF
:10137000002180F82010416B01B188472046BDE86C
:10138000F09F000080000240080002401C00024064
:101390003000024044000240580002406C0002400D
:1013A000080402401C04024030040240440402408D
:1013B00004040240000002402DE9F05FC16B0A689E
:1013C00001680B68D0F840B04FF0040C0CFA0BFC2D
:1013D0001CEA020FDFF880C2A04CA14DA14EA24F23
:1013E000DFF88882DFF88892DFF888A270D013F0E7
:1013F000040F7ED00A6812F0200F03D10A6822F091
:1014000004020A609C4A0168914233D9614501D1C6
:1014100004212CE0A14201D1402128E0A94202D1BF
:101420004FF4806123E0B14202D14FF480411EE0CD
:10143000B94202D14FF4802119E0414502D14FF465
:10144000800114E0494501D1042110E0514501D14A
:1014500040210CE0894A914201D1091507E0884AF0
:10146000914202D14FF4804101E04FF48021854A3E
:10147000116038E0614501D1042132E0A14201D17F
:1014800040212EE0A94202D14FF4806129E0B1420F
:1014900002D14FF4804124E0B94202D14FF48021BF
:1014A0001FE0414502D14FF480011AE0914202D180
:1014B0004FF0806115E0494501D1042111E051450B
:1014C00001D140210DE06D4A914202D1091508E099
:1014D0000FE06B4A914202D14FF4804101E04FF49A
:1014E0008021694A5160C16A002970D0BDE8F05F6F
:1014F00008474FF0020E0EFA0BFE1EEA020F67D0ED
:1015000013F0020F64D00A6812F0200F06D10A68A7
:1015100022F00A020A60012180F82110564A01686F
:10152000914233D9614501D102212CE0A14201D180
:10153000202128E0A94202D14FF4007123E0B142FA
:1015400002D14FF400511EE0B94202D14FF40031F4
:1015500019E0414502D14FF4001114E0494501D191
:10156000022110E0514501D120210CE0434A914273
:1015700001D1491507E0424A914202D14FF400518E
:1015800001E04FF400313F4A116039E0614501D17B
:10159000022133E0A14201D120212FE0A94202D152
:1015A0004FF400712AE0B14202D14FF4005125E01E
:1015B000B94202D14FF4003120E0414502D14FF44D
:1015C00000111BE0914204D14FF0007116E041E0A0
:1015D0001FE0494501D1022110E0514501D12021F0
:1015E0000CE0264A914201D1491507E0244A914274
:1015F00002D14FF4005101E04FF40031224A516012
:10160000002180F82010816A002923D0BDE8F05F16
:1016100008474FF0080C0CFA0BFC1CEA020F19D01B
:1016200013F0080F16D00A6822F00E020A6090F834
:101630004020C36B012101FA02F25A60816380F8F5
:101640002110002180F82010016B002902D0BDE894
:10165000F05F0847BDE8F09F080002401C00024010
:101660003000024044000240580002406C0002403A
:10167000080402401C040240800002403004024082
:1016800044040240040402400000024010B4002858
:101690000ED0244B0168244A99420CD2234B0B44B0
:1016A000A2FB0332120992000264214AC2630BE0DA
:1016B00010BC012070471F4B0B44A2FB03321209E0
:1016C000920002641C4AC263022280F821200A6848
:1016D0006FF30D12D0F808C04368046943EA0C03A5
:1016E000D0F80CC04CEA040C43EA0C03D0F814C048
:1016F00043EA0C03D0F818C043EA0C03D0F81CC02E
:1017000043EA0C031A430A6000218162C16201634B
:1017100041638163012280F8212080F8201010BCF1
:101720000020704708040240CDCCCCCCF8FFFDBFB0
:1017300000000240F8FBFDBF0004024070B5044603
:10174000002594F8200001280DD0012084F8200005
:1017500094F821C00020BCF1010F06D084F82000CD
:101760000225284670BD022070BD4FF0020C84F89F
:1017700021C0A0632068D0F800C02CF0010CC0F894
:1017800000C02046FEF7BCFEE06A28B12068016870
:1017900041F00E01016009E02068016821F00401B8
:1017A00001602068016841F00A0101602068016859
:1017B00041F001010160D4E72DE9F0410026012547
:1017C000654A664F664C082873D016DC012828D07D
:1017D000022842D004287DD10421104600F0CAF925
:1017E000002857D06079002874D066713846BDE86B
:1017F000F0410122510200F0C8B910287AD0202807
:1018000068D12021104600F0B5F900287ED0607A1A
:1018100000B166723846BDE8F0410122110300F0C4
:10182000B4B90121104600F0A5F948B1207900B102
:1018300026713846BDE8F0410122802100F0A5B9AB
:101840002079002846D1257102F08EFE3846BDE889
:10185000F0410022802100F098B90221104600F0EA
:1018600089F948B1E07900B1E6713846BDE8F04148
:101870000122110200F089B9E07900286AD1E571EE
:1018800002F0BEF93846BDE8F04100224FF4807105
:1018900000F07BB9607900285CD16571012002F00D
:1018A00063FE3846BDE8F04100224FF4007100F0BD
:1018B0006CB90821104600F05DF948B1207A00B1FA
:1018C00026723846BDE8F0410122910200F05DB970
:1018D000207A01E03EE00DE000283BD12572012096
:1018E00002F08EF93846BDE8F04100224FF48061E5
:1018F00000F04BB91021104600F03CF960B1A0791E
:10190000002827D0A6710122D10200E013E038465A
:10191000BDE8F04100F039B9A07900281AD1A571CD
:10192000022002F021FE3846BDE8F04100224FF4CB
:10193000006100F02AB9607A00280BD1657202209C
:1019400002F05EF93846BDE8F04100224FF48051C4
:1019500000F01BB9BDE8F081001001400018014003
:101960002001002010B504490A68024202D0086034
:10197000FFF722FF10BD0000140401402DE9F84FCD
:1019800000239C46DFF8E0810F2708F1040909F1E4
:10199000040A0AF1040B012202FA0CF60A6832402A
:1019A000B2427DD1DFF8C4E14C68A4EB0E0574456A
:1019B0002BD00DDC032C34D005DC34B3012C19D032
:1019C000022C2FD11BE0112C16D0122C2AD119E099
:1019D000B5F5881F19D006DCB5F5803F15D0B5F5F3
:1019E000801F1FD111E0B5F5001F0ED0B5F5041F03
:1019F00018D10AE0CB6815E0CB681B1D12E0CB685C
:101A000008330FE0CB680C330CE08B6823B1012B5B
:101A100004D00823466105E0042303E0082306619F
:101A200000E00023B2F5807F01D2054601E000F11D
:101A3000040502D24FEA8C0403E0ACF108044FEA3B
:101A400084042E6807FA04FE26EA0E0603FA04F45C
:101A500046EA04042C604C6814F0805F7CD0444C4F
:101A6000A56945F00105A561A46904F0010400948D
:101A70002CF0030404F1804404F58034A6684FEA96
:101A80008C754FEA157507FA05FE26EA0E0EA0F1D1
:101A90008046B6F5843620D0B6F580661FD000E0CB
:101AA0005AE0B6F580661CD0B6F580661BD0B6F558
:101AB00080661AD0B6F5806619D0062606FA05F5B6
:101AC00045EA0E05A5604C6814F4803F11D0D8F8A3
:101AD00000401443C8F8004010E00026EEE701265D
:101AE000ECE70226EAE70326E8E70426E6E7052610
:101AF000E4E7D8F800409443C8F800404C6814F478
:101B0000003F05D0D9F800401443C9F8004004E074
:101B1000D9F800409443C9F800404C6814F4801F81
:101B200005D0DAF800401443CAF8004004E0DAF8BF
:101B300000409443CAF800404C6814F4001F05D0DC
:101B4000DBF800402243CBF8002005E0DBF8004042
:101B500024EA0202CBF800200CF1010CBCF1100FBA
:101B6000FFF419AFBDE8F88F000401400000111028
:101B7000001002408068084201D001207047002018
:101B80007047C2685140C1607047002A01D00161AE
:101B90007047090401617047014800687047000000
:101BA0000000002070B50446002C1AD021684CF6C5
:101BB000CC400860216845F2555008602168606893
:101BC00048602168A0688860FFF7E6FF0546206846
:101BD000C06860B1FFF7E0FF401B302803D9032045
:101BE00070BD012070BD2068C0680028F2D1216856
:101BF0004AF6AA200860002070BD00684AF6AA21B3
:101C0000016000207047000002480168491C016023
:101C1000704700000000002010B50748016841F03F
:101C200010010160032000F09FF8052000F006F885
:101C300000F018F8002010BD0020024010B5044646
:101C400007484FF47A720068B0FBF2F000F004FD30
:101C500000222146501E00F053F8002010BD000065
:101C60006800002008B51E48816941F001018161CA
:101C7000806900F001000090032000F075F8002258
:101C800011466FF00B0000F03BF8002211466FF098
:101C90000A0000F035F8002211466FF0090000F04C
:101CA0002FF800221146501F00F02AF8002211469A
:101CB000101F00F025F800221146901E00F020F8B9
:101CC00005210022881F00F01BF80648416821F01A
:101CD000E0614160416841F00071416008BD000071
:101CE000001002400000014000F01F01012202FA32
:101CF00001F14009800000F1E020C0F800117047B8
:101D000010B4184B1B68C3F30223C3F1070CBCF1DA
:101D1000040F01D94FF0040C1C1D072C01D2002325
:101D200000E0DB1E012404FA0CFCACF1010C0CEA0F
:101D30000101994004FA03F35B1E1A401143002885
:101D400008DA00F00F0000F1E020090180F8141D0E
:101D500010BC704700F1E020090180F8001410BCAD
:101D6000704700000CED00E000F00700064A116823
:101D70004FF6FF03194041EA002040F0FD7040F0AB
:101D800080601060704700000CED00E010B586B078
:101D900001463CA0D0F808C043680268C068CDF88E
:101DA00010C00393029205903AA0006801900020B1
:101DB000394C042936D00EDC01293DD0022908D146
:101DC00000F0EEF96168C1F38131491C4900B0FBB4
:101DD000F1F006B010BD082929D01029F9D16168A9
:101DE000226812F0807FF4D002A8C1F38342805CA5
:101DF00011F4803F09D0616801AAC1F34041515CF0
:101E0000264AB2FBF1F1484301E0254948436168A5
:101E100011F4800FDDD123494000A1FB001006B072
:101E2000400810BD06B0BDE8104000F0C9B906B0CA
:101E3000BDE8104000F0C4B9216A01F44072B2F567
:101E4000807F06D111F0020F03D006B04FF400409E
:101E500010BDB2F5007F07D1626A12F0020F03D005
:101E600049F6404006B010BD4FF4407232EA01011D
:101E7000F8D1216811F4003FF4D006B04FF22440AD
:101E800010BD000002030405060708090A0B0C0D2B
:101E90000E0F1010010200000010024000127A0024
:101EA00000093D00ABAAAAAA2DE9F8430446DFF8D1
:101EB0001C81207810F0010F6CD00027D8F81C008E
:101EC00010F0805F0BD1D8F81C0040F08050C8F8AB
:101ED0001C00D8F81C0000F08050009001273C4DF9
:101EE000286810F4807F16D1286840F4807028603C
:101EF000FFF752FE0646286810F4807F0BD1FFF7EB
:101F00004BFE801B642802D90320BDE8F8832868B3
:101F100010F4807FF3D0D8F8200000F4407048B36C
:101F2000A18801F44071814224D0D8F8200020F427
:101F30004070284901220A6000220A60C8F8200087
:101F400010F0010F16D0FFF727FE0546D8F8200045
:101F500010F0020F0ED141F28836FFF71DFE401B34
:101F6000B04202D90320BDE8F883D8F8200010F071
:101F7000020FF2D0D8F82000616820F440700843C6
:101F8000C8F82000012F05D1D8F81C0020F080509F
:101F9000C8F81C00207810F0020F07D0D8F8040011
:101FA000A16820F440400843C8F80400207810F0ED
:101FB000100F07D0D8F80400616920F480000843AE
:101FC000C8F804000020BDE8F883000000100240BB
:101FD00000700040400442422DE9F04704460D469F
:101FE000DFF88081D8F8000000F00700A8420FD287
:101FF000D8F8000020F007002843C8F80000D8F8FF
:10200000000000F00700A84202D00120BDE8F087E0
:102010002078554F10F0020F05D07868A16820F0A5
:10202000F00008437860207810F0010F5FD06068FE
:10203000012806D002280BD0396811F0020F29D0F0
:102040000AE0396811F4003F06D10120BDE8F087AD
:10205000396811F0007F1AD0796821F00301084334
:102060007860FFF799FD0646606841F288390128DB
:1020700013D0022824D0786810F00C0F37D0FFF767
:102080008BFD801B48452ED90320BDE8F087012039
:10209000BDE8F0870120BDE8F087786800F00C000B
:1020A000042824D0FFF778FD801B484502D903207F
:1020B000BDE8F087786800F00C000428F2D116E043
:1020C000786800F00C00082811D0FFF765FD801B30
:1020D000484502D90320BDE8F087786800F00C007D
:1020E0000828F2D103E0786810F00C0FC7D1D8F8B7
:1020F000000000F00700A8420FD9D8F8000020F037
:1021000007002843C8F80000D8F8000000F00700D6
:10211000A84202D00120BDE8F087207810F0040F1B
:1021200005D07868E16820F4E060084378602078A2
:1021300010F0080F06D07868216920F4605040EA5A
:10214000C100786000F03CF87968084AC1F30311D7
:10215000515CC840064908600520FFF76FFD00206C
:10216000BDE8F087002002400010024078480008D7
:1021700068000020014800687047000068000020E7
:1021800000B5FFF7F7FF04494968044AC1F302218B
:10219000515CC84000BD00000010024088480008A3
:1021A00000B5FFF7E7FF04494968044AC1F3C221BB
:1021B000515CC84000BD0000001002408848000883
:1021C00085B015A0836802684168C06803930192D6
:1021D0000291049014A000680090144B59681448B0
:1021E00001F00C02042A11D0082A0FD101AAC1F370
:1021F000834C12F80C2011F4803F09D05968C1F3C8
:1022000040411DF80110B0FBF1F0504305B070479C
:10221000084805B050437047020304050607080943
:102220000A0B0C0D0E0F10100102000000100240EE
:1022300000127A0000093D002DE9F84F0446FA4DDE
:10224000207810F0010F68D0686800F00C000428B6
:1022500008D0686800F00C0008280DD1686810F4F8
:10226000803F09D0286810F4003F56D060680028ED
:1022700053D10120BDE8F88F6068B0F5803F15D0DC
:10228000C8B1B0F5A02F1FD0286820F48030286096
:10229000286820F480202860606858B3FFF77CFC31
:1022A0000646286810F4003F17D036E0286840F44E
:1022B00080302860F0E7286820F4803028602868A3
:1022C00020F480202860E7E7286840F48020286018
:1022D000286840F480302860DEE7FFF75DFC801B53
:1022E000642802D90320BDE8F88F286810F4003F65
:1022F000F3D012E0FFF750FC0646286810F4003FC8
:102300000BD0FFF749FC801B642802D90320BDE8ED
:10231000F88F286810F4003FF3D12078C34F10F0F5
:10232000020F4FF0010B4FF0000854D0686810F016
:102330000C0F14D0686800F00C00082803D16868FE
:1023400010F4803F0BD0206978B3C7F800B0FFF7D6
:1023500023FC0646286810F0020F12D01DE0286802
:1023600010F0020F05D02069012802D00120BDE83D
:10237000F88F2868616920F0F80040EAC100286001
:1023800029E0FFF709FC801B022802D90320BDE8E1
:10239000F88F286810F0020FF3D02868616920F0E8
:1023A000F80040EAC100286015E0FFE7C7F80080A8
:1023B000FFF7F2FB0646286810F0020F0BD0FFF77C
:1023C000EBFB801B022802D90320BDE8F88F2868A8
:1023D00010F0020FF3D1207810F0080F30D094489D
:1023E000A169C1B1C0F800B0FFF7D6FB0646686A24
:1023F00010F0020F0BD1FFF7CFFB801B022802D990
:102400000320BDE8F88F686A10F0020FF3D00120B6
:1024100000F0FCFF14E0C0F80080FFF7BDFB0646AB
:10242000686A10F0020F0BD0FFF7B6FB801B022882
:1024300002D90320BDE8F88F686A10F0020FF3D1CB
:10244000207810F0040F6FD00026E86910F0805F4C
:1024500008D1E86940F08050E861E86900F08050F8
:1024600000900126DFF8CCA1DAF8000010F4807F9C
:102470001BD1DAF8000040F48070CAF80000FFF7C2
:102480008BFB8146DAF8000010F4807F0DD1FFF756
:1024900083FBA0EB0900642802D90320BDE8F88F74
:1024A000DAF8000010F4807FF1D0E068012816D03F
:1024B000D0B1052821D0286A20F001002862286ABE
:1024C00020F004002862E06841F2883A68B3FFF720
:1024D00063FB8146286A10F0020F17D03AE0286AA1
:1024E00040F001002862EEE7286A20F0010028622F
:1024F000286A20F004002862E5E7286A40F004001A
:102500002862286A40F001002862DCE7FFF744FBFC
:10251000A0EB0900504502D90320BDE8F88F286AD6
:1025200010F0020FF2D015E01AE0FFE7FFF734FBDE
:102530008146286A10F0020F0CD0FFF72DFBA0EBAC
:102540000900504502D90320BDE8F88F286A10F031
:10255000020FF2D1012E03D1E86920F08050E8612A
:10256000E069E8B3696801F00C01082958D0022835
:1025700010D0C7F86080FFF70FFB0446286810F002
:10258000007F4AD0FFF708FB001B022841D9032037
:10259000BDE8F88FC7F86080FFF7FEFA06462868A6
:1025A00010F0007F0BD0FFF7F7FA801B022802D94A
:1025B0000320BDE8F88F286810F0007FF3D1206A6F
:1025C000B0F5803F05D16868A16820F40030084369
:1025D0006860616A206A0843696821F4741100E048
:1025E0001BE008436860C7F860B0FFF7D5FA0446FF
:1025F000286810F0007F10D1FFF7CEFA001B0228E8
:1026000002D90320BDE8F88F286810F0007FF3D0CE
:1026100003E0286810F0007FB4D10020BDE8F88FF7
:102620000120BDE8F88F0000001002400000424287
:1026300080044242007000404FF0E021042804D0A2
:10264000086920F0040008617047086940F0040040
:102650000861704770470000401EB0F1807F01D3D1
:10266000012070474FF0E0214861044AF0201070CB
:1026700000208861072008610020704723ED00E0FA
:1026800010B5FFF7E7FF10BD7047704710B490F822
:102690003C20012A2AD0012380F83C30022280F815
:1026A0003D200268D2F804C02CF0700CC2F804C0BF
:1026B0000268D2F804C00C684CEA040CC2F804C0EA
:1026C0000268D2F808C02CF0800CC2F808C002687A
:1026D000D2F808C049684CEA0101916080F83D30A9
:1026E000002180F83C1010BC0020704710BC022074
:1026F000704710B50446002C03D094F83D0010B18B
:1027000007E0012010BD002084F83C00204600F0C6
:102710000DF8022084F83D00211D206800F01AFF0A
:10272000012084F83D00002010BD000008B50068BD
:102730002049A0F18042B2F5963216D0B0F1804F18
:1027400025D012F5943234D1C86940F00200C86136
:10275000C86900F00200009001211D20FFF7D0FAA7
:10276000BDE808401D20FFF7BFBA886940F400604B
:102770008861886900F4006000900022012119201E
:10278000FFF7BEFABDE808401920FFF7ADBAC869E7
:1027900040F00100C861C86900F00100009000220B
:1027A00001211C20FFF7ACFABDE808401C20FFF710
:1027B0009BBA08BD001002400168CA6842F00102DD
:1027C000CA600068016841F00101016000207047A3
:1027D0000168CA6822F00102CA600068016A41F219
:1027E0001112114207D1016A9210114203D10168FE
:1027F00021F0010101600020704770B5044694F893
:102800003C00012818D0012584F83C50022084F8AF
:102810003D002068826822F0770222F47F428260C5
:10282000086850283AD00EDC20285FD006DC00284B
:1028300052D0102863D154E0022070BD30285AD005
:1028400040285CD13EE0602832D070280CD0B0F532
:10285000805F03D0B0F5005F51D113E0206881683C
:1028600021F0070181604AE0CB684A6889682068E6
:1028700000F0B8FE2068816821F0770141F077010F
:1028800081603CE0CB684A688968206800F0AAFE55
:102890002068816841F48041816030E0CA684968FD
:1028A000206800F0B2FE5021206800F0A6FE26E06D
:1028B000CA684968206800F0BBFE6021206800F00B
:1028C0009CFE1CE0CA684968206800F09EFE40211A
:1028D000206800F092FE12E00021206800F08DFEDA
:1028E0000DE01021206800F088FE08E0202120681B
:1028F00000F083FE03E03021206800F07EFE84F8C3
:102900003D50002084F83C0070BD704770B504460F
:10291000206801694FF0000511F0020F17D0C1685F
:1029200011F0020F13D0E91E016101202077206809
:10293000806910F0030F03D02046FFF7E6FF05E0A3
:10294000204600F09DF8204600F09BF8257720688F
:10295000016911F0040F18D0C16811F0040F14D0F0
:102960006FF004010161022020772068806910F473
:10297000407F03D02046FFF7C8FF05E0204600F067
:102980007FF8204600F07DF825772068016911F076
:10299000080F18D0C16811F0080F14D06FF00801AB
:1029A0000161042020772068C06910F0030F03D074
:1029B0002046FFF7AAFF05E0204600F061F8204618
:1029C00000F05FF825772068016911F0100F18D02A
:1029D000C16811F0100F14D06FF0100101610820D0
:1029E00020772068C06910F4407F03D02046FFF7AD
:1029F0008CFF05E0204600F043F8204600F041F847
:102A000025772068016911F0010F09D0C16811F024
:102A1000010F05D06FF001010161204600F032F88E
:102A20002068016911F0800F09D0C16811F0800F92
:102A300005D06FF0800101612046FFF725FE206878
:102A4000016911F0400F09D0C16811F0400F05D0A5
:102A50006FF040010161204600F074F820680169C0
:102A600011F0200F0BD0C16811F0200F07D06FF0CC
:102A7000200101612046BDE87040FFF706BE70BD31
:102A8000704770472DE9F04105462B68A3F180405F
:102A9000B0F596301FD0B3F1804F1FD010F59430B1
:102AA00017D10220012181F310882449C0EB0012C4
:102AB00001EB82046168002282F31088A268204E34
:102AC0004FF4433C91420CD140F2E7307060D86241
:102AD000E860BDE8F0814FF00000E3E74FF001004F
:102AE000E0E706DAA2EB0107BCFBF7FCC6F804C07E
:102AF00005E0A1EB0207BCFBF7FCC6F804C0D6F862
:102B000004C0BCF1250F01D24FF0250CC6F804C05B
:102B1000C3F82CC0C5F80CC0012383F31088914280
:102B200001DB012100E0002101F056FC616808444E
:102B30006060002080F31088BDE8F0816C00002008
:102B40000C0000207047000082B00168A1F18042B3
:102B5000B2F59C321AD1C16B0F480129006806D02A
:102B6000022908D004290AD008290FD10BE00168F6
:102B7000406801900AE001684068019006E0016841
:102B80004068019002E00168406801900122034919
:102B9000014802B000F006B98C02002011030020A9
:102BA00010B5044622681068D168526900F00F031E
:102BB000002B0AD110F0200F07D011F0200F04D005
:102BC0002046BDE8104000F068BD002B6BD002F03D
:102BD000010301F4907C53EA0C0364D010F0010F60
:102BE00006D011F4807F03D0E36B43F00103E3636D
:102BF00010F0040F06D012F0010F03D0E36B43F086
:102C00000203E36310F0020F06D012F0010F03D0AD
:102C1000E36B43F00403E36310F0080F06D012F0F7
:102C2000010F03D0E26B42F00802E263E26B002A7C
:102C30002ED010F0200F05D011F0200F02D020462A
:102C400000F02BFD20684069C0F38010E16B01F0BB
:102C50000801084321D0204600F004FD20684169A6
:102C600011F0400F15D0416921F040014161606BC6
:102C700058B118494163606BFEF7E4FA002807D0A9
:102C8000606B416BBDE8104008472046FFF75CFFD2
:102C900010BD2046FFF758FF10BD2046FFF754FF38
:102CA0000020E06310BD10F0800F07D011F0800FFE
:102CB00004D02046BDE8104000F018BE10F0400FD0
:102CC000F0D011F0400FEDD02046BDE8104000F0EC
:102CD000D7BC00005536000870B50446002C04D05F
:102CE00094F83900002510B106E0012070BD84F889
:102CF0003850204600F022F8242084F8390020685B
:102D0000C16821F40051C160204600F015FD206823
:102D1000016921F4904101612068416921F02A0193
:102D200041612068C16841F40051C160E563202021
:102D300084F8390084F83A00002070BD10B586B0E0
:102D40000068A0F18041B1F59C3125D1134881691B
:102D500041F480418161806900F4804001904FF42A
:102D60000070029002200390032005900C4C02A9F1
:102D70002046FEF703FE21150291002103910491E4
:102D800002A92046FEF7FAFD002202212520FEF7C7
:102D9000B7FF2520FEF7A8FF06B010BD00100240C7
:102DA0000008014090F83A30202B01D002207047F3
:102DB000F9B1F2B190F83830012B1CD081628285D4
:102DC000C2850021C163222280F83A2080F83810A1
:102DD0000168CA6842F48072CA6001684A6942F0B8
:102DE00001024A610068C16841F02001C160002011
:102DF0007047012070470220704700002149887DFC
:102E0000002802D14878FF280FD0887D00220128B1
:102E100013D0887D082829D34878EE281CD08A75DD
:102E20000122491C1848FFF7BDBF887D401C8875EA
:102E30000122491C1448FFF7B5BF4878C22807D0C3
:102E4000FF2800D08A750122491C0F48FFF7AABF4E
:102E5000887D401C8875F6E7012008708A7580F32C
:102E600010880A4B187082F31088D9E748788A7D59
:102E7000074BD054887D401C88750122491C0248AC
:102E8000FFF790BF100300208C02002014000020E8
:102E9000120300207047000070B584B034483349F5
:102EA0000160891581600124C460002646614FF4E9
:102EB0006021C161466006250561FDF7EFFC20B188
:102EC00040F257312BA000F051FD019602940720EB
:102ED000039001A92648FDF7BDFB20B140F2613106
:102EE00024A000F043FD01940220029001A9204893
:102EF000FDF7B0FB20B140F26A311EA000F036FDB4
:102F000003200190029001A91948FDF7A3FB20B10D
:102F100040F2733117A000F029FD042001900290C7
:102F200001A91348FDF796FB20B14FF45F7111A082
:102F300000F01CFD05200190029001A90C48FDF74E
:102F400089FB20B140F285310AA000F00FFD019508
:102F5000029501A90648FDF77DFB002804D040F248
:102F60008E3104A000F002FD04B070BD00240140C9
:102F70004C0100202E2E2F5372632F6D61696E2E2F
:102F80006300000010B510480E4901600C2141603B
:102F900000218160C1604FF4802202614FF4A002E1
:102FA00042618161C161016241628162C162FDF77A
:102FB000AFFF002804D040F2A53104A000F0D6FCF9
:102FC00010BD0000006400407C0100202E2E2F5315
:102FD00072632F6D61696E2E6300000008B50948A9
:102FE000416941F001014161406900F00100009038
:102FF000002204210B20FEF783FEBDE808400B20D1
:10300000FEF772BE001002402DE9F04F87B07748FE
:10301000816941F040018161816901F040010191C4
:10302000816941F010018161816901F01001019114
:10303000816941F004018161816901F0040101911C
:10304000816941F008018161816901F00801019104
:10305000816941F020018161806900F020000190C8
:10306000634F00227A213846FEF78FFDDFF8848116
:1030700000224FF4F8414046FEF787FDDFF87891D3
:10308000002248F204014846FEF77FFDDFF86CA1FC
:10309000002241F203115046FEF777FD01224FF462
:1030A000FC513846FEF771FDDFF854B1002240F6BE
:1030B000FF415846FEF769FD012211024846FEF71E
:1030C00064FD01224FF43E715046FEF75EFD41F66D
:1030D000F8700290012503950326059602A938464B
:1030E000FEF74CFC4FF4F84002900395059602A9B8
:1030F0004046FEF743FC3F200290424803900024E4
:10310000049402A94046FEF739FC48F204100290EC
:103110000395059602A94846FEF730FC41F2FB30C4
:1031200002900395059602A95046FEF727FC680316
:1031300002900394049402A95046FEF71FFC40F647
:10314000FF4002900395059602A95846FEF716FC2B
:103150004FF4704002900394049402A95846FEF77D
:103160000DFC4FF4707002900394049402A9404641
:10317000FEF704FC022102910395059102A938464D
:10318000FEF7FCFB002211460620FEF7B9FD0620E3
:10319000FEF7AAFD002211460720FEF7B1FD072029
:1031A000FEF7A2FD002211460820FEF7A9FD082027
:1031B000FEF79AFD002211460920FEF7A1FD092025
:1031C000FEF792FD002211460A20FEF799FD0A2023
:1031D000FEF78AFD002211461720FEF791FD172009
:1031E000FEF782FD07B0BDE8F08F0000001002403E
:1031F000001801400010014000080140000C01408F
:10320000001401400000311010B50A48084901605F
:103210000021416040F6FF718160FEF7C3FC002889
:1032200004D040F2B33104A000F0A0FB10BD0000B8
:1032300000300040C00100202E2E2F5372632F6DEE
:1032400061696E2E6300000010B586B019481849F8
:103250000160472141600024846040F2E731C16091
:10326000046144618461FFF744FA20B14FF4727144
:1032700011A000F07BFB4FF48050029002A90D4892
:10328000FFF7BBFA20B140F2CE310BA000F06EFB8D
:103290000094019469460748FFF7F8F9002804D024
:1032A00040F2D53104A000F061FB06B010BD000073
:1032B000002C0140CC0100202E2E2F5372632F6D65
:1032C00061696E2E6300000010B586B018484FF09B
:1032D00080410160472141600024846040F2E73171
:1032E000C16004618461FFF704FA20B140F2E93162
:1032F00010A000F03BFB4FF48050029002A90C4854
:10330000FFF77BFA20B140F2EF310AA000F02EFB6C
:103310000094019469460648FFF7B8F9002804D0E4
:1033200040F2F63103A000F021FB06B010BD000012
:103330000C0200202E2E2F5372632F6D61696E2EAA
:103340006300000010B586B0184817490160472196
:1033500041600024846040F2E731C160046184610F
:10336000FFF7C7F920B140F20A4111A000F0FEFAC0
:103370004FF48050029002A90C48FFF73EFA20B1AA
:103380004FF482610AA000F0F1FA009401946946BA
:103390000648FFF77BF9002804D040F2174104A04B
:1033A00000F0E4FA06B010BD000400404C0200201A
:1033B0002E2E2F5372632F6D61696E2E63000000F5
:1033C00010B50D480B4901604FF4165141600021C2
:1033D0008160C16001610C2242618161C161FFF7BE
:1033E0007BFC002804D040F22A4104A000F0BEFA81
:1033F00010BD0000003801408C0200202E2E2F53FB
:1034000072632F6D61696E2E6300000081B0074901
:103410004FF4FA520968B1FBF2F14843009000BF43
:103420000098411E0091FAD201B070476800002058
:1034300010B5FEF7E9FBBDE81040FFF721B9000029
:1034400030B597B009200C904FF480310D910025D4
:103450000E950120109012900224139414914FF4B1
:10346000E01015900CA8FEF7E7FE20B140F22231E3
:1034700019A000F07BFA0F200790089409954FF4EB
:1034800080600A900B90022107A8FEF7A5FD20B1ED
:103490004FF44C7110A000F069FA00944FF44040D2
:1034A00002906846FEF700FD20B140F237310AA0D5
:1034B00000F05CFAFEF75EFE4FF47A71B0FBF1F0BB
:1034C000FFF7CAF80420FFF7B7F805210022881F8C
:1034D000FEF716FC17B030BD2E2E2F5372632F6DE2
:1034E00061696E2E630000000E48016841F0010121
:1034F000016041680C4A11404160016821F41021CB
:1035000021F080710160016821F48021016041682F
:1035100021F4FE0141604FF41F0181600349C003A3
:1035200008607047001002400000FFF808ED00E05E
:103530000148FFF7EBB90000CC0100200148FFF77C
:10354000E5B900000C0200200148FFF7DFB90000D8
:103550004C020020F0B402681D4B1E4C1E4D1F4E45
:10356000DFF87CC098420AD0604508D0B0F1804FA7
:1035700005D0A04203D0A84201D0B04203D122F02E
:1035800070024F683A4398420AD0604508D0B0F1C3
:10359000804F05D0A04203D0A84201D0B04203D151
:1035A00022F44072CC68224322F080024C6922430C
:1035B00002608A68C2620A688262984201D06045ED
:1035C00001D10969016301214161F0BC704700002C
:1035D000002C01400004004000080040000C0040A6
:1035E00000340140D0F808C02CF47F4C42EA03229A
:1035F000114341EA0C0181607047826822F0700239
:10360000114341F0070181607047036AD0F820C080
:103610002CF0010CC0F820C0D0F818C02CF0F00C31
:103620004CEA021223F00A031943826101627047D7
:10363000036A23F010030362D0F818C0036A2CF465
:10364000704C4CEA023223F0A00343EA011182617C
:103650000162704710B5406A0021C185C184FFF73F
:1036600073FA10BD0168CA6822F49072CA600168DA
:103670004A6922F001024A61202180F83A1070471D
:1036800010B50168CA6822F04002CA60202180F8A3
:103690003910FFF7FFFB002010BD10B590F83A106D
:1036A000222901D0022010BD8168B1F5805F11D0C0
:1036B000016919B30168496801F07F02816A4B1CF6
:1036C00083620A70C18D491E0904090CC1851CD092
:1036D000002010BD816A02693AB102685268D2B214
:1036E0000A80816A491C8162ECE702685268C2F371
:1036F00008020A80816A891C8162E3E701684A68DE
:10370000816A4B1C83620A70DCE70168CA6822F098
:103710002002CA600168CA6822F48072CA60016827
:103720004A6922F001024A61202180F83A10FFF72D
:1037300065FB002010BD00002DE9F0410446206823
:103740000169E26821F44051114301612169A068D7
:103750000143606901432068C26822F4037222F4C5
:10376000A0521143C16020684169A26921F44071EF
:103770001143416120685C4D3226A0F18041B1F5D2
:103780009C3158D0FEF7FCFC00EBC00101EB0010AF
:1037900061688900B0FBF1F7FEF7F2FC00EBC001B5
:1037A00001EB001061688900B0FBF1F0A5FB00108F
:1037B00040096FF01801484307EB800006EB00104A
:1037C000A5FB0010400900F0F007FEF7D9FC00EB64
:1037D000C00101EB001061688900B0FBF1F0A5FBAE
:1037E0000010400907EB0017FEF7CAFC00EBC00110
:1037F00001EB001061688900B0FBF1F8FEF7C0FC36
:1038000000EBC00101EB001061688900B0FBF1F032
:10381000A5FB001040096FF01801484308EB800039
:1038200006EB0010A5FB00102168C0F343103844DC
:103830008860BDE8F081FEF7B3FC00EBC00101EB4E
:10384000001061688900B0FBF1F7FEF7A9FC00EBFE
:10385000C00101EB001061688900B0FBF1F0A5FB2D
:10386000001040096FF01801484307EB800006EB99
:103870000010A5FB0010400900F0F007FEF790FCD7
:1038800000EBC00101EB001061688900B0FBF1F0B2
:10389000A5FB0010400907EB0017FEF781FC00EBC9
:1038A000C00101EB001061688900B0FBF1F8FEF780
:1038B00077FC00EBC00101EB001061688900B0FBF0
:1038C000F1F0A5FB001040096FF01801484308EB28
:1038D000800006EB0010A5FB00102168C0F3431028
:1038E00038448860BDE8F0811F85EB5190F83910AD
:1038F000212901D0022070478168B1F5805F0CD08A
:10390000016A4A1C0262026809785160C18C491E32
:103910000904090CC18410D019E0016A0268098801
:10392000C1F308015160016919B1016A491C0162C2
:10393000ECE7016A891C0162E8E70168CA6822F0C5
:103940008002CA600068C16841F04001C160002087
:10395000704700000148FFF723B900008C020020E7
:103960000148FDF7D3B900007C010020FEE702E02A
:1039700008C8121F08C1002AFAD1704770470020FA
:1039800001E001C1121F002AFBD170470848012243
:10399000027008480849406B43690B6080694860C1
:1039A00082F3108805490020087080F31088704762
:1039B000280000207C010020780300201400002053
:1039C0004FF480510148FEF7DCB8000000180140B8
:1039D0007047704770470000F0B40020DFF83CC02B
:1039E0000F4B0CF110040022A4F1080504F110069D
:1039F00003EB00113CF810700F808A700A8154F8B4
:103A000020704F6035F810704F8156F82070CF60ED
:103A1000401CC0B20428EBD3F0BC70473800002033
:103A2000E80300204FF480610148FEF7AAB80000C7
:103A300000180140704770477047000000B58BB018
:103A40000C4B0B4A5A630E22099201220892002362
:103A5000049349010091019302910393069205900A
:103A6000079269460348FDF7C7F80BB000BD000098
:103A7000B40300207C01002070B58EB01E490B6895
:103A80004A688968019302920391002101AB01F514
:103A9000807243F82120491C89B20329F7D3099089
:103AA00000240A9401250B95019840010490059487
:103AB00040F2FF714FF0030C0020019AD64333F817
:103AC0002020724092B21140401C80B26045F6D373
:103AD000480106900220079008940C950E200D9046
:103AE00004A90648FDF788F8002803D04D2104A05A
:103AF000FFF73CFF0EB070BD6C4800087C01002051
:103B00002E2E5C5372635C757365725F63616E2EFB
:103B10006300000070B50025084E06EBC504E07890
:103B200018B9A078E07060688047E07808B1401E5E
:103B3000E070681CC5B2022DEFD370BD28040020D0
:103B40007047000070B400200B4D0C4AEB1E8446F9
:103B5000DC1D35F8101022F8301002EBC0011E5C9D
:103B60008E7081F803C054F820604E60401CC0B2D3
:103B70000228EED370BC70472C00002028040020DF
:103B80007047000013481249016306220A60026B65
:103B900000219160026BD160026B08211161026B00
:103BA00043211175026B41215175026B4E219175B4
:103BB000026B2021D175026B49211176026B5321D2
:103BC0005176026B4F219176006B4B21C176704785
:103BD000980300207C010020012080F31088034915
:103BE0000020087080F31088704700002800002033
:103BF00000230146491EFDD25B1C0A2BF9DB7047EE
:103C000070B5C0EB0011144841F2593500EB810446
:103C10006068A84205DAA18D0022A06AFDF7B5FF11
:103C200004E0A18C0022206AFDF7AFFF0B4800687A
:103C3000002807D16068A84205DAA06B6FF0260162
:103C40004843606070BDA06BFF30C0EBC00101EB6A
:103C50004010606070BD00006C0000200400002077
:103C6000C0EB0011054800EB8100016A828C836A79
:103C70000362838D83848162828570476C0000209B
:103C80002DE9F04F87B0002204920592069201922E
:103C9000029203920020AE49012303FA00FC0C6853
:103CA0004CEA040CC1F800C0401CC0B20328F4D395
:103CB000086800287ED0DFF89C92DFF89CA2DFF82D
:103CC0009CB20DF1040800250020A14901220B68D7
:103CD00002FA00FC1CEA030F03D005F1010C0CF002
:103CE000FF05401CC0B20328F2D30024012000FAD3
:103CF00004F797480068074200F01981012080F31B
:103D0000108897482044C679002080F3108858F81E
:103D10002400052880F00881DFE800F003386DA852
:103D2000D7005CB900224FF480415046FDF72DFFCB
:103D300000224FF400515046FDF727FF022C09D115
:103D4000002220215846FDF720FF0022102158466E
:103D5000FDF71BFF36B158F82400401C48F824003A
:103D600000F0E5B8C4EB041009EB80000122818D5E
:103D7000806AFDF70AFF4FF41660B0FBF5F20123ED
:103D80001946204600F074FB00F0D1B854B9012266
:103D900091035046FDF7F9FE00224FF400515046C2
:103DA000FDF7F3FE022C0BD1012220215846FDF72E
:103DB000ECFE00E0C8E0002210215846FDF7E5FEC9
:103DC000012E05D058F82400401C48F82400AEE02D
:103DD000C4EB041009EB80000122818C006AFDF71E
:103DE000D4FE4FF41660B0FBF5F20123002120460B
:103DF00000F03EFB9BE054B900224FF48041504656
:103E0000FDF7C3FE012251035046FDF7BEFE022C12
:103E100009D1002220215846FDF7B7FE01221021CA
:103E20005846FDF7B2FE76B1C4EB041009EB8000F2
:103E30000122818C006AFDF7A8FE58F82400401C7E
:103E400048F8240073E0C4EB041009EB8000012261
:103E5000818D806AFDF799FE4FF41660B0FBF5F294
:103E600001231946204600F003FB60E04CB9012213
:103E700091035046FDF789FE012251035046FDF79C
:103E800084FE022C09D1012220215846FDF77DFE37
:103E9000012210215846FDF778FEC4EB041009EB0F
:103EA0008000806B60B1C0EBC00101EB401104A841
:103EB00040F8241058F82400401C48F8240036E04C
:103EC00023480168B943016031E04CB901229103F4
:103ED0005046FDF75AFE012251035046FDF755FEAC
:103EE000022C09D1012220215846FDF74EFE012265
:103EF00010215846FDF749FE04AE56F82400B0B133
:103F00004FF41660B0FBF5F201230021204600F0CB
:103F1000AFFA56F82400401E46F8240038B90C4881
:103F20000168B943016002E0002048F82400601CE9
:103F3000C4B2032CFFF4DAAE0A48FDF75EFE044873
:103F4000006800287FF4BFAE07B0BDE8F08F000026
:103F5000040000206C000020001001400018014007
:103F600020010020C001002070B50024084DC4EBE2
:103F7000041005EB80004168002904DB818D806A14
:103F80000122FDF702FE601CC4B2032CEFD370BD0A
:103F90006C00002070B50024094D42F2D966C4EBD4
:103FA000041005EB80004168B14204DC818C006A9A
:103FB0000122FDF7EAFD601CC4B2032CEFD370BDF3
:103FC0006C0000200D4A052808D2DFE800F0030845
:103FD00013100D00106808605068486070479068C2
:103FE0000860D06848607047507C08707047907CCB
:103FF00008707047107C087070470000780300203C
:10400000012080F3108803480078002181F3108894
:10401000704700002800002082B0FDF7FDFDFFF78B
:104020000FFAFEF7F1FFFEF7D9FFFEF735FFFFF7B6
:104030000BF9FFF749F9FFF785F9FFF7C1F9FFF72A
:10404000E3F8FEF79FFFDFF868A3DA4F00260AF1D6
:10405000B4044FF0010BB421D548FCF78CF826705E
:104060006670A670E670DFF85083C8F8046000F050
:10407000B3FA00F03DFB00F079FA00F0A5FB00F088
:10408000D3FB00F083FA00F051FA0125DFF82C830E
:1040900000F020FACA48FDF7B0FD4FF40051404649
:1040A000FDF768FD00284BD00021012080F3108827
:1040B00060780844A070002080F31088012080F30D
:1040C000108897F80090002080F31088012080F37A
:1040D0001088FFF749FF002080F31088012080F34B
:1040E0001088FFF757FF002080F31088012080F32D
:1040F0001088FFF785FF0146002080F3108859EAF9
:10410000010000F01481012080F310883E7086F3D6
:10411000108880F31088FFF75FFD86F31088A64BA8
:104120005868401CA74981FB00218A10A2EBE1716D
:10413000494201EB810100EB4100586010B10AE0F7
:104140000121B2E702214046FDF71BFD4FF48051EB
:104150004046FDF716FD9C48007890BB00960196FE
:10416000012080F3108869460020FFF72BFF86F3BB
:104170001088012080F310889DF80200B87186F342
:104180001088012080F310889DF80100787186F373
:104190001088012080F310889DF80000387186F3A4
:1041A0001088012080F310889DF80400F87186F3D0
:1041B0001088012080F310889DF80500787286F33E
:1041C0001088A07878B3012080F31088F879E07027
:1041D000002080F31088012080F31088B879C0EBAC
:1041E000C00101EB4010CAF80800002080F31088DD
:1041F000012080F310887879C0EBC00101EB4010FA
:10420000CAF84400002080F31088012080F3108851
:104210003879C0EBC00101EB4010CAF880000020E3
:1042200080F3108838E0FFE7012080F31088DAF887
:104230003400C0EBC00101EB4010CAF808000020B8
:1042400080F31088012080F31088DAF87000C0EB4A
:10425000C00101EB4010CAF84400002080F3108830
:10426000012080F31088DAF8AC00C0EBC00101EB4C
:104270004010CAF88000002080F31088012080F3ED
:104280001088F879E070002080F31088012080F316
:104290001088E67086F310882670DFF830914FF4AE
:1042A00080514846FDF766FC10B92078401C20700C
:1042B0004FF400514846FDF75DFC10B92078801C92
:1042C00020704FF480414846FDF754FC10B9207827
:1042D000001D20704FF400414846FDF74BFC10B91B
:1042E000207808302070DFF8E89040214846FDF73C
:1042F00041FC10B920780A30207080214846FDF733
:1043000039FC10B92078143020704FF48071484681
:10431000FDF730FC10B92078283020704FF4007180
:104320004846FDF727FC10B9207850302070E0781F
:104330004FF400712BEA90024046FDF726FCE0782E
:1043400080212BEAD0024046FDF71FFCE078402197
:104350002BEA10124046FDF718FCE07820212BEAEA
:1043600050124046FDF711FCE07810212BEA901224
:104370004046FDF70AFCE07808212BEAD0124046BF
:10438000FDF703FCE07810F0010F07D000F0F8F81B
:1043900000F038FA00F060FA002504E00122791CF0
:1043A0000C48FEF7FFFC002D7FF472AE53E60000D0
:1043B0006C0000201003002004000020000C0140CD
:1043C000C0010020676666661400002000140140EA
:1043D000001001408C0200202DE9F04105460E46F8
:1043E0002148C5EB051100EB8104277B3246DFF83D
:1043F0007C8018F80500002807D00026012823D06B
:1044000008F805600020BDE8F08194F8300001282C
:1044100001D156B10022A18A2069FDF7B6FBB7424F
:1044200005D026730020BDE8F0810122F3E7A18BBF
:104430000022A069FDF7A9FB18F80500401C08F848
:1044400005000020BDE8F081A18B0122A069FDF7E5
:104450009CFB08F805601FB14FF0FF30BDE8F0810C
:104460000120BDE8F08100006C0000200C0000205D
:1044700070B51646C0EB0012154800EB820494F8A4
:104480003000012801D101B30021A08A0A46236926
:1044900001461846FDF779FB3046FFF7A9FB0025DA
:1044A000A18B0022A069FDF770FB3046FFF7A0FB4F
:1044B000A18B0122A069FDF768FB3046FFF798FB4E
:1044C000681CC5B2032DEBD370BD0121DDE70000F0
:1044D0006C0000202DE9F0410025134E002706EB6B
:1044E0000514E06868B1FDF757FB2168401AE168E0
:1044F000884212D3FDF750FB2060E7606068804778
:104500000BE0FDF749FB2168401AA168884204D3FB
:10451000FDF742FB206060688047681CC5B2002D33
:10452000DDD0BDE8F08100001800002070B5002447
:10453000074DFDF731FB05EB04110860601CC4B2A8
:10454000002CF6D0FFF7FEFABDE87040FFF744BA42
:10455000180000200348016841F002010160FFF7E4
:10456000D9BA0000146400407047000019220249C3
:104570000248FCF781BA0000280300204C0100200B
:104580000148FCF711BB00004C01002010B5FFF7FB
:10459000F9FA4FF400710020FFF750FA0120FFF7FD
:1045A0006BFA0A48016841F04001016000210848A7
:1045B000FCF79AFD07480021016041608160C160FD
:1045C000016141618161C16110BD00000064004072
:1045D0007C0100207803002070B53E4C012251027E
:1045E0002046FDF7D2FA012280212046FDF7CDFAC0
:1045F000012240212046FDF7C8FA01222021204651
:10460000FDF7C3FA012210212046FDF7BEFA012270
:1046100008212046FDF7B9FA2F4C0022022120463E
:10462000FDF7B3FA012240212046FDF7AEFA2B4CEC
:10463000012291022046FDF7A8FA0122D10220466C
:10464000FDF7A3FA264D012211022846FDF79DFA37
:10465000012240212046FDF798FA012280212046C0
:10466000FDF793FA012210212046FDF78EFA012270
:1046700020212046FDF789FA012204212046FDF77A
:1046800084FA012208212046FDF77FFA01229102D7
:104690001448FDF77AFA0122D1032846FDF775FA8E
:1046A000012202212046FDF770FA32210E48FBF765
:1046B00062FD0D480021C0F83210C0F83610418765
:1046C0000A48FBF74BFFBDE870401922064907482E
:1046D000FCF7D2B9000C0140001801400014014061
:1046E0000008014000100140280300204C01002078
:1046F00070B5314C2F4820610122A2822F49A1615F
:104700004FF0040CA4F81CC020624021A184A062D8
:104710008021A1852A4BE3648114A4F85010294913
:104720006165A4F85820E0651022A4F86020606656
:104730002022A4F86820C4F88830C214A4F88C2081
:10474000C4F890108115A4F89410C4F89800A4F847
:104750009CC0C4F8A0000820A4F8A400002084F89D
:10476000300084F86C0084F8A80060632067C4F807
:10477000AC000520A0636067C4F8B0000025C5EB5D
:10478000051004F8205004EB8001486BC0EBC00218
:1047900002EB4010886091F83000012802D12846D1
:1047A000FFF75EFA681CC5B2032DE8D3BDE8704080
:1047B000FFF766BA001401406C00002000080140B9
:1047C00000100140000C014010B50B4840F2E734E6
:1047D0000168CC62C460FDF7EFFF08480168CC6255
:1047E000C460FDF7E9FF06480168CC62C460BDE81B
:1047F0001040FDF7E1BF0000CC0100200C020020BA
:104800004C02002010B50548FDF7E2FF0448FDF713
:10481000DFFFBDE810400348FDF7DABFCC01002000
:104820000C0200204C020020094800210160416078
:104830008160C16001618182817506490968CA6829
:1048400042F40052CA600122411C0248FEF7AABA93
:10485000100300208C02002003480068C16821F486
:104860000051C160704700008C0200200001000070
:104870000101000002010000000000000000000033
:1048800001020304060708090000000001020304F6
:10489000B0480008000000206C0000006E390008DD
:1048A0001C4900086C000020CC0700007E3900087D
:1048B00000000000000000000000000000000000F8
:1048C000E70300000000000000000000554500085C
:1048D0000A000000E803000000320A0000040000A3
:1048E000413B0008813B0008000101010201000278
:1048F000190019001900E803D3390008373A0008F5
:10490000253A0008C1390008D5390008393A0008AD
:0C491000353A0008D139000800A24A0422
:0400000508000131BD
:00000001FF
