:020000040800F2
:10000000C8060020450100084D0100084F01000806
:1000100051010008530100085501000800000000CC
:100020000000000000000000000000005701000870
:1000300059010008000000005B010008752A000853
:100040005F0100085F0100085F0100085F01000810
:100050005F0100085F0100083D030008430300083A
:10006000490300084F03000855030008F90200087F
:100070005F0100085F0100085F0100085F010008E0
:100080005F0100085F0100085F0100085F010008D0
:100090005F0100085F0100085F0100085B030008C2
:1000A0005F010008752B00085F0100085F01000870
:1000B000812B00088D2B00085F0100085F010008FC
:1000C0005F0100085F0100085F0100085F01000890
:1000D0005F010008992F00085F0100085F01000818
:1000E0005F0100085F0100085F0100085F01000870
:1000F0005F0100085F0100085F0100085F01000860
:100100005F0100085F0100085F0100085F0100084F
:100110005F0100085F0100085F0100085F0100083F
:100120005F0100085F0100085F0100085F0100082F
:10013000DFF80CD000F02AF80048004751330008DF
:10014000C80600200648804706480047FEE7FEE74D
:10015000FEE7FEE7FEE7FEE7FEE7FEE7FEE7FEE777
:100160002D2B000831010008D2B201E000F8012B6C
:10017000491EFBD270470022F6E710B513460A4627
:1001800004461946FFF7F0FF204610BD064C074D08
:1001900006E0E06840F0010394E807009847103457
:1001A000AC42F6D3FFF7C8FFAC3A0008CC3A0008DF
:1001B00070B504462068816811F0010F1FD0816876
:1001C00021F00101816001F085F805462068806812
:1001D00010F0010F13D001F07DF8401B022809D95F
:1001E000A06A40F01000A062E06A40F00100E06206
:1001F000012070BD2068806810F0010FEBD1002055
:1002000070BD10B50246506A816A11F0500F05D0DA
:10021000006A016BBDE8104010460847816A41F44E
:1002200000718162016889684FF4602232EA01013D
:100230000DD1C16859B9816A21F480718162816AE6
:1002400011F4805F03D1816A41F00101816200F005
:1002500097F910BD10B5406A816A41F04001816292
:10026000C16A41F00401C16200F019FA10BD10B575
:10027000406A00F013FA10BDF8B504460026009657
:100280002068816811F0010F2FD1816841F00101D0
:100290008160174817490068B0FBF1F000900098A2
:1002A00028B10098401E009000980028F9D101F074
:1002B00011F805462068806810F0010F15D101F093
:1002C00009F8401B02280BD9A06A40F01000A06278
:1002D000E06A40F00100E06284F824600120F8BD8B
:1002E0002068806810F0010FE9D00020F8BD000000
:1002F0001800002040420F00014800F051BC0000EF
:100300001802002010B490F840C0012404FA0CFC3C
:10031000C46BC4F804C0D0F800C0CCF80430436803
:10032000102B05D0036899600068C26010BC70474C
:1003300003689A600068C16010BC7047012000F03B
:10034000AFBE022000F0ACBE042000F0A9BE082021
:1003500000F0A6BE102000F0A3BE202000F0A0BE3A
:10036000F8B504460026009694F82400012809D028
:10037000012084F824002046FFF71AFF07463800C2
:1003800002D063E00220F8BDA06A20F4885040F05B
:100390000200A062022001F097F82E490968B1FB23
:1003A000F0F040000090009828B10098401E0090A6
:1003B00000980028F9D12046FFF75EFF2068816889
:1003C00041F00801816000F085FF054620688068E3
:1003D00010F0080F13D000F07DFF401B0A2809D948
:1003E000A06A20F0020040F01000A06284F82460AF
:1003F0000120F8BD2068806810F0080FEBD120685C
:10040000816841F00401816000F064FF05462068C6
:10041000806810F0040F13D000F05CFF401B0A2826
:1004200009D9A06A20F0020040F01000A06284F810
:1004300024600120F8BD2068806810F0040FEBD123
:10044000A06A20F0020040F00100A06284F824605D
:100450003846F8BD1800002078B44FF0000C002496
:10046000009490F82420012A14D0012280F824203E
:100470004A681F25072A10D203685E6B521E02EBE2
:100480008202954026EA05050E6806FA02F22A4322
:100490005A631FE078BC022070470D2A0DD2036812
:1004A0001E6BD21F02EB8202954026EA05050E68FC
:1004B00006FA02F22A431A630CE00368DE6A0D3A78
:1004C00002EB8202954026EA05050E6806FA02F262
:1004D0002A43DA620A6807250A2A0DD30368DE6810
:1004E0000A3A02EB4202954026EA05058E6806FAB2
:1004F00002F22A43DA600BE003681E6902EB420253
:10050000954026EA05058E6806FA02F22A431A612A
:100510000A68102A01D0112A0BD10268A2F1804387
:10052000B3F592330AD0816A41F0200181624FF025
:10053000010C80F8244078BC60467047936813F43F
:10054000000FF6D1936843F4000393600968102903
:10055000EFD10949094A0968B1FBF2F101EB8101C8
:100560004900009100990029E3D00099491E0091AB
:1005700000990029F9D1DCE71800002040420F0063
:1005800070B5002400213F4B3F4D03F1320C002297
:10059000002000EB800603EB460636F8116032447B
:1005A000401C0528F5DBA5FB022080082CF8110073
:1005B000491C0529EBDB0020344D4FF47A723CF8DE
:1005C0001010B1F57A7F02D245F8202005E055F8E9
:1005D000201011B1491E45F82010401C0528EEDB03
:1005E000002055F8201009B1611C8CB2401C052870
:1005F000F7DB274E296831B100224FF480413046A5
:1006000000F061FE04E001229103304600F05BFE41
:10061000696831B100224FF40051304600F053FEBA
:1006200004E001225103304600F04DFE194EA96846
:1006300029B100222021304600F045FE04E00122CD
:100640002021304600F03FFEE96829B10022102148
:10065000304600F038FE04E001221021304600F060
:1006600032FE296929B100220821304600F02BFE14
:1006700004E001220821304600F025FE06484470BF
:1006800070BD000074020020CDCCCCCCB0020020A4
:100690000010014000180140D00000207047704752
:1006A0002DE9F04104460025002C03D0A06A002665
:1006B00018B108E00120BDE8F081E66284F824600A
:1006C000204600F08FF82046FFF772FD0146A06A31
:1006D00000F0100252EA010007D0A06A40F01000BA
:1006E000A06201210846BDE8F081A06A20F488508C
:1006F00040F00200A0622268A2F18040B0F59E3076
:1007000011D0E069D4F80CC040EA4C0360680343A0
:10071000A068B0F5807F0DD001280BD0002067695C
:10072000012F0AD018E0E069B0F5402FEAD14FF46C
:100730000020E7E74FF48070F1E7BCF1000F21D013
:10074000D4F828C04CF0200CC4F828C0D4F82CC031
:100750004CF0010CC4F82CC0D2F804C02CF4694C45
:100760004CEA0000506020688268DFF870C002EA3E
:100770000C021A438260A068B0F5807F0BD001287C
:1007800009D00BE0D4F818C0ACF1010C40EA4C30B1
:1007900040F40060E0E7208A401E05052068C26A38
:1007A00022F470022A43C262206880680C4A10401A
:1007B000984207D1E662A06A20F0020040F00100F2
:1007C000A0628FE7A06A20F0020040F01000A06253
:1007D000E06A40F00100E062012183E7FDF7E1FFFC
:1007E000FE0E1FFF30B587B004462068A0F180419F
:1007F000B1F5923129D11648816941F400718161C6
:10080000806900F4007001903B2002900320039067
:1008100002A9104800F050FC104D0F48286000203D
:100820006860A8608021E9604900296189006961E8
:100830002021A961E861284600F01CFB18B17A214B
:1008400007A002F0AFFB25626C6207B030BD00006C
:100850000010024000080140080002401802002079
:100860002E2E2F5372632F73746D33326631787866
:100870005F68616C5F6D73702E6300002DE9F04757
:100880000446884691462068434F444EA0F1804A72
:10089000BAF5923A01D0B84207D1306810F4702FFF
:1008A00003D001252846BDE8F08794F824000128EC
:1008B0000BD0012084F824002046FFF7DDFC05461C
:1008C00000212DB184F82410ECE70220BDE8F08768
:1008D000A06A20F0010020F4606040F48070A06203
:1008E0002068B8421AD1326812F4702F16D0A26A6A
:1008F00042F48012A262306810F4806F05D0A06AC2
:1009000020F4005040F48050A062A06A10F4805F90
:1009100013D0E06A20F00600E0620FE0A26A22F441
:100920008012A262406810F4806FEED0A06A20F4BA
:10093000005040F48050A062E7E7E16284F82410A0
:10094000216A17488862216A1648C862216A1648D7
:10095000086321686FF0020008602068816841F434
:100960008071816020684B4600F14C014246206A4C
:1009700000F0D8FA206881684FF4602232EA010161
:1009800004D0816841F4801181608BE7816841F473
:10099000A001816086E70000002801400424014096
:1009A000030200086F0200085502000810B5044653
:1009B00094F82400012807D0012084F82400204660
:1009C000FFF7F6FB10B10EE0022010BD2068816831
:1009D00021F480718160206A00F010F838B1A16ABA
:1009E00041F04001A162002184F8241010BDA16AE9
:1009F00021F4885141F00101A162F4E701680A681D
:100A000022F00E020A6001680A6822F001020A6000
:100A100090F84020C36B012101FA02F25A6080F87D
:100A20002110002180F82010084670472DE9F05F62
:100A3000002490F82110022903D0042181630124AD
:100A400090E001680A6822F00E020A6001680A68F4
:100A500022F001020A60454A0168454BDFF814C1E3
:100A6000454D464E464FDFF81C81DFF81C91DFF8FC
:100A70001CA1DFF81CB1DFF81CE1914232D9994288
:100A800001D101212BE0614501D1102127E0A942CC
:100A900002D14FF4807122E0B14202D14FF4805173
:100AA0001DE0B94202D14FF4803118E0414502D136
:100AB0004FF4801113E0494501D101210FE0514568
:100AC00001D110210BE0594502D14FF4807106E0AD
:100AD000714502D14FF4805101E04FF480312E4A2C
:100AE000116036E0994201D1012130E0614501D128
:100AF00010212CE0A94202D14FF4807127E0B142CD
:100B000002D14FF4805122E0B94202D14FF480313A
:100B10001DE0414502D14FF4801118E0914202D10D
:100B20004FF0807113E0494501D101210FE051459B
:100B300001D110210BE0594502D14FF4807106E03C
:100B4000714502D14FF4805101E04FF48031134AD6
:100B50005160012180F82110002180F82010416BA4
:100B600001B188472046BDE8F09F000080000240A8
:100B7000080002401C0002403000024044000240D5
:100B8000580002406C000240080402401C0402406D
:100B900030040240440402400404024000000240C9
:100BA0002DE9F05FC16B0A6801680B68D0F840B0AE
:100BB0004FF0040C0CFA0BFC1CEA020FDFF880C2A9
:100BC000A04CA14DA14EA24FDFF88882DFF8889299
:100BD000DFF888A270D013F0040F7ED00A6812F0FC
:100BE000200F03D10A6822F004020A609C4A0168BF
:100BF000914233D9614501D104212CE0A14201D1B8
:100C0000402128E0A94202D14FF4806123E0B142A3
:100C100002D14FF480411EE0B94202D14FF480214D
:100C200019E0414502D14FF4800114E0494501D15A
:100C3000042110E0514501D140210CE0894A914244
:100C400001D1091507E0884A914202D14FF4804151
:100C500001E04FF48021854A116038E0614501D1FF
:100C6000042132E0A14201D140212EE0A94202D16B
:100C70004FF4806129E0B14202D14FF4804124E079
:100C8000B94202D14FF480211FE0414502D14FF417
:100C900080011AE0914202D14FF0806115E0494590
:100CA00001D1042111E0514501D140210DE06D4AEF
:100CB000914202D1091508E00FE06B4A914202D13E
:100CC0004FF4804101E04FF48021694A5160C16ACC
:100CD000002970D0BDE8F05F08474FF0020E0EFA11
:100CE0000BFE1EEA020F67D013F0020F64D00A68F1
:100CF00012F0200F06D10A6822F00A020A600121D0
:100D000080F82110564A0168914233D9614501D1DA
:100D100002212CE0A14201D1202128E0A94202D1E8
:100D20004FF4007123E0B14202D14FF400511EE0B4
:100D3000B94202D14FF4003119E0414502D14FF4DC
:100D4000001114E0494501D1022110E0514501D1C3
:100D500020210CE0434A914201D1491507E0424A63
:100D6000914202D14FF4005101E04FF400313F4A6B
:100D7000116039E0614501D1022133E0A14201D186
:100D800020212FE0A94202D14FF400712AE0B142A4
:100D900002D14FF4005125E0B94202D14FF40031A5
:100DA00020E0414502D14FF400111BE0914204D1F3
:100DB0004FF0007116E041E01FE0494501D10221EA
:100DC00010E0514501D120210CE0264A914201D189
:100DD000491507E0244A914202D14FF4005101E045
:100DE0004FF40031224A5160002180F82010816ABE
:100DF000002923D0BDE8F05F08474FF0080C0CFA3B
:100E00000BFC1CEA020F19D013F0080F16D00A6869
:100E100022F00E020A6090F84020C36B012101FA13
:100E200002F25A60816380F82110002180F82010BE
:100E3000016B002902D0BDE8F05F0847BDE8F09FD4
:100E4000080002401C000240300002404400024002
:100E5000580002406C000240080402401C0402409A
:100E60008000024030040240440402400404024076
:100E70000000024010B400280ED0244B0168244A20
:100E800099420CD2234B0B44A2FB0332120992006D
:100E90000264214AC2630BE010BC012070471F4B63
:100EA0000B44A2FB03321209920002641C4AC26383
:100EB000022280F821200A686FF30D12D0F808C0D2
:100EC0004368046943EA0C03D0F80CC04CEA040CF4
:100ED00043EA0C03D0F814C043EA0C03D0F818C05E
:100EE00043EA0C03D0F81CC043EA0C031A430A601F
:100EF00000218162C162016341638163012280F844
:100F0000212080F8201010BC002070470804024007
:100F1000CDCCCCCCF8FFFDBF00000240F8FBFDBFFC
:100F20000004024070B50446002594F82000012812
:100F30000DD0012084F8200094F821C00020BCF1DD
:100F4000010F06D084F820000225284670BD02203B
:100F500070BD4FF0020C84F821C0A0632068D0F867
:100F600000C02CF0010CC0F800C02046FFF7CAF901
:100F7000E06A28B12068016841F00E01016009E0D3
:100F80002068016821F0040101602068016841F0D7
:100F90000A0101602068016841F001010160D4E7A5
:100FA00070B50146002601253B483C4C082946D037
:100FB0000DDC012918D0022927D0042906D100F020
:100FC00077F998B36079002800D0667170BD102958
:100FD00047D02029FAD100F06BF9002853D0607A6D
:100FE0000028F3D0667270BD012100F061F920B1D4
:100FF00020790028F7D0267170BD20790028FBD118
:101000002571BDE8704002F0CBBB022100F050F921
:1010100020B1E0790028EFD0E67170BDE0790028BA
:10102000FBD1E571BDE8704001F0D4BF60790028C4
:10103000F3D16571BDE87040012002F0B1BB082119
:1010400000F036F920B1207A0028E6D0267270BD73
:10105000207A0028FBD12572BDE87040012001F004
:10106000B9BF102100F024F920B1A0790028EED0FA
:10107000A67170BDA0790028FBD1A571BDE87040B4
:10108000022002F08DBB607A0028F2D16572BDE8C3
:101090007040022001F09EBF00100140D0000020EF
:1010A00010B504490A68024202D00860FFF778FFD1
:1010B00010BD0000140401402DE9F84F00239C46A8
:1010C000DFF8E0810F2708F1040909F1040A0AF1A9
:1010D000040B012202FA0CF60A683240B2427DD1BA
:1010E000DFF8C4E14C68A4EB0E0574452BD00DDC91
:1010F000032C34D005DC34B3012C19D0022C2FD1B1
:101100001BE0112C16D0122C2AD119E0B5F5881F3E
:1011100019D006DCB5F5803F15D0B5F5801F1FD17D
:1011200011E0B5F5001F0ED0B5F5041F18D10AE087
:10113000CB6815E0CB681B1D12E0CB6808330FE0CD
:10114000CB680C330CE08B6823B1012B04D008234F
:10115000466105E0042303E00823066100E0002364
:10116000B2F5807F01D2054601E000F1040502D20C
:101170004FEA8C0403E0ACF108044FEA84042E68C3
:1011800007FA04FE26EA0E0603FA04F446EA04040B
:101190002C604C6814F0805F7CD0444CA56945F00D
:1011A0000105A561A46904F0010400942CF0030476
:1011B00004F1804404F58034A6684FEA8C754FEA48
:1011C000157507FA05FE26EA0E0EA0F18046B6F563
:1011D000843620D0B6F580661FD000E05AE0B6F520
:1011E00080661CD0B6F580661BD0B6F580661AD036
:1011F000B6F5806619D0062606FA05F545EA0E050D
:10120000A5604C6814F4803F11D0D8F80040144316
:10121000C8F8004010E00026EEE70126ECE70226C1
:10122000EAE70326E8E70426E6E70526E4E7D8F838
:1012300000409443C8F800404C6814F4003F05D0C7
:10124000D9F800401443C9F8004004E0D9F8004040
:101250009443C9F800404C6814F4801F05D0DAF8B4
:1012600000401443CAF8004004E0DAF80040944318
:10127000CAF800404C6814F4001F05D0DBF80040A9
:101280002243CBF8002005E0DBF8004024EA02020C
:10129000CBF800200CF1010CBCF1100FFFF419AFDA
:1012A000BDE8F88F0004014000001110001002405A
:1012B0008068084201D00120704700207047C26852
:1012C0005140C1607047002A01D001617047090494
:1012D000016170470148006870470000000000206D
:1012E00070B50446002C1AD021684CF6CC4008603A
:1012F000216845F25550086021686068486021689F
:10130000A0688860FFF7E6FF05462068C06860B106
:10131000FFF7E0FF401B302803D9032070BD0120F8
:1013200070BD2068C0680028F2D121684AF6AA2062
:101330000860002070BD00684AF6AA210160002004
:101340007047000002480168491C016070470000B6
:101350000000002010B50748016841F0100101604D
:10136000032000F09FF8052000F006F800F018F8C0
:10137000002010BD0020024010B5044607484FF47D
:101380007A720068B0FBF2F000F004FD0022214602
:10139000501E00F053F8002010BD0000180000207F
:1013A00008B51E48816941F001018161806900F042
:1013B00001000090032000F075F8002211466FF044
:1013C0000B0000F03BF8002211466FF00A0000F01D
:1013D00035F8002211466FF0090000F02FF80022C6
:1013E0001146501F00F02AF800221146101F00F08D
:1013F00025F800221146901E00F020F80521002259
:10140000881F00F01BF80648416821F0E061416048
:10141000416841F00071416008BD000000100240C9
:101420000000014000F01F01012202FA01F1400911
:10143000800000F1E020C0F80011704710B4184B94
:101440001B68C3F30223C3F1070CBCF1040F01D9DD
:101450004FF0040C1C1D072C01D2002300E0DB1E02
:10146000012404FA0CFCACF1010C0CEA01019940D6
:1014700004FA03F35B1E1A401143002808DA00F057
:101480000F0000F1E020090180F8141D10BC704726
:1014900000F1E020090180F8001410BC7047000042
:1014A0000CED00E000F00700064A11684FF6FF035C
:1014B000194041EA002040F0FD7040F0806010606B
:1014C000704700000CED00E010B586B001463CA06E
:1014D000D0F808C043680268C068CDF810C0039314
:1014E000029205903AA0006801900020394C04292E
:1014F00036D00EDC01293DD0022908D100F0EEF9EA
:101500006168C1F38131491C4900B0FBF1F006B0BC
:1015100010BD082929D01029F9D16168226812F07C
:10152000807FF4D002A8C1F38342805C11F4803F35
:1015300009D0616801AAC1F34041515C264AB2FB5F
:10154000F1F1484301E025494843616811F4800FF7
:10155000DDD123494000A1FB001006B0400810BDBA
:1015600006B0BDE8104000F0C9B906B0BDE81040B3
:1015700000F0C4B9216A01F44072B2F5807F06D14F
:1015800011F0020F03D006B04FF4004010BDB2F5C9
:10159000007F07D1626A12F0020F03D049F6404083
:1015A00006B010BD4FF4407232EA0101F8D1216853
:1015B00011F4003FF4D006B04FF2244010BD0000FB
:1015C00002030405060708090A0B0C0D0E0F101084
:1015D000010200000010024000127A0000093D00E4
:1015E000ABAAAAAA2DE9F8430446DFF81C812078AB
:1015F00010F0010F6CD00027D8F81C0010F0805FAD
:101600000BD1D8F81C0040F08050C8F81C00D8F866
:101610001C0000F08050009001273C4D286810F419
:10162000807F16D1286840F480702860FFF752FE52
:101630000646286810F4807F0BD1FFF74BFE801B15
:10164000642802D90320BDE8F883286810F4807F5D
:10165000F3D0D8F8200000F4407048B3A18801F41A
:101660004071814224D0D8F8200020F440702849ED
:1016700001220A6000220A60C8F8200010F0010F61
:1016800016D0FFF727FE0546D8F8200010F0020F0D
:101690000ED141F28836FFF71DFE401BB04202D941
:1016A0000320BDE8F883D8F8200010F0020FF2D034
:1016B000D8F82000616820F440700843C8F8200082
:1016C000012F05D1D8F81C0020F08050C8F81C006C
:1016D000207810F0020F07D0D8F80400A16820F499
:1016E00040400843C8F80400207810F0100F07D0DD
:1016F000D8F80400616920F480000843C8F80400A9
:101700000020BDE8F8830000001002400070004097
:10171000400442422DE9F04704460D46DFF880813F
:10172000D8F8000000F00700A8420FD2D8F8000057
:1017300020F007002843C8F80000D8F8000000F0A7
:101740000700A84202D00120BDE8F0872078554F5D
:1017500010F0020F05D07868A16820F0F00008436F
:101760007860207810F0010F5FD06068012806D003
:1017700002280BD0396811F0020F29D00AE039682D
:1017800011F4003F06D10120BDE8F087396811F05F
:10179000007F1AD0796821F0030108437860FFF7D1
:1017A00099FD0646606841F28839012813D0022865
:1017B00024D0786810F00C0F37D0FFF78BFD801B1A
:1017C00048452ED90320BDE8F0870120BDE8F08709
:1017D0000120BDE8F087786800F00C00042824D0D0
:1017E000FFF778FD801B484502D90320BDE8F0874C
:1017F000786800F00C000428F2D116E0786800F058
:101800000C00082811D0FFF765FD801B484502D960
:101810000320BDE8F087786800F00C000828F2D1BA
:1018200003E0786810F00C0FC7D1D8F8000000F082
:101830000700A8420FD9D8F8000020F0070028437D
:10184000C8F80000D8F8000000F00700A84202D055
:101850000120BDE8F087207810F0040F05D07868EB
:10186000E16820F4E06008437860207810F0080F09
:1018700006D07868216920F4605040EAC1007860A1
:1018800000F03CF87968084AC1F30311515CC84084
:10189000064908600520FFF76FFD0020BDE8F087CE
:1018A0000020024000100240943A00081800002076
:1018B00001480068704700001800002000B5FFF7DD
:1018C000F7FF04494968044AC1F30221515CC8404A
:1018D00000BD000000100240A43A000800B5FFF768
:1018E000E7FF04494968044AC1F3C221515CC8407A
:1018F00000BD000000100240A43A000885B015A009
:10190000836802684168C068039301920291049061
:1019100014A000680090144B5968144801F00C02A0
:10192000042A11D0082A0FD101AAC1F3834C12F85E
:101930000C2011F4803F09D05968C1F340411DF8D3
:101940000110B0FBF1F0504305B07047084805B0F6
:101950005043704702030405060708090A0B0C0DE3
:101960000E0F1010010200000010024000127A0059
:1019700000093D002DE9F84F0446FA4D207810F09B
:10198000010F68D0686800F00C00042808D068686F
:1019900000F00C0008280DD1686810F4803F09D0D1
:1019A000286810F4003F56D06068002853D1012009
:1019B000BDE8F88F6068B0F5803F15D0C8B1B0F5CC
:1019C000A02F1FD0286820F480302860286820F4D9
:1019D00080202860606858B3FFF77CFC06462868C2
:1019E00010F4003F17D036E0286840F480302860BB
:1019F000F0E7286820F480302860286820F48020F0
:101A00002860E7E7286840F480202860286840F4D0
:101A100080302860DEE7FFF75DFC801B642802D978
:101A20000320BDE8F88F286810F4003FF3D012E0DF
:101A3000FFF750FC0646286810F4003F0BD0FFF774
:101A400049FC801B642802D90320BDE8F88F286870
:101A500010F4003FF3D12078C34F10F0020F4FF085
:101A6000010B4FF0000854D0686810F00C0F14D030
:101A7000686800F00C00082803D1686810F4803F03
:101A80000BD0206978B3C7F800B0FFF723FC0646F7
:101A9000286810F0020F12D01DE0286810F0020F25
:101AA00005D02069012802D00120BDE8F88F286800
:101AB000616920F0F80040EAC100286029E0FFF7E2
:101AC00009FC801B022802D90320BDE8F88F286892
:101AD00010F0020FF3D02868616920F0F80040EAA6
:101AE000C100286015E0FFE7C7F80080FFF7F2FBB0
:101AF0000646286810F0020F0BD0FFF7EBFB801BA7
:101B0000022802D90320BDE8F88F286810F0020FE0
:101B1000F3D1207810F0080F30D09448A169C1B1FA
:101B2000C0F800B0FFF7D6FB0646686A10F0020F57
:101B30000BD1FFF7CFFB801B022802D90320BDE8A1
:101B4000F88F686A10F0020FF3D0012000F080FFD8
:101B500014E0C0F80080FFF7BDFB0646686A10F08D
:101B6000020F0BD0FFF7B6FB801B022802D903201F
:101B7000BDE8F88F686A10F0020FF3D1207810F0FA
:101B8000040F6FD00026E86910F0805F08D1E86983
:101B900040F08050E861E86900F080500090012634
:101BA000DFF8CCA1DAF8000010F4807F1BD1DAF85E
:101BB000000040F48070CAF80000FFF78BFB8146FC
:101BC000DAF8000010F4807F0DD1FFF783FBA0EB63
:101BD0000900642802D90320BDE8F88FDAF8000074
:101BE00010F4807FF1D0E068012816D0D0B105282C
:101BF00021D0286A20F001002862286A20F0040021
:101C00002862E06841F2883A68B3FFF763FB8146D7
:101C1000286A10F0020F17D03AE0286A40F001005D
:101C20002862EEE7286A20F001002862286A20F086
:101C300004002862E5E7286A40F004002862286A68
:101C400040F001002862DCE7FFF744FBA0EB09004D
:101C5000504502D90320BDE8F88F286A10F0020F22
:101C6000F2D015E01AE0FFE7FFF734FB8146286A5F
:101C700010F0020F0CD0FFF72DFBA0EB0900504530
:101C800002D90320BDE8F88F286A10F0020FF2D1C4
:101C9000012E03D1E86920F08050E861E069E8B3E3
:101CA000696801F00C01082958D0022810D0C7F843
:101CB0006080FFF70FFB0446286810F0007F4AD0D1
:101CC000FFF708FB001B022841D90320BDE8F88F6D
:101CD000C7F86080FFF7FEFA0646286810F0007F1C
:101CE0000BD0FFF7F7FA801B022802D90320BDE8CA
:101CF000F88F286810F0007FF3D1206AB0F5803F9C
:101D000005D16868A16820F4003008436860616A02
:101D1000206A0843696821F4741100E01BE008435D
:101D20006860C7F860B0FFF7D5FA0446286810F07D
:101D3000007F10D1FFF7CEFA001B022802D9032042
:101D4000BDE8F88F286810F0007FF3D003E0286822
:101D500010F0007FB4D10020BDE8F88F0120BDE86D
:101D6000F88F00000010024000004242800442420E
:101D7000007000404FF0E021042804D0086920F0F2
:101D8000040008617047086940F00400086170476A
:101D900070470000401EB0F1807F01D301207047E2
:101DA0004FF0E0214861044AF02010700020886163
:101DB000072008610020704723ED00E010B5FFF711
:101DC000E7FF10BD7047704710B490F83C20012A1F
:101DD0002AD0012380F83C30022280F83D2002689E
:101DE000D2F804C02CF0700CC2F804C00268D2F81B
:101DF00004C00C684CEA040CC2F804C00268D2F8B3
:101E000008C02CF0800CC2F808C00268D2F808C0E4
:101E100049684CEA0101916080F83D30002180F86A
:101E20003C1010BC0020704710BC0220704710B559
:101E30000446002C03D094F83D0010B107E00120C7
:101E400010BD002084F83C00204600F00DF8022070
:101E500084F83D00211D206800F09EFE012084F8DA
:101E60003D00002010BD000008B500682049A0F129
:101E70008042B2F5963216D0B0F1804F25D012F5DF
:101E8000943234D1C86940F00200C861C86900F0DA
:101E90000200009001211D20FFF7D0FABDE80840A4
:101EA0001D20FFF7BFBA886940F400608861886927
:101EB00000F400600090002201211920FFF7BEFA13
:101EC000BDE808401920FFF7ADBAC86940F001002D
:101ED000C861C86900F001000090002201211C20A7
:101EE000FFF7ACFABDE808401C20FFF79BBA08BD1D
:101EF000001002400168CA6842F00102CA6000682E
:101F0000016841F001010160002070470168CA6862
:101F100022F00102CA600068016A41F21112114206
:101F200007D1016A9210114203D1016821F0010129
:101F300001600020704770B5044694F83C00012809
:101F400018D0012584F83C50022084F83D00206818
:101F5000826822F0770222F47F428260086850286B
:101F60003AD00EDC20285FD006DC002852D01028A2
:101F700063D154E0022070BD30285AD040285CD193
:101F80003EE0602832D070280CD0B0F5805F03D0DE
:101F9000B0F5005F51D113E02068816821F007019E
:101FA00081604AE0CB684A688968206800F03CFE9E
:101FB0002068816821F0770141F0770181603CE081
:101FC000CB684A688968206800F02EFE2068816826
:101FD00041F48041816030E0CA684968206800F0BF
:101FE00036FE5021206800F02AFE26E0CA684968C3
:101FF000206800F03FFE6021206800F020FE1CE019
:10200000CA684968206800F022FE4021206800F07C
:1020100016FE12E00021206800F011FE0DE01021F4
:10202000206800F00CFE08E02021206800F007FE88
:1020300003E03021206800F002FE84F83D500020CB
:1020400084F83C0070BD704770B504462068016993
:102050004FF0000511F0020F17D0C16811F0020F08
:1020600013D0E91E0161012020772068806910F0FB
:10207000030F03D02046FFF7E6FF05E0204600F0FF
:102080009DF8204600F09BF825772068016911F043
:10209000040F18D0C16811F0040F14D06FF00401C0
:1020A0000161022020772068806910F4407F03D00E
:1020B0002046FFF7C8FF05E0204600F07FF82046E5
:1020C00000F07DF825772068016911F0080F18D01D
:1020D000C16811F0080F14D06FF0080101610420ED
:1020E00020772068C06910F0030F03D02046FFF767
:1020F000AAFF05E0204600F061F8204600F05FF8F6
:1021000025772068016911F0100F18D0C16811F00F
:10211000100F14D06FF010010161082020772068A3
:10212000C06910F4407F03D02046FFF78CFF05E024
:10213000204600F043F8204600F041F8257720685B
:10214000016911F0010F09D0C16811F0010F05D02C
:102150006FF001010161204600F032F8206801694A
:1021600011F0800F09D0C16811F0800F05D06FF019
:10217000800101612046FFF725FE2068016911F00A
:10218000400F09D0C16811F0400F05D06FF0400139
:102190000161204600F074F82068016911F0200FF9
:1021A0000BD0C16811F0200F07D06FF02001016142
:1021B0002046BDE87040FFF706BE70BD704770470F
:1021C0002DE9F04105462B68A3F18040B0F596302B
:1021D0001FD0B3F1804F1FD010F5943017D10220DB
:1021E000012181F310882449C0EB001201EB820425
:1021F0006168002282F31088A268204E4FF4FA3CF6
:1022000091420CD140F2E7307060D862E860BDE8DE
:10221000F0814FF00000E3E74FF00100E0E706DA5D
:10222000A2EB0107BCFBF7FCC6F804C005E0A1EB7C
:102230000207BCFBF7FCC6F804C0D6F804C0BCF12A
:10224000250F01D24FF0250CC6F804C0C3F82CC0EE
:10225000C5F80CC0012383F31088914201DB0121F2
:1022600000E0002101F01EFA61680844606000206F
:1022700080F31088BDE8F0811C00002010000020D1
:102280007047704710B5044622681068D1685269DB
:1022900000F00F03002B0AD110F0200F07D011F02F
:1022A000200F04D02046BDE8104000F018BD002BE0
:1022B0006BD002F0010301F4907C53EA0C0364D06C
:1022C00010F0010F06D011F4807F03D0E36B43F0D0
:1022D0000103E36310F0040F06D012F0010F03D0E6
:1022E000E36B43F00203E36310F0020F06D012F039
:1022F000010F03D0E36B43F00403E36310F0080F16
:1023000006D012F0010F03D0E26B42F00802E26344
:10231000E26B002A2ED010F0200F05D011F0200F14
:1023200002D0204600F0DBFC20684069C0F380103A
:10233000E16B01F00801084321D0204600F0B4FC15
:102340002068416911F0400F15D0416921F040012A
:102350004161606B58B118494163606BFEF766FBE1
:10236000002807D0606B416BBDE81040084720464D
:10237000FFF787FF10BD2046FFF783FF10BD204603
:10238000FFF77FFF0020E06310BD10F0800F07D043
:1023900011F0800F04D02046BDE8104000F0C8BD09
:1023A00010F0400FF0D011F0400FEDD02046BDE806
:1023B000104000F087BC0000992C000870B504465E
:1023C000002C04D094F83900002510B106E001205B
:1023D00070BD84F83850204600F022F8242084F89C
:1023E00039002068C16821F40051C160204600F026
:1023F000C5FC2068016921F49041016120684169B0
:1024000021F02A0141612068C16841F40051C16096
:10241000E563202084F8390084F83A00002070BD7C
:1024200010B586B00068A0F18041B1F59C3125D18E
:102430001348816941F480418161806900F48040E2
:1024400001904FF400700290022003900320059049
:102450000C4C02A92046FEF72FFE21150291002107
:102460000391049102A92046FEF726FE00220221D4
:102470002520FEF7E3FF2520FEF7D4FF06B010BDB0
:10248000001002400008014090F83A30202B01D0A3
:1024900002207047F9B1F2B190F83830012B1CD00E
:1024A00081628285C2850021C163222280F83A20A0
:1024B00080F838100168CA6842F48072CA60016806
:1024C0004A6942F001024A610068C16841F0200196
:1024D000C160002070470120704702207047000053
:1024E0001E49887D002802D14878FF280FD0887DBA
:1024F0000022012813D0887D082823D34878EE28AD
:102500001CD08A750122491C1548FFF7BDBF887D84
:10251000401C88750122491C1148FFF7B5BF487857
:10252000C22807D0FF2800D08A750122491C0C4818
:10253000FFF7AABF887D401C8875F6E70120087068
:102540008A75DFE748788A7D064BD054887D401C29
:1025500088750122491C0248FFF796BF5C020020E3
:10256000D80100205E0200207047000070B584B0E2
:102570002E482D490160891581600124C460002620
:1025800046614FF46021C161466005250561FEF793
:1025900087F820B140F2AE2125A000F003FD01969E
:1025A00002940720039001A92048FDF755FF20B1B0
:1025B0004FF42E711EA000F0F5FC01940220029051
:1025C00001A91A48FDF748FF20B140F2C12118A027
:1025D00000F0E8FC03200190029001A91348FDF7E8
:1025E0003BFF20B140F2CA2111A000F0DBFC042027
:1025F0000190029001A90D48FDF72EFF20B140F295
:10260000D3210BA000F0CEFC0195029501A907484B
:10261000FDF722FF002804D04FF4377104A000F02A
:10262000C1FC04B070BD000000240140DC000020AB
:102630002E2E2F5372632F6D61696E2E6300000082
:1026400008B50948416941F001014161406900F064
:1026500001000090002204210B20FEF7EFFEBDE8F0
:1026600008400B20FEF7DEBE001002402DE9F047C7
:1026700086B06F48816941F040018161816901F054
:1026800040010191816941F010018161816901F08E
:1026900010010191816941F004018161816901F0BA
:1026A00004010191816941F008018161816901F0B2
:1026B00008010191816941F020018161806900F088
:1026C000200001905B4C002278212046FEF7FBFDA4
:1026D000594F00224FF4F8413846FEF7F4FDDFF879
:1026E0005C81002249F204014046FEF7ECFDDFF870
:1026F0005091002241F203114846FEF7E4FDDFF855
:1027000044A1002240F6FF015046FEF7DCFD012205
:1027100011024046FEF7D7FD01224FF43E714846B4
:10272000FEF7D1FD7820029001250395032605963A
:1027300002A92046FEF7C0FC4FF4F8400290039532
:10274000059602A93846FEF7B7FC3F2002903E48A6
:1027500003900024049402A93846FEF7ADFC49F228
:10276000041002900395059602A94046FEF7A4FCCA
:1027700041F2FB3002900395059602A94846FEF708
:102780009BFC680302900394049402A94846FEF758
:1027900093FC40F6FF0002900395059602A950466F
:1027A000FEF78AFC4FF4704002900394049402A94F
:1027B0005046FEF781FC4FF470700290039404942D
:1027C00002A93846FEF778FC002211460620FEF7E3
:1027D00035FE0620FEF726FE002211460720FEF7F2
:1027E0002DFE0720FEF71EFE002211460820FEF7F0
:1027F00025FE0820FEF716FE002211460920FEF7EE
:102800001DFE0920FEF70EFE002211460A20FEF7EB
:1028100015FE0A20FEF706FE002211461720FEF7DD
:102820000DFE1720FEF7FEFD06B0BDE8F0870000A4
:102830000010024000180140001001400008014053
:10284000000C0140001401400000311010B50A488E
:10285000084901600021416040F6FF718160FEF788
:102860003FFD002804D040F2EA2104A000F09AFBCA
:1028700010BD0000003000400C0100202E2E2F5310
:1028800072632F6D61696E2E6300000010B586B013
:10289000194818490160472141600024846040F2D2
:1028A000E731C160046144618461FFF7C0FA20B17F
:1028B00040F2FF2111A000F075FB4FF48050029010
:1028C00002A90D48FFF737FB20B140F205310BA0FC
:1028D00000F068FB0094019469460748FFF774FA1A
:1028E000002804D04FF4437104A000F05BFB06B055
:1028F00010BD0000002C0140180100202E2E2F5387
:1029000072632F6D61696E2E6300000010B586B092
:1029100018484FF0804101604721416000248460E5
:1029200040F2E731C16004618461FFF780FA20B1B1
:102930004FF4487110A000F035FB4FF48050029026
:1029400002A90C48FFF7F7FA20B140F226310AA09D
:1029500000F028FB0094019469460648FFF734FA1A
:10296000002804D040F22D3103A000F01BFB06B07C
:1029700010BD0000580100202E2E2F5372632F6DC2
:1029800061696E2E6300000010B586B018481749C3
:102990000160472141600024846040F2E731C1605A
:1029A00004618461FFF743FA20B140F2413111A084
:1029B00000F0F8FA4FF48050029002A90C48FFF79B
:1029C000BAFA20B140F247310AA000F0EBFA0094C5
:1029D000019469460648FFF7F7F9002804D040F251
:1029E0004E3104A000F0DEFA06B010BD0004004035
:1029F000980100202E2E2F5372632F6D61696E2E69
:102A00006300000010B50D480B4901604FF41651EA
:102A1000416000218160C16001610C2242618161DD
:102A2000C161FFF7CBFC002804D040F2613104A063
:102A300000F0B8FA10BD000000380140D8010020B5
:102A40002E2E2F5372632F6D61696E2E630000006E
:102A500081B007494FF4FA520968B1FBF2F14843DB
:102A6000009000BF0098411E0091FAD201B070475B
:102A70001800002010B5FEF765FCBDE81040FFF718
:102A80009DB9000030B597B009200C904FF480310B
:102A90000D9100250E9501201090129002241394A0
:102AA00014914FF4E01015900CA8FEF763FF20B1CD
:102AB00040F2792119A000F075FA0F2007900894D0
:102AC00009954FF480600A900B90022107A8FEF749
:102AD00021FE20B140F2872110A000F063FA00949B
:102AE0004FF4404002906846FEF77CFD20B140F272
:102AF0008E210AA000F056FAFEF7DAFE4FF47A7142
:102B0000B0FBF1F0FFF746F90420FFF733F9052198
:102B10000022881FFEF792FC17B030BD2E2E2F53D7
:102B200072632F6D61696E2E630000000E480168AC
:102B300041F00101016041680C4A114041600168A7
:102B400021F4102121F080710160016821F48021BD
:102B50000160416821F4FE0141604FF41F01816072
:102B60000349C00308607047001002400000FFF8EE
:102B700008ED00E00148FFF767BA000018010020E7
:102B80000148FFF761BA0000580100200148FFF733
:102B90005BBA000098010020F0B402681D4B1E4C87
:102BA0001E4D1F4EDFF87CC098420AD0604508D009
:102BB000B0F1804F05D0A04203D0A84201D0B0426E
:102BC00003D122F070024F683A4398420AD0604520
:102BD00008D0B0F1804F05D0A04203D0A84201D068
:102BE000B04203D122F44072CC68224322F080022A
:102BF0004C69224302608A68C2620A688262984213
:102C000001D0604501D10969016301214161F0BC36
:102C100070470000002C0140000400400008004004
:102C2000000C004000340140D0F808C02CF47F4C68
:102C300042EA0322114341EA0C0181607047826835
:102C400022F07002114341F0070181607047036A6E
:102C5000D0F820C02CF0010CC0F820C0D0F818C06B
:102C60002CF0F00C4CEA021223F00A0319438261A3
:102C700001627047036A23F010030362D0F818C0A2
:102C8000036A2CF4704C4CEA023223F0A00343EAAE
:102C9000011182610162704710B5406A0021C1854F
:102CA000C184FFF7EEFA10BD0168CA6822F4907281
:102CB000CA6001684A6922F001024A61202180F855
:102CC0003A10704710B50168CA6822F04002CA6025
:102CD000202180F83910FFF747FC002010BD10B507
:102CE00090F83A10222901D0022010BD8168B1F578
:102CF000805F11D0016919B30168496801F07F0252
:102D0000816A4B1C83620A70C18D491E0904090C3B
:102D1000C1851CD0002010BD816A02693AB10268E9
:102D20005268D2B20A80816A491C8162ECE702686B
:102D30005268C2F308020A80816A891C8162E3E753
:102D400001684A68816A4B1C83620A70DCE701688B
:102D5000CA6822F02002CA600168CA6822F4807240
:102D6000CA6001684A6922F001024A61202180F8A4
:102D70003A10FFF7B5FB002010BD00002DE9F0412F
:102D8000044620680169E26821F440511143016161
:102D90002169A0680143606901432068C26822F488
:102DA000037222F4A0521143C16020684169A269F4
:102DB00021F440711143416120685C4D3226A0F13D
:102DC0008041B1F59C3158D0FEF778FD00EBC00191
:102DD00001EB001061688900B0FBF1F7FEF76EFDB2
:102DE00000EBC00101EB001061688900B0FBF1F05D
:102DF000A5FB001040096FF01801484307EB800065
:102E000006EB0010A5FB0010400900F0F007FEF7EC
:102E100055FD00EBC00101EB001061688900B0FBBB
:102E2000F1F0A5FB0010400907EB0017FEF746FD87
:102E300000EBC00101EB001061688900B0FBF1F804
:102E4000FEF73CFD00EBC00101EB0010616889005A
:102E5000B0FBF1F0A5FB001040096FF018014843EA
:102E600008EB800006EB0010A5FB00102168C0F302
:102E7000431038448860BDE8F081FEF72FFD00EB79
:102E8000C00101EB001061688900B0FBF1F7FEF7AB
:102E900025FD00EBC00101EB001061688900B0FB6B
:102EA000F1F0A5FB001040096FF01801484307EB53
:102EB000800006EB0010A5FB0010400900F0F007B1
:102EC000FEF70CFD00EBC00101EB0010616889000A
:102ED000B0FBF1F0A5FB0010400907EB0017FEF76F
:102EE000FDFC00EBC00101EB001061688900B0FB44
:102EF000F1F8FEF7F3FC00EBC00101EB0010616894
:102F00008900B0FBF1F0A5FB001040096FF018013B
:102F1000484308EB800006EB0010A5FB0010216879
:102F2000C0F3431038448860BDE8F0811F85EB5141
:102F300090F83910212901D0022070478168B1F53D
:102F4000805F0CD0016A4A1C0262026809785160F5
:102F5000C18C491E0904090CC18410D019E0016A12
:102F600002680988C1F308015160016919B1016A59
:102F7000491C0162ECE7016A891C0162E8E701680B
:102F8000CA6822F08002CA600068C16841F040014E
:102F9000C1600020704700000148FFF773B90000CE
:102FA000D8010020FEE702E008C8121F08C1002A6D
:102FB000FAD170477047002001E001C1121F002ABA
:102FC000FBD1704700230146491EFDD25B1C0A2B32
:102FD000F9DB704770B505460C48C5EB051100EBF1
:102FE00081040022A18DA06AFEF76DF908480068EF
:102FF000002809D1074828440079002804D1A06B93
:103000006FF018014843606070BD00001C00002094
:1030100008000020D0000020C0EB0011054800EBA4
:103020008100016A828C836A0362838D838481625A
:10303000828570471C0000202DE9F04F87B00021E9
:103040000491059106910191029103910020DFF80E
:1030500088B2012202FA00F3DBF804C043EA0C0351
:10306000CBF80430401CC0B20328F3D3DBF80400D3
:1030700020F00200CBF80400002874D0DFF85C8256
:10308000DFF85C92DFF85CA201AF0024012000FAB7
:1030900004F6DBF80400064200F00E81012080F304
:1030A000108891482044C579002080F3108857F893
:1030B0002400052880F0FD80DFE800F00335669EDF
:1030C000CE005CB900224FF480414846FEF7FBF881
:1030D00000224FF400514846FEF7F5F8022C09D1C2
:1030E000002220215046FEF7EEF800221021504623
:1030F000FEF7E9F835B157F82400401C47F82400E2
:1031000000F0DAB8C4EB041008EB80000122818DD6
:10311000806AFEF7D8F80123C8221946204600F03D
:103120000DFB00F0C9B854B9012291034846FEF7DF
:10313000CAF800224FF400514846FEF7C4F8022CAA
:1031400009D1012220215046FEF7BDF800221021AE
:103150005046FEF7B8F8012D06D057F82400401C61
:1031600047F82400A8E0B4E0C4EB041008EB8000AA
:103170000122818C006AFEF7A6F80123C8220021F3
:10318000204600F0DBFA97E054B900224FF480416A
:103190004846FEF798F8012251034846FEF793F897
:1031A000022C09D1002220215046FEF78CF8012282
:1031B00010215046FEF787F875B1C4EB041008EBF8
:1031C00080000122818C006AFEF77DF857F8240008
:1031D000401C47F824006FE0C4EB041008EB8000AB
:1031E0000122818D806AFEF76EF80123C8221946FC
:1031F000204600F0A3FA5FE04CB901229103484653
:10320000FEF761F8012251034846FEF75CF8022CF4
:1032100009D1012220215046FEF755F80122102144
:103220005046FEF750F8C4EB041008EB8000806BAA
:1032300060B100EBC00101EB001104A840F82410BC
:1032400057F82400401C47F8240035E0DBF8040060
:10325000B043CBF804002FE04CB90122910348465B
:10326000FEF731F8012251034846FEF72CF8022CF4
:1032700009D1012220215046FEF725F80122102114
:103280005046FEF720F804AD55F82400A0B1012304
:10329000C8220021204600F051FA55F82400401EB3
:1032A00045F8240040B9DBF80400B043CBF8040033
:1032B00002E0002047F82400601CC4B2032CFFF495
:1032C000E5AE0A48FEF737F8DBF8040000287FF483
:1032D000DCAE07B0BDE8F08F040000201C00002029
:1032E0000010014000180140D00000200C01002017
:1032F00070B50024094EA6F1B4053019C07940B963
:10330000C4EB041005EB80000122818D806AFDF77B
:10331000DAFF601CC4B2032CEFD370BDD0000020D4
:1033200070B50024094EA6F1B4053019007940B9F2
:10333000C4EB041005EB80000122818C006AFDF7CC
:10334000C2FF601CC4B2032CEFD370BDD0000020BC
:10335000FEF700F8FFF796FBFFF788F9FFF770F923
:10336000FFF704F9FFF792FAFFF7D0FAFFF70CFB2B
:10337000FFF748FBFFF76AFAC04CDFF804934FF001
:1033800000084FF0010AB421BE48FCF7F4FE84F8AF
:10339000008084F8018084F8028084F80380BA4EAB
:1033A000C6F8088086F8008000F02EFA00F0B2FA25
:1033B00000F01AFA00F01CFB00F04AFB0125B34EA6
:1033C000B348FDF7B8FF4FF400514846FDF770FFD2
:1033D00000283BD00021012080F310886078084449
:1033E000A070002080F31088012080F310883778C7
:1033F000002080F31088012080F31088FFF778FF09
:10340000002080F31088012080F31088FFF788FFE8
:10341000002080F31088002F00F0E880012080F366
:10342000108886F8008088F31088974FB868401C91
:10343000984981FB00218A10A2EBE171494201EB1E
:10344000810100EB4100B86010B10AE00121C2E740
:1034500002214846FDF733FF4FF480514846FDF7FF
:103460002EFF387808B984F80280A07870B3012064
:1034700080F31088F079E070002080F3108801203C
:1034800080F31088B07900EBC00101EB00107D499A
:103490008860002080F31088012080F31088086F76
:1034A00000EBC00202EB00104864002080F310889B
:1034B000012080F31088307900EBC00202EB00108D
:1034C000C1F88000002080F3108838E0012080F3EC
:1034D00010886C49486B00EBC00202EB001088605A
:1034E000002080F31088012080F31088086F00EB23
:1034F000C00202EB00104864002080F31088012015
:1035000080F31088D1F8AC0000EBC00202EB001091
:10351000C1F88000002080F31088012080F310881B
:10352000F079E070002080F31088012080F310888B
:10353000E07800F04000E070002080F3108884F80C
:103540000080DFF854B14FF480515846FDF7B0FECB
:1035500010B92078401C20704FF400515846FDF7F8
:10356000A7FE10B92078801C20704FF48041584687
:10357000FDF79EFE10B92078001D20704FF4004129
:103580005846FDF795FE10B9207808302070DFF816
:103590000CB140215846FDF78BFE10B920780A3057
:1035A000207080215846FDF783FE10B92078143032
:1035B00020704FF480715846FDF77AFE10B92078DC
:1035C000283020704FF400715846FDF771FE10B995
:1035D000207850302070707AAA283FD0707AE0B3FB
:1035E000707A2178884201D187F800A0E0784FF402
:1035F00000712AEA90024846FDF765FEE0788021D6
:103600002AEAD0024846FDF75EFEE07840212AEA29
:1036100010124846FDF757FEE07820212AEA5012A2
:103620004846FDF750FEE07810212AEA90124846FD
:10363000FDF749FEE07808212AEAD0124846FDF756
:1036400042FEE07810F0010F0ED000F0D7F800F045
:10365000EDF900F015FA00250BE002E087F800A074
:10366000C4E787F80080C1E70122711C0C48FEF70F
:103670000BFF002D7FF4A4AE85E60000D0000020F3
:10368000000C01401C000020040000205C0200200F
:103690000C010020676666660014014000100140BE
:1036A000D80100202DE9F04105460E462148C5EB22
:1036B000051100EB8104277B3246DFF87C8018F887
:1036C0000500002807D00026012823D008F805604F
:1036D0000020BDE8F08194F83000012801D156B1F6
:1036E0000022A18A2069FDF7EEFDB74205D02673BE
:1036F0000020BDE8F0810122F3E7A18B0022A06940
:10370000FDF7E1FD18F80500401C08F80500002051
:10371000BDE8F081A18B0122A069FDF7D4FD08F876
:1037200005601FB14FF0FF30BDE8F0810120BDE81A
:10373000F08100001C0000201000002070B516462B
:10374000C0EB0012154800EB820494F83000012809
:1037500001D101B30021A08A0A4623690146184617
:10376000FDF7B1FD3046FFF72DFC0025A18B0022AF
:10377000A069FDF7A8FD3046FFF724FCA18B0122CC
:10378000A069FDF7A0FD3046FFF71CFC681CC5B220
:10379000032DEBD370BD0121DDE700001C000020EC
:1037A00070B505460D48C5EB051100EB81040022FC
:1037B000A18C206AFDF787FD0948006800280BD11D
:1037C00008482844C079002806D1A06BFF3000EBE0
:1037D000C00101EB0010606070BD00001C00002003
:1037E00008000020D0000020192202490248FDF7FD
:1037F00045B8000074020020DC0000200148FDF7FD
:10380000D5B80000DC00002070B53B4C012251020D
:103810002046FDF758FD012280212046FDF753FD8B
:10382000012240212046FDF74EFD012220212046A5
:10383000FDF749FD012210212046FDF744FD01223C
:1038400008212046FDF73FFD012240212B48FDF7CE
:103850003AFD2B4C012211032046FDF734FD294D82
:103860000122D1022846FDF72EFD01221102204639
:10387000FDF729FD012240212846FDF724FD012204
:1038800080212846FDF71FFD012210212846FDF763
:103890001AFD012220212846FDF715FD01220421F1
:1038A0002846FDF710FD012208212846FDF70BFDF3
:1038B000012291021448FDF706FD0122D1032046A2
:1038C000FDF701FD012202212846FDF7FCFC322113
:1038D0000E48FCF750FC0D480021C0F83210C0F82B
:1038E000361041870A48FCF73BFDBDE870401922BD
:1038F00006490748FCF7C2BF000C01400018014010
:103900000008014000140140001001407402002032
:10391000DC00002070B5324C304820610122A282C8
:103920003049A1610423A38320624021A184A062C5
:103930008021A185DFF8B0C0C4F84CC08114A4F880
:1039400050102A496165A4F85820E0651025A4F8B4
:10395000605060662025A4F86850C4F888C04FF411
:10396000006CA4F88CC0C4F890108115A4F89410D1
:10397000C4F89800A4F89C30C4F8A0000820A4F86B
:10398000A400002084F8300084F86C0084F8A8209B
:103990007F2161632067C4F8AC10A0636067C4F83E
:1039A000B0000025C5EB051004F8205004EB8001A1
:1039B000486B00EBC00202EB0010886091F8300009
:1039C000012802D12846FFF727FB681CC5B2032D4A
:1039D000E8D3BDE87040FFF72FBB000000140140A2
:1039E0001C0000200008014000100140000C0140B4
:1039F00010B50B4840F2E7340168CC62C460FEF7B2
:103A000079FA08480168CC62C460FEF773FA064888
:103A10000168CC62C460BDE81040FEF76BBA0000DC
:103A200018010020580100209801002010B5054819
:103A3000FEF76CFA0448FEF769FABDE81040034847
:103A4000FEF764BA180100205801002098010020F8
:103A500009480021016041608160C160016181828B
:103A6000817506490968CA6842F40052CA60012299
:103A7000411C0248FEF708BD5C020020D80100206E
:103A800003480068C16821F40051C160704700001C
:103A9000D801002000000000000000000102030423
:103AA000060708090000000001020304CC3A0008E0
:103AB000000000201C000000A62F0008E83A0008C3
:103AC0001C000020AC060000B62F0008000000001B
:103AD00000000000000000000000000000000000E6
:083AE000E703000000A24A0404
:0400000508000131BD
:00000001FF
